:100000006FC0E2C13EC987C086C085C084C083C0BE
:1000100082C081C080C07FC07EC07DC07CC07BC0EC
:100020007AC079C078C00403090410034600650053
:100030006C00690078006C007300160355005300D3
:1000400042004900520043006C006F006E006500E2
:100050001201100100000008C016DF0500010102B6
:1000600000010902220001010080190904000001B9
:1000700003000000092101010001225B0007058146
:100080000308006405010906A101050719E029E735
:1000900015002501850175019508810295017508F6
:1000A00015002565190029658100C005010902A117
:1000B000010901A100050919012903150025018580
:1000C00002950375018102950175058101050109FC
:1000D0003009311581257F750895028106C0C00061
:1000E00011241FBECFE5D4E0DEBFCDBF10E0A0E6F7
:1000F000B0E0E2E8F5E102C005900D92AA3DB1073B
:10010000D9F712E0AAEDB0E001C01D92AA32B10702
:10011000E1F70ED934CA74CFCF93C62F2091FE01D8
:1001200024FF07C02091FF0138E823272093FF0117
:1001300003C02AE52093FE01DC018C2F815090E062
:100140008F5F9D4FE0E0F2E02D912193E817F907D2
:10015000D9F780E092E06C2F33D1CC5FC093FE01E1
:10016000CF910895CF93DF9380910F02835087FD45
:10017000A8C090910C0220910B022D3209F09FC073
:10018000883009F09CC0CCE0D0E0C91BD109CD5E1D
:10019000DD4F83EC8093F3018AE580936000109239
:1001A000DA008881807619F0CE0115D97FC09A8156
:1001B0001092FC018981882331F41092FD012CEF0B
:1001C00031E082E06FC0853019F49093100267C06F
:1001D000863009F04EC08B81813041F480E590E09B
:1001E00090930E0280930D0282E13FC0823041F471
:1001F00082E690E090930E0280930D0282E235C079
:100200008330F1F4992341F486E290E090930E025A
:1002100080930D0284E029C0913041F48AE290E09D
:1002200090930E0280930D0280E11FC09230E1F4A2
:100230008AE390E090930E0280930D0286E115C050
:10024000813241F484E790E090930E0280930D0296
:1002500089E00BC0823241F484E890E090930E0272
:1002600080930D028BE501C080E090E49093DA006A
:100270001DC0883069F0893019F4909312020FC0C4
:100280008A3049F08B3059F48BE48093FF0107C02A
:1002900022E132E002C02CEF31E081E003C02CEF1C
:1002A00031E080E030930E0220930D029F8199236C
:1002B00021F49E81981708F4892F80936100109291
:1002C0000F028091600084FF4CC0809161008F3FDD
:1002D00009F447C0C82F893008F0C8E08C1B809310
:1002E00061008091F30198E889278093F301CC2382
:1002F00061F180910D0290910E023091DA002C2F65
:10030000215036FF0EC030E0A9014B505E4FFC017A
:10031000A4EFB1E064916D933196A417B507D1F7BE
:100320000CC0DC0130E0A9014B505E4FE4EFF1E07E
:100330006D916193E417F507D9F72F5F3F4F280FB1
:10034000391F30930E0220930D0284EF91E06C2F41
:1003500037D0CC5FCC3019F08FEF80936100C09321
:10036000600084E190B3947131F48150D9F7109218
:10037000100210920A02DF91CF91089585B7826032
:1003800085BF8BB780648BBF8BE48093FF018AE5C8
:100390008093FE010895A82FB92F80E090E041E0FE
:1003A00050EA609530E009C02D9182279795879596
:1003B00010F084279527305EC8F36F5FA8F3089587
:1003C000EADF8D939D930895CF93CFB7CF93C395D5
:1003D000849BE9F7849B09C0849B07C0849B05C06C
:1003E000849B03C0849B01C0A3C0DF93C0910C0217
:1003F000DD27CD5EDD4F849B02C0DF91EBCF2F93D5
:100400000F931F9300B32FEF04FB20F94F933F93FB
:1004100010B34FEF012704FB21F93BE031C04E7FC1
:10042000012F10B3216028C0102F4D7F22600000E3
:1004300000B329C04B7F2460012F000010B32BC0F4
:1004400010B3477F28602AC04F7E00B320612CC0C4
:100450004F7D10B320622FC04F7B00B3206432C0A9
:10046000422700B349934FEF0000102714FB20F9F7
:1004700010B31471C9F1297F91F2012704FB21F90E
:1004800000B3237F89F2315058F1102714FB22F971
:1004900010B3277E79F2012704FB23F92F7C81F228
:1004A00000B3102714FB24F92F7971F200C010B3A8
:1004B000012704FB25F92F7359F200C000B3102760
:1004C00014FB26F9223040F200C010B3012704FBD0
:1004D00027F9243028F64F77206810B30000F9CFB1
:1004E00010E41ABF002719C03B503195C31BD04000
:1004F00010E41ABF0881033CF9F00B34E9F02091B5
:100500000A021981110F1213EDCF4A81441F0936D7
:1005100041F10D3211F0013E29F7009311023F9194
:100520004F911F910F912F91DF91CAB7C6FD4FCF09
:10053000CF91CFBFCF91189520911102222379F34B
:1005400010910F02112369F534306AF130930F02D4
:1005500020930B0210910C023BE0311B30930C02F4
:1005600022C000910F020130E4F40AE54F7049F413
:100570003091600034FD19C000936000C3EFD1E0FA
:1005800018C03091FE0134FD10C00093FE01CFEF82
:10059000D1E00FC02795A8F45150A9F4220F000014
:1005A000F9CF4AE503C042ED01C0432FC4E1D0E0DA
:1005B00032E011B31461949A11BB02B320E414E148
:1005C0005F93012756E002BB279520F4515021F498
:1005D000220FF9CF012756E000003B5A02BBD0F2B0
:1005E000279528F4515029F4220F0000F9CF012754
:1005F00056E0279502BB20F4515021F4220FF9CF89
:10060000012756E02991332302BB21F60B7E10917E
:100610001002110FC651D04002BB11F010930A0214
:1006200010E41ABF006111B31B7E402F4B7E5F9117
:1006300000C000C002BB11BB42BB71CF8093E3007E
:10064000AD98AB98AC98AA98833011F4AD9A089500
:10065000882311F4AB9A0895853011F4AC9A08956B
:10066000823009F4AA9A08959B01281B390B37FFA1
:1006700003C0309521953F4F253631054CF463E09A
:1006800070E069D781E06217730718F480E008957D
:1006900080E0089581E08093E4001092E5001092DC
:1006A000E6001092E7001092E8001092E90080E066
:1006B0000895BB9A20E030E005C042E14A95F1F789
:1006C0002F5F3F4F28173907C4F3BB980895BB9895
:1006D00020E030E006C045E14A95F1F700002F5FC9
:1006E0003F4F28173907BCF30895EF92FF920F93FD
:1006F0001F93CF937B018C0186EA83BD2091ED018E
:10070000222341F080E090E8A0E0B0E0E826F9265E
:100710000A271B2781E0821B8093ED0187EF91E080
:10072000C8DF88EA90E0D3DF84E590E0C2DF84E5AB
:1007300090E0CDDF84E590E0BCDF84E590E0C7DFAA
:1007400084E590E0B6DF84E590E0C1DF84E590E0E9
:10075000BEDF84E590E0ADDF88EA90E0B8DF88EAAC
:1007600090E0A7DFC0E217FF07C084E590E0A1DFBB
:1007700084E590E0ACDF06C084E590E0A8DF84E586
:1007800090E097DFC15029F0EE0CFF1C001F111FF5
:10079000EACF8CE692E09BDFCF911F910F91FF9003
:1007A000EF900895EF92FF920F931F93CF937B01E9
:1007B0008C018DE983BD84EA96E07BDF80E293E0E3
:1007C00086DFC0E217FF06C088E790E072DF82E2B2
:1007D00091E005C088E790E06CDF80E590E077DF8E
:1007E000C15029F0EE0CFF1C001F111FEBCF88E752
:1007F00090E05FDFCF911F910F91FF90EF900895F0
:10080000EF92FF920F931F93CF937B018C018DE9A1
:1008100083BD8FE799EAA3E081509040A040E1F7C3
:1008200000C000003FE0EE0CFF1C001F111F3A95B6
:10083000D1F787E996E03DDFC1E117FF03C08AE207
:1008400093E002C086E891E042DF88E790E031DF84
:10085000C15029F0EE0CFF1C001F111FEECFCF91ED
:100860001F910F91FF90EF900895CF93DF93909198
:10087000E5009F5F9093E5002091E6003091E7004E
:100880004091E8005091E900220F331F441F551F8B
:100890002093E6003093E7004093E8005093E9008E
:1008A000813049F421602093E6003093E7004093C3
:1008B000E8005093E9008091E200981709F080C4A5
:1008C0008091DB00882309F074C48091E600909148
:1008D000E700A091E800B091E900803A22EE92078B
:1008E00020E0A20720E0B20729F46FEB70E486EB6A
:1008F0009BE4C9C3803522EE920720E0A20720E0E6
:10090000B20729F46FE370EC86EB9BE4BCC3883438
:1009100022EE920720E0A20720E0B20729F46FE55B
:1009200070EA86EB9BE4AFC3803022EE920720E0B2
:10093000A20720E0B20759F48091E3008250823090
:1009400008F0A2C36AE070ED81E090E001C3803658
:1009500022EE920720E0A20720E0B20759F480912E
:10096000E3008250823008F08FC362E070E381E0E0
:1009700090E0EEC2843022EE920720E0A20720E051
:10098000B20739F46FE870E786EB9BE40BDF83E096
:1009900009C0843C22EE920720E0A20720E0B207C3
:1009A00019F482E04BDE01C2843422EE920720E08B
:1009B000A20720E0B20739F46EEC71E386E39BE412
:1009C000F1DE80E0EFCF843822EE920720E0A2072C
:1009D00020E0B20739F46FE470EB86EB9BE4E2DED3
:1009E00085E0E0CF843E22EE920720E0A20720E0DF
:1009F000B20781F52091E300233021F0222311F08A
:100A0000223041F56FEE70E18FED90E2CBDE8FE3A7
:100A100099E1A1E081509040A040E1F700C00000C2
:100A20006FEE70E18FED90E2BDDE66E070E581E093
:100A300090E0E6DE66E070E581E090E0E1DEA7E9C7
:100A4000BAE31197F1F700C000006CE273ED86E3A2
:100A50009BE419C32091E300253009F011C1843EC5
:100A600022EE920720E0A20720E0B20729F46CE012
:100A700074E78FE090E802C1843922EE920720E00B
:100A8000A20720E0B20729F464E674EF8FE090E853
:100A9000F5C0883122EE920720E0A20720E0B207DD
:100AA00029F468E674EF8FE090E8E8C0883C22EE15
:100AB000920720E0A20720E0B20729F466E274E77B
:100AC0008FE090E8DBC0883622EE920720E0A20794
:100AD00020E0B20729F466E674E78FE090E8CEC024
:100AE000803122EE920720E0A20720E0B20729F42D
:100AF00065E274EF8FE090E8C1C0803822EE920783
:100B000020E0A20720E0B20729F46EE174EF8FE045
:100B100090E8B4C0803422EE920720E0A20720E0E3
:100B2000B20729F46FE174E78FE090E8A7C0803B3B
:100B300022EE920720E0A20720E0B20729F460E24B
:100B400074E78FE090E89AC0803322EE920720E0AD
:100B5000A20720E0B20729F461E274EF8FE090E889
:100B60008DC0803922EE920720E0A20720E0B20774
:100B700029F462E274EF8FE090E880C0803222EEC8
:100B8000920720E0A20720E0B20729F463E274EFA5
:100B90008FE090E873C0883022EE920720E0A20731
:100BA00020E0B20729F46BE074EF8FE090E866C0B4
:100BB000843222EE920720E0A20720E0B20729F457
:100BC00068E274E78FE090E859C0883B22EE920714
:100BD00020E0A20720E0B20729F465E174EF8FE07E
:100BE00090E84CC0883A22EE920720E0A20720E06D
:100BF000B20729F464E174E78FE090E83FC08839D8
:100C000022EE920720E0A20720E0B20779F480915B
:100C1000EC01882329F068E174E78FE090E804C0D4
:100C200066E174EF8FE090E860DD91C0883822EED5
:100C3000920720E0A20720E0B20731F469E174EFE7
:100C40008FE090E852DDB1C0883222EE920720E0BA
:100C5000A20720E0B20729F46AE174E78FE090E888
:100C60000DC0883322EE920720E0A20720E0B207F1
:100C700009F00AC26BE174EF8FE090E836DD04C240
:100C8000233009F067C1803822EE920720E0A207E6
:100C900020E0B20729F469E07CE281E090E058C1ED
:100CA000803422EE920720E0A20720E0B20729F468
:100CB00061E07CEA81E090E04BC1803322EE920754
:100CC00020E0A20720E0B20729F466E07CEE81E094
:100CD00090E03EC1803B22EE920720E0A20720E098
:100CE000B20729F46EE07CE681E090E031C18439FE
:100CF00022EE920720E0A20720E0B20729F46BE081
:100D00007CE081E090E024C1803922EE920720E06F
:100D1000A20720E0B20729F467E078E881E090E0DC
:100D200017C1883922EE920720E0A20720E0B2071F
:100D3000A9F48091EC01882329F060E078EF81E04C
:100D400090E004C062E078ED81E090E059DD81E060
:100D50009091EC01891B8093EC0196C1883B22EEB7
:100D6000920720E0A20720E0B20729F468E078E7C4
:100D700081E090E0EDC0883A22EE920720E0A207E1
:100D800020E0B20729F464E078EB81E090E0E0C075
:100D9000883822EE920720E0A20720E0B20741F453
:100DA0006CE078E381E090E02BDD1092EC016CC107
:100DB000883D22EE920720E0A20720E0B20729F446
:100DC0006FE070E881E090E0C3C0883C22EE9207BB
:100DD00020E0A20720E0B20729F467E070E481E098
:100DE00090E0B6C0803D22EE920720E0A20720E00E
:100DF000B20729F46BE070EC81E090E0A9C0883183
:100E000022EE920720E0A20720E0B20729F463E077
:100E100070E281E090E09CC0883022EE920720E0F2
:100E2000A20720E0B20729F46DE070EA81E090E0CB
:100E30008FC0803122EE920720E0A20720E0B207A7
:100E400029F465E070E681E090E082C0883722EE08
:100E5000920720E0A20720E0B20729F469E070EED3
:100E600081E090E075C0883622EE920720E0A2076C
:100E700020E0B20729F461E070E181E090E068C011
:100E8000803722EE920720E0A20720E0B20729F483
:100E90006EE070E981E090E05BC0883E22EE920750
:100EA00020E0A20720E0B20729F460E070E081E0D2
:100EB00090E04EC0803222EE920720E0A20720E0B0
:100EC000B20729F46BE078E481E090E041C0883219
:100ED00022EE920720E0A20720E0B20729F46FE09B
:100EE0007CE781E090E034C0883322EE920720E076
:100EF000A20720E0B20729F460E07CEB81E090E0FB
:100F000027C0883F22EE920720E0A20720E0B20728
:100F100029F463E07CE881E090E01AC0803F22EE93
:100F2000920720E0A20720E0B20729F466E078E902
:100F300081E090E00DC0803E22EE920720E0A20703
:100F400020E0B20709F0A0C065E07CEC81E090E011
:100F500057DC9AC0223009F097C0803822EE920701
:100F600020E0A20720E0B20729F46EEB71E486EBE3
:100F70009BE489C0803422EE920720E0A20720E0A3
:100F8000B20729F46EE371EC86EB9BE47CC08033FE
:100F900022EE920720E0A20720E0B20729F46EE5D6
:100FA00071EA86EB9BE46FC0803B22EE920720E063
:100FB000A20720E0B20729F46EED71E286EB9BE414
:100FC00062C0803922EE920720E0A20720E0B2073B
:100FD000A9F0803222EE920720E0A20720E0B207BB
:100FE00029F465ED7AE286E39BE44DC0803F22EE72
:100FF000920720E0A20720E0B20729F466E179EE2B
:1010000086EB9BE440C0883D22EE920720E0A207D9
:1010100020E0B20729F464ED7BE286E39BE433C071
:10102000803D22EE920720E0A20720E0B20729F4DB
:1010300064EF7BE085E39BE426C0803122EE9207DB
:1010400020E0A20720E0B20729F464E77BE885E30B
:101050009BE419C0803722EE920720E0A20720E02F
:10106000B20729F464EB7BE485E39BE40CC0803E8B
:1010700022EE920720E0A20720E0B20729F46DECEF
:1010800072E386E39BE48EDB8091E300882309F022
:1010900090C01BD2882309F48CC08091E600909107
:1010A000E700A091E800B091E900803822EE9207B5
:1010B00020E0A20720E0B20711F480E02AC08034CB
:1010C00022EE920720E0A20720E0B20721F480E0A0
:1010D0006AE003D26EC0803322EE920720E0A207BE
:1010E00020E0B20711F48AE009C0803B22EE9207AB
:1010F00020E0A20720E0B20719F486EF60E0E9CF14
:10110000813322EE920720E0A20720E0B20719F413
:101110008AE066EFDECF833322EE920720E0A2075B
:1011200020E0B20711F48AE0D3CF833B22EE92078E
:1011300020E0A20720E0B20711F486EFC9CF813B7F
:1011400022EE920720E0A20720E0B20711F486EF1A
:10115000E0CF803922EE920720E0A20720E0B2071C
:1011600011F4D3D126C0803222EE920720E0A207EC
:1011700020E0B20711F4CFD11CC0C2E6D0E0E0E01D
:10118000F0E02881398140E050E082179307A407FE
:10119000B50731F031962496EC31F10591F709C08D
:1011A000EE0FFF1FEE0FFF1FEE59FF4F838162818D
:1011B000B8D18FD188B391E0892788BB81E004C082
:1011C00081E0913208F480E0DF91CF9108950F9390
:1011D0001F93CF93DF9304E013E047C0E82FF0E0C4
:1011E000EE0FFF1FE551FF4FC081D18181709091BB
:1011F000E400913079F4882361F18091DB00882349
:1012000041F58091DC009091DD00BE012DDA88234C
:1012100001F102C0943019F41093E4001EC0933021
:10122000E1F48823B1F48091DE009091DF00BE01EB
:101230001BDA882311F081E009C08091E0009091D1
:10124000E100BE0111DA882321F080E00EDB882363
:1012500011F020DA02C00093E4008091EB0190E0ED
:1012600001968F7790708093EB019091EA008091C6
:10127000EB01981709F0B2CFDF91CF911F910F9139
:1012800008951F920F920FB60F9211248F939F9380
:10129000EF93FF93E091EA00F0E08CB59DB5EE0F7F
:1012A000FF1FE551FF4F918380838091EA0090E01A
:1012B00001968F7790708093EA0085B794E0892734
:1012C00085BF1DBC1CBCFF91EF919F918F910F902A
:1012D0000FBE0F901F9018958093DB008823A9F410
:1012E0008CE390E09093DD008093DC008AE491E051
:1012F0009093DF008093DE0082E890E09093E1001D
:101300008093E00080E18093E20083E097D9C2D926
:10131000C0988BB780688BBF1FBC85B7837F886000
:1013200085BF83E08EBD1DBC1CBC89E185BD0895D1
:10133000CF932EE088E190E00FB6F894A89581BD98
:101340000FBE21BD109229028FEF88BBC398C098B1
:1013500017BA85BBAB98AD98AC98AA9814BA82BB63
:101360009298949811BAB89AA39AA59AA49AA29A14
:1013700080E0B2DF62D0A3D0A4D08FEF90E0A89538
:10138000E7EBFBE03197F1F700C000000197B9F7F8
:101390009AD07894C1E0A89577D0809129028823CB
:1013A00009F415DF08B600FEF6CFC8BF49D0F3CF69
:1013B0001092D6001092D7001092D8001092D3004D
:1013C0001092D400089581E08093EF0185ED90E0C4
:1013D00064E0A2D60895FC0180818076803249F5D0
:1013E00081818130A9F48281813041F482ED90E0E5
:1013F00090930E0280930D0283E008958230C9F429
:1014000085ED90E090930E0280930D0284E00895A4
:10141000893079F0823041F481EF91E090930E02AF
:1014200080930D0281E008958A3029F483818093AE
:10143000F10180E0089580E0089585E083BF08957C
:101440008091F101882379F09091F201953020F09C
:1014500095509093F20107C08093F20181E0809350
:10146000EE018093EF018091F001882359F08150C3
:101470008093F001882331F49BDF81E08093EE01BB
:101480008093EF01C09808956DD68091FE0184FF8E
:1014900015C08091EE01882339F082ED90E063E081
:1014A0003BD61092EE0108958091EF01882331F030
:1014B00085ED90E064E030D61092EF0108955ED79C
:1014C00008958C9A08958C9808958091FE018071FA
:1014D000089588E08093F0010895DF93CF9300D0C2
:1014E000CDB7DEB76A83898363DF89816A81882308
:1014F00011F08093D700662311F06093D80063DF6A
:101500000F900F90CF91DF91089552DF81E080938B
:10151000D60059DF08954CDF82E08093D60053DF78
:101520000895DF93CF9300D0CDB7DEB76A83898368
:101530003FDF89818093D3006A816093D40081E08A
:101540008093EE0182ED90E063E0E6D50F900F907E
:10155000CF91DF910895AA1BBB1B51E107C0AA1FC1
:10156000BB1FA617B70710F0A61BB70B881F991F44
:101570005A95A9F780959095BC01CD010895F894EE
:02158000FFCF9B
:101582005AFFE4E213D064E210C0A4E2404024E235
:101592003D0438E2500998E2134828E25080B8E24C
:1015A200500988E22C09A8E24F0958E2440000E2FF
:1015B2004B0060E24E0048E22C0CF0E20808C0E268
:1015C2002A00D8E22B00C8E25200D0E2000818E25A
:1015D200500008E2280010E24F0078E2160868E2A4
:1015E200510070E22900F8E211C0E8E22B04E0E2C7
:0A15F20007080100000200000000DD
:00000001FF
