:020000040000FA
:040000008A110C282D
:08000800FF00030E8301A200BA
:100010000A08A3008A013B2807309F0031282808DE
:10002000AA002908AB00AC01AD01282883120313F4
:100030000230A0006130A1000A128A11A10B1C2815
:100040000A128A11A00B1A280000AC0A0319AD0A83
:100050002C082A02A0002D082B022004031D1628BC
:100060000800831606148610061686168312A5014C
:100070005530A6005D288B1C4628A4102408860055
:10008000A501270881000B118B108B160B1D56281C
:1000900027088100A50A25082602031951280318FC
:1000A0005528A414240886008B120B1123088A00FB
:1000B000220E8300FF0E7F0E09008B138B100B1690
:1000C0008316811201128115F83081059C3083124C
:1000D000A7000B118B12A410240886000B178B1796
:1000E000061E83283230A800A9010F208312061AA9
:1000F00076280230260203198128031C8128A603D2
:1001000083280130A600861E70283230A800A9017D
:100110000F208312861A8928553026020319942845
:0E01200003189428A60A70285530A6007028EF
:02400E00693F08
:00000001FF
