:020000040000FA
:1000000000008A110A12B42EF200030E8301F100DF
:100010000A088A01F000040883160313D60083122D
:1000200003130B1D442B0B11810187193A28323021
:10003000FF0000308A110A1248278A110A1283121F
:10004000031387193A2883120313871D232888175F
:10005000F4308A110A1272278A110A1283120313CA
:100060008813013083160313C8008A150A12292742
:100070008A110A1283120313071A6A283230FF000A
:1000800000308A110A1248278A110A1283120313B8
:10009000071A6A2883120313071E4A288817F430A8
:1000A0008A110A1272278A110A1283120313881303
:1000B000831603134808023A031D61280430C80060
:1000C0006528023083160313C8008A150A122927EF
:1000D0008A110A1283120313871A91283230FF0003
:1000E00000308A110A1248278A110A128312031358
:1000F000871A912883120313871E7A288817F430F1
:100100008A110A1272278A110A12831203138813A2
:10011000033083160313C8008A150A1229278A118F
:100120000A1283120313081BC7283230FF00003065
:100130008A110A1248278A110A1283120313081B14
:10014000C72883120313081FA128831603134B0823
:10015000283A031DAE280130CB00B2282830831680
:100160000313CB00831203138817831603134B0862
:1001700083120313A300A4012308FF0000308A1197
:100180000A1248278A110A128312031388130030B7
:100190008316031348040319092B83120313080859
:1001A00083160313D2002030520583120313A300D9
:1001B000230E0F39A4000310A40C24098316031383
:1001C000D000103083160313520583120313A300CB
:1001D000230E0F39A400240983160313D1008312C0
:1001E0000313A301831603134E088316031350064B
:1001F000031D052983120313A30A831603134F0853
:100200008316031351060319092B003083160313B9
:100210005004031D1D290030831603135104031DD0
:100220001D29831603134E08013A031D1D29831649
:1002300003134F08013A0319092B83120313A40176
:10024000831603135008013A031D3B29831203133D
:10025000A40A831603135108013A031D3B290030F9
:10026000831603134E04031D3B290030831603132A
:100270004F040319092B0030831603135004031D88
:100280005329831603135108013A031D532983167A
:1002900003134E08013A031D53290030831603133C
:1002A0004F040319092B003083120313240403198C
:1002B0006B290030831603135104031D6B29003092
:1002C000831603134E04031D6B29831603134F0873
:1002D000013A0319092B0030831203132304031975
:1002E0007A29831603135008831603135106031D3E
:1002F0008229472A831603135008831603135106D5
:10030000031D472A8A150A1229278A110A12013069
:10031000831603134802031C092B043048020318F8
:10032000092B480383120313A30001308A009E3077
:10033000230703188A0A831203138200A129ED29D7
:10034000062A0030831603134904031D092B831664
:1003500003134B0883120313A300A4012308FF3CDB
:10036000A5000030031C240A033CA6002508A700B2
:100370002608A800831203136F02031DC5298312E8
:1003800003132708831203136E020318DD29831257
:100390000313230883120313EE07831203132408A5
:1003A0000318240A0319D72983120313EF078A15A8
:1003B0000A12EC268A110A12E9298312031325086E
:1003C00083120313EE008312031326088312031310
:1003D000EF0083160313D301092B8316031355086B
:1003E0008316031353020318F729D30AFD29831632
:1003F0000313550883160313D3003230FF00003077
:100400008A110A1248278A110A12092B831603132C
:100410004B0883120313A300A4012308FF3CA5008B
:100420000030031C240A033CA6002508A700260868
:10043000A800831603133602031D242A8312031314
:1004400027088316031335020318372A8312031370
:10045000230883160313B507831203132408031814
:10046000240A0319362A83160313B607432A831274
:100470000313250883160313B500831203132608FC
:1004800083160313B60083160313D301092B8A15B1
:100490000A1229278A110A1201308316031348020F
:1004A000031C092B043048020318092B480383124C
:1004B0000313A30002308A006330230703188A0A5B
:1004C000831203138200662AB32AC82A00308316D7
:1004D00003134904031D092B831603134B088312CE
:1004E0000313A300A401831203136F0883120313E1
:1004F0002402031D812A831203136E08831203133F
:10050000230203189F2A831603134B088312031335
:10051000A300A401230883120313EE020030031882
:10052000962A83120313240A0319992A83120313A8
:10053000EF028A150A12EC268A110A12AF2A8316D4
:1005400003134B0883120313A300A40101302307F4
:1005500083120313EE00EF01EF0D0030EF07831657
:100560000313D301092B0230831603135302031C18
:10057000BB2AD303BF2A013083160313D3003230C2
:10058000FF0000308A110A1248278A110A12092B2B
:10059000831603134B0883120313A300A4018316CD
:1005A00003133608831203132402031DDD2A831666
:1005B000031335088312031323020318F62A831644
:1005C00003134B0883120313A300A401230883160B
:1005D0000313B50200300318F22A83120313240A0E
:1005E0000319F52A83160313B602062B8316031389
:1005F0004B0883120313A300A401013023078316C1
:100600000313B500B601B60D0030B6078316031309
:10061000D30183160313500883160313CE008316E9
:100620000313510883160313CF00FF3083160313FF
:10063000B307031CB40333083404031D402B831693
:100640000313C80183160313D301E4308316031385
:10065000B3001130B40083160313C90183120313CE
:100660000810881583160313CD0300304D04031DB5
:10067000402B831203130811053083160313CD009A
:10068000831203130B11B52B831203130C1FB52B0D
:1006900003308316031354020318AA2B03308A0075
:1006A0005730540703188A0A8312031382005A2B07
:1006B000772B912B831203131E0883120313A600BA
:1006C000A300A401831603131E0883120313A300BF
:1006D000A401230883160313B90083120313260809
:1006E00083160313BA0083160313D40AAA2B8312AA
:1006F00003131E0883120313A600A300A40183168C
:1007000003131E0883160313B70083120313A300F9
:10071000A401260883160313B80083160313D40A12
:10072000AA2B831203131E0883120313A600A3002F
:10073000A401831603131E0883160313BB00831240
:100740000313A300A401260883160313BC00831619
:100750000313D401831203130C13831603135408D9
:100760008A110A120F268A110A12831603135608D9
:10077000840070088A008301710E8300F20E720EED
:100780000900532483120313D200803E563E031CFB
:10079000D12B5208803E463E0318D12B0F30D20594
:1007A000D52BFF3083120313D20083120313520898
:1007B0000800E72383120313D000500EF039D10054
:1007C000E72383120313D000D104510808005324F7
:1007D00083120313CE00803E563E031CF72B4E08B7
:1007E000803E463E0318F72B0F30CE051C2C83129B
:1007F00003134E08803E3F3E031C032C4E08803EF0
:10080000393E031C0F2C831203134E08803E1F3EFB
:10081000031C182C4E08803E193E0318182C093072
:10082000831203134E07CF000F304F05CE001C2C50
:10083000FF3083120313CE00831203134E08080007
:1008400083120313981C262C1812181683120313F4
:100850008C1E2C2C1A082D2C003008008312031338
:10086000CB01CC01CD010030831203134B04031DD7
:100870004F2C4C08E83A031D412C4D08033A03194C
:100880004F2C83120313CC0A0319CD0A8A110A12C2
:1008900020248A110A1283120313CB00332C8312F3
:1008A00003134B08080083120313CA01003083129C
:1008B00003134A04031D652C8A110A1220248A118D
:1008C0000A1283120313CA00562C831203134A0818
:1008D000080083120313C800C7007F08C600C901BF
:1008E000C81BC90348088E2483120313C701460896
:1008F000C8008E24080083120313C500803E763E94
:10090000031C852C3730C507892C30308312031324
:10091000C507831203134508CC2408008312031370
:10092000C300430E0F39C400F030C419C4040F30A3
:10093000C40544088A110A127B248A110A120F3056
:10094000831203134305C4008A110A127B248A11FF
:100950000A12080083120313C1007F08C0007E083A
:10096000BF00831203133F08FE004008FF00410848
:100970008A150A12B9278A110A1283120313C200B8
:1009800042080319CB2C4208CC2483120313BF0A5C
:100990000319C00AB12C080083120313BE0083128E
:1009A00003130C1ECF2C831203133E088312031370
:1009B00099000800193083160313990018151812AE
:1009C00007138717831203139817831603130C1248
:1009D0008C1218138312031318131816831603139B
:1009E0009816080083120313E900803E763E031C2C
:1009F000FC2C3730E907002D303083120313E90750
:100A0000831203136908080083120313E7007F08A9
:100A1000E6007E08E500831203136508FE00660801
:100A2000FF0067088A150A12B9278A110A12831271
:100A30000313E80068080319272D6808FF00013038
:100A4000952583120313E50A0319E60A0B2D080006
:100A500003308316031386050F30FF0000308A1120
:100A60000A1248278A110A123030FF000030EA25A6
:100A70000530FF0000308A110A1248278A110A1235
:100A80003030FF000030EA2519308A110A1272272F
:100A90008A110A123030FF000030EA2519308A111D
:100AA0000A1272278A110A122030FF000030EA254C
:100AB00019308A110A1272278A110A122830FF008F
:100AC0000030952519308A110A1272278A110A12EC
:100AD0000130FF00003095250230FF0000308A1100
:100AE0000A1248278A110A120C30FF00003095259F
:100AF0000230FF0000308A110A1248278A110A12B8
:100B00000630FF00003095250A308A110A1272273C
:100B10008A110A120C30FF00003095250A308A1124
:100B20000A1272278A110A12080083120313E400C2
:100B3000E2007F08E300640C0318A12D8312031365
:100B40000611031CA62D831203130615F030831221
:100B500003136305E2000F308312031306058312AB
:100B60000313E40062048312031386008615000059
:100B70000000000000008312031386118312031388
:100B8000630EF039E400F0306405E2000F308312A8
:100B90000313060583120313E30062048312031395
:100BA0008600861500000000000000008312031379
:100BB00086111E3083120313E200E3010000FF30B0
:100BC00083120313E207031CE30362086304031D9B
:100BD000DE2D080083120313E100DF007F08E00030
:100BE000610C0318F62D831203130611031CFB2D51
:100BF0008312031306150F308312031306058312A5
:100C00000313DF00600483120313860086150000BF
:100C100000000000000083120313861108008316F1
:100C20000313A800C730831203139F0507308316F0
:100C30000313A8050310280DA9000310A90D031024
:100C4000A90D2908831203139F041E308A110A126A
:100C500072278A110A12831203131F1508008316C4
:100C60000313A400C730831203139F0507308316B4
:100C70000313A4050310240DA5000310A50D0310F4
:100C8000A50D2508831203139F043230FF000030A6
:100C90008A110A1248278A110A12831203131F1598
:100CA000831203131F19502E3230FF0000308A11B7
:100CB0000A1248278A110A12831203131E08831688
:100CC0000313A700A400A501A601831603131E08A1
:100CD00083160313A400A5012408A6040030A7046A
:100CE0002608FF0027080800831203131F1083162D
:100CF00003130C13080083160313A0007F08A10040
:100D00007E08A200831203139F010330831603138E
:100D10002005A300230EF039831203139F00031054
:100D20009F0D03109F0D0F3083160313A105803014
:100D30002104831603139F0083160313201DA32E83
:100D4000831603131F1783160313221CB02E83125E
:100D500003130C13831603130C17831203130B17BF
:100D6000831203131F1408007730FE000730FF00C2
:100D700080308A150A12CC278A110A1283120313B3
:100D8000D4007F08D3007930D5000730D600831215
:100D900003135308D7005408D800FF30D307031CAF
:100DA000D403570858040319442F04305507D700BB
:100DB000D801D80D5608D8075708FE005808FF007C
:100DC00080308A150A12CC278A110A128312031363
:100DD000DA007F08D9005508FE005608FF00803071
:100DE0008A150A12CC278A110A1283120313DC0017
:100DF000D8007F08DB00D70002305507D700D801A4
:100E0000D80D5608D8075708FE005808FF00803054
:100E10008A150A12CC278A110A1283120313D800EA
:100E2000DE007F08D700DD00831203135908DD00C0
:100E30005A08DE00FF30D907031CDA035D085E04A0
:100E400003193D2F5B08FE005C08FF0080308A1507
:100E50000A12B9278A110A1283120313DD005708F8
:100E600084008313581883175D088000DB0A031978
:100E7000DC0AD70A0319D80A142F06308312031389
:100E8000D5070318D60AC72E8A150A1200280800AB
:100E900083120313EB007F08EA00FD006B08FE00DD
:100EA0000A30FF0000308A150A127B278A110A12C5
:100EB00083120313EB007F08EA00EC01ED018312BB
:100EC00003136B086D02031D672F6A086C02031879
:100ED000712F1930722783120313EC0A0319ED0ADC
:100EE0005F2F0800013C013E031C732F08000234F1
:100EF0000034A5340734D534003401340034A6342A
:100F00000734D73400340134003461346D34703424
:100F1000653472346534733420343D342034003405
:100F2000743465346E34733469346F346E34203401
:100F30003D342034003464347534743479342034CE
:0E0F40003D34203400340A34003406340034CA
:10100000463083120313AE006530AF006C30B00081
:101010006930B1007830B2006C30B3007330B40086
:101020002030B5003230B6003030B700B80039306B
:10103000B9002030BA003A30BB002930BC00BD01F5
:10104000831203138B1383160313C8018316031330
:10105000C90183160313CA0183160313D301013098
:1010600083120313EE00EF01013083160313CB004C
:1010700083160313CE0183160313CF0101308316A9
:101080000313B500B601FF308316031385008601F4
:1010900038308700703088008901F430FF0001305B
:1010A0008A110A1248278A150A128312031385012E
:1010B00086018701880189018A110A12DA248A15BA
:1010C0000A12003083120313AC002E30AB00AD01C6
:1010D0002B08FE002C08FF0000308A110A12AA24F7
:1010E0008A150A12073083120313AC00A330AB0039
:1010F0008030AD002B08FE002C08FF002D088A115F
:101100000A12AA248A150A120130FE000230FF00DA
:1011100002308A110A127B268A150A12F9308316C8
:1011200003139200053083120313920095010C30D3
:1011300097008A110A1228258A150A1283120313AE
:101140000815003083120313AC002E30AB00AD0144
:101150002B08FE002C08FF0000308A110A1204251B
:101160008A150A12E830FF0003308A110A12482754
:101170008A150A120130FF0000308A110A129525E3
:101180008A150A12FA30FF0000308A110A12482725
:101190008A150A1202308316031381008312031387
:1011A0008B160B118B17081088152927831603132C
:1011B000D40100308A110A120F268A150A12272636
:1011C0009C25FD23F4228A110A1220248A150A1272
:1011D00083120313AB00613A031977292B08633A92
:1011E0000319742A2B08643A0319FF282B08733A51
:1011F0000319E02A2B08743A0319F029EA2A83120A
:1012000003136E0883160313BF0083120313AB008E
:10121000AC01831203136F0883120313AB00AC01FC
:10122000AC012B0883160313C00048270730831234
:101230000313AC009B30AB008030AD002B08FE00E8
:101240002C08FF002D088A110A12AA248A150A12F6
:10125000303083160313410783120313AB008A1146
:101260000A12CC248A150A1230308316031342075F
:1012700083120313AB008A110A12CC248A150A12B6
:10128000303083160313430783120313AB008A1114
:101290000A12CC248A150A1230308316031344072D
:1012A00083120313AB008A110A12CC248A150A1286
:1012B000303083160313450783120313AB008A11E2
:1012C0000A12CC248A150A120F3083120313AC00C1
:1012D000FC30AB008030AD002B08FE002C08FF0076
:1012E0002D088A110A12AA248A150A12EA2A8316DC
:1012F00003130C1383160313370883160313BF005D
:1013000083120313AB00AC01831603133808831256
:101310000313AB00AC01AC012B0883160313C00010
:10132000831603130C17372748270730831203133C
:10133000AC008530AB008030AD002B08FE002C08DF
:10134000FF002D088A110A12AA248A150A123030C9
:1013500083160313420783120313AB008A110A1288
:10136000CC248A150A122C308A110A12CC248A1530
:101370000A12303083160313430783120313AB00A2
:101380008A110A12CC248A150A12303083160313EC
:10139000440783120313AB008A110A12CC248A1566
:1013A0000A12303083160313450783120313AB0070
:1013B0008A110A12CC248A150A120F3083120313E1
:1013C000AC00FC30AB008030AD002B08FE002C08D8
:1013D000FF002D088A110A12AA248A150A12EA2A85
:1013E000831603130C138316031339088316031390
:1013F000BF0083120313AB00AC01831603133A083A
:1014000083120313AB00AC01AC012B08831603134A
:10141000C000831603130C174827073083120313E9
:10142000AC009030AB008030AD002B08FE002C08E3
:10143000FF002D088A110A12AA248A150A123030D8
:1014400083160313410783120313AB008A110A1298
:10145000CC248A150A1230308316031342078312F4
:101460000313AB008A110A12CC248A150A122C30FD
:101470008A110A12CC248A150A12303083160313FB
:10148000430783120313AB008A110A12CC248A1576
:101490000A12303083160313440783120313AB0080
:1014A0008A110A12CC248A150A12303083160313CB
:1014B000450783120313AB008A110A12CC248A1544
:1014C0000A120F3083120313AC00FC30AB008030E3
:1014D000AD002B08FE002C08FF002D088A110A120F
:1014E000AA248A150A12EA2A831603130C138316F8
:1014F00003133B0883160313BF0083120313AB00CF
:10150000AC01831603133C0883120313AB00AC0138
:10151000AC012B0883160313C000831603130C17AA
:1015200048270F3083120313AC00ED30AB0080303E
:10153000AD002B08FE002C08FF002D088A110A12AE
:10154000AA248A150A123030831603134107831226
:101550000313AB008A110A12CC248A150A12303008
:1015600083160313420783120313AB008A110A1276
:10157000CC248A150A122C308A110A12CC248A151E
:101580000A12303083160313430783120313AB0090
:101590008A110A12CC248A150A120F3083120313FF
:1015A000AC00FC30AB008030AD002B08FE002C08F6
:1015B000FF002D088A110A12AA248A150A12EA2AA3
:1015C000013083120313EE00EF0183160313B501FC
:1015D000B601EC266430FF0000308A110A12482759
:1015E0008A150A12DF280800831603130C138316CA
:1015F00003133808831603133602031D052B8316C5
:10160000031337088316031335020318352B0030F4
:10161000831603134904031D352B0130C9008312BF
:1016200003138811081488172C30FF0001308A1129
:101630000A1248278A150A1283120313881364308A
:10164000FF0000308A110A1248278A150A128312F5
:10165000031388172C30FF0001308A110A12482723
:101660008A150A128312031388130030831603139A
:101670003C02031D3D2B55303B020318632B013008
:10168000831603133802031D472B913037020318CA
:10169000632B0030831603133802031D512BC9300E
:1016A0003702031C672B83120313A1018312031358
:1016B000881C5D2B83120313A10A831203132108D4
:1016C000013A031D672B8312031388146A2B8312BC
:1016D00003138810831603130C178316031335089E
:1016E00083160313BF0083120313A100A001831606
:1016F0000313360883120313A100A001A0012108DF
:1017000083160313C00037274827C930FF00003075
:101710008A110A1295258A150A120E30FF00003030
:101720008A110A1295258A150A128316031348088E
:10173000033A031DA42B7E30FF0001308A110A12E8
:1017400095258A150A12AC2B2030FF0001308A1132
:101750000A1295258A150A123030831603134207A0
:1017600083120313A100FF0001308A110A1295258C
:101770008A150A122C30FF0001308A110A129525B1
:101780008A150A123030831603134307831203139A
:10179000A100FF0001308A110A1295258A150A124C
:1017A000303083160313440783120313A100FF0094
:1017B00001308A110A1295258A150A1230308316D3
:1017C0000313450783120313A100FF0001308A11A0
:1017D0000A1295258A150A124130FF0001308A113C
:1017E0000A1295258A150A120C30FF0000308A1162
:1017F0000A1295258A150A12080083160313480851
:10180000043A0319012D003048040319012D8312F5
:101810000313A90183120313081D112C8312031350
:10182000A90A831203132908013A031D012DC030B0
:10183000FF0000308A110A1295258A150A120E300F
:10184000FF0000308A110A1295258A150A124D30C0
:10185000FF0001308A110A1295258A150A123A30C2
:10186000FF0001308A110A1295258A150A120030EC
:1018700083160313530403194A2C30305307831281
:101880000313A900FF0001308A110A1295258A1559
:101890000A12522C2030FF0001308A110A129525BD
:1018A0008A150A12831603134808023A031D612C95
:1018B0007F30FF0001308A110A1295258A150A121D
:1018C000692C2030FF0001308A110A1295258A15F3
:1018D0000A122030FF0001308A110A1295258A155C
:1018E0000A122030FF0001308A110A1295258A154C
:1018F0000A122030FF0001308A110A1295258A153C
:101900000A122030FF0001308A110A1295258A152B
:101910000A120C30FF0000308A110A1295258A1530
:101920000A12003083160313530403199B2D8316E8
:1019300003134808023A031D9B2D0130831603133D
:101940005302031CFF2C073053020318FF2C5303D0
:1019500083120313A9000C308A00B430290703183E
:101960008A0A831203138200BA2CC52CD02CDB2CDC
:10197000E72CF42C693083120313EE00EF01C8301A
:1019800083160313B500B601FF2C7B3083120313BB
:10199000EE00EF01C83083160313B500B601FF2C2B
:1019A000873083120313EE00EF01C8308316031350
:1019B000B500B601FF2CCD3083120313EE00EF010A
:1019C0009A3083160313B5000130B600FF2C6C303B
:1019D00083120313EE000130EF009A3083160313D5
:1019E000B5000130B600FF2CE43083120313EE0083
:1019F0000130EF0083160313B5010430B600EC2666
:101A00009B2D831603130C13831603133B08FD0051
:101A10003C08FE006530FF0001308A150A127B2762
:101A20008A150A1283160313BE007F08BD008316B1
:101A300003130C17831603133D0883160313BF000B
:101A400083120313A900AA01831603133E0883120D
:101A50000313A900AA01AA01290883160313C000D1
:101A60004827C030FF0000308A110A1295258A15D8
:101A70000A120E30FF0000308A110A1295258A15CD
:101A80000A125430FF0001308A110A1295258A1576
:101A90000A123A30FF0001308A110A1295258A1580
:101AA0000A12303083160313410783120313A9006F
:101AB000FF0001308A110A1295258A150A1230306A
:101AC00083160313420783120313A900FF0001309A
:101AD0008A110A1295258A150A122C30FF0001304E
:101AE0008A110A1295258A150A12303083160313BB
:101AF000430783120313A900FF0001308A110A1261
:101B000095258A150A12D230FF0001308A110A1277
:101B100095258A150A122030FF0001308A110A1219
:101B200095258A150A120C30FF0000308A110A121E
:101B300095258A150A120800831603130C138316C1
:101B40000313370883160313BD00831603133808E5
:101B500083160313BE00831603130C178316031397
:101B60003D0883160313BF0083120313A100A001D5
:101B7000831603133E0883120313A100A001A001E2
:101B8000210883160313C000372748278A30FF0037
:101B900000308A110A1295258A150A120E30FF00AC
:101BA00000308A110A1295258A150A1230308316E0
:101BB0000313420783120313A100FF0001308A11AF
:101BC0000A1295258A150A122C30FF0001308A115D
:101BD0000A1295258A150A1230308316031343071B
:101BE00083120313A100FF0001308A110A12952508
:101BF0008A150A1230308316031344078312031325
:101C0000A100FF0001308A110A1295258A150A12D7
:101C1000303083160313450783120313A100FF001E
:101C200001308A110A1295258A150A124130FF00E7
:101C300001308A110A1295258A150A120C30FF000C
:101C400000308A110A1295258A150A120800831697
:101C500003130C13831603133908FD003A08FE0022
:101C60001930FF0000308A150A127B278A150A12E4
:101C700083160313BE007F08BD00831603130C17E1
:101C8000831603133D0883160313BF008312031347
:101C9000A100A001831603133E0883120313A100C1
:101CA000A001A001210883160313C000482780303B
:101CB000FF0000308A110A1295258A150A120E308B
:101CC000FF0000308A110A1295258A150A12003089
:101CD000831603134104031D762E2030FF000130CC
:101CE0008A110A1295258A150A12842E303083161D
:101CF0000313410783120313A100FF0001308A116F
:101D00000A1295258A150A123030831603134207EA
:101D100083120313A100FF0001308A110A129525D6
:101D20008A150A122C30FF0001308A110A129525FB
:101D30008A150A12303083160313430783120313E4
:101D4000A100FF0001308A110A1295258A150A1296
:101D5000303083160313440783120313A100FF00DE
:101D600001308A110A1295258A150A12303083161D
:101D70000313450783120313A100FF0001308A11EA
:101D80000A1295258A150A125630FF0001308A1171
:101D90000A1295258A150A12831603134808013A78
:101DA000031DDB2E7F30FF0001308A110A129525BA
:101DB0008A150A12E32E2030FF0001308A110A1220
:101DC00095258A150A120C30FF0000308A110A127C
:101DD00095258A150A1208000310831203136F0C4D
:101DE00083120313A100831203136E0C83120313D7
:101DF000A0000310A10CA00C20088312031395006F
:101E00000330831203136E0583120313A200A00094
:101E1000A1010310220CA0000130A005200C031822
:101E2000142F831203139712031C192F8312031309
:101E30009716013083120313A205220C0318232FD7
:101E4000831203131712031C282F83120313171670
:101E50000800831203130815053083160313CD0001
:101E6000E43083160313B3001130B40008004008B7
:101E7000C7003F08C6000310C00CBF0C0310C60DFE
:101E8000C70D4608BF0747080318470FC0070800DB
:101E9000400E0F39F03EC200C207E23EC300323EA0
:101EA000C50040080F39C307C307C507E93EC40092
:101EB000C407C4073F0E0F39C407C507C40DC50DBD
:101EC000C509C50D3F080F39C507C20D0730C10050
:101ED0000A30C507C403031C692FC407C303031CCE
:101EE0006D2FC307C203031C712FC207C103031C5C
:101EF000752F0030080083160313AB007F08AA007B
:101F00007E08AD007D08AC00AE01AF010830B00026
:101F1000831603132A1C922F2C08AE072D080318D2
:101F20002D0FAF07831603132A08B1002B08B20048
:101F30000030B21BFF30321CA52FB1010030AE07BC
:101F40002C08B2000318320FAF07831603132A08B8
:101F5000B1002B08B2000310320CAB00310CAA0008
:101F60000310AC0DAD0DB00B882F2E08FF002F080D
:101F70000800003A0319C02F803A0319C72F003414
:101F80007E08840083137F188317000808007F08E9
:101F90008A007E0882000800003A0319D42F803A94
:101FA0000319DE2FFF0100347E08840083137F189D
:101FB00083170008FF00840A000808008A150A1227
:101FC000C727FD00FE0FFF03FF0A8A150A12C72765
:101FD000FC007D08FF007C080800743465346D3413
:101FE00070346534723461347434753472346134ED
:0E1FF00020343D34203400340D340A340034E3
:02400E00313F40
:00000001FF
