:020000040000FA
:040000000AEF3CF0D7
:0400080056EF32F08D
:06002A00E00E936E400E93
:10003000946E816A8A6A826A8B6A806A896A0C0E07
:10004000C16E070EB46EFF0E926E806A896A000E52
:10005000E56E640EE56EC5EC3AF0020EE126006A2C
:10006000016A026A036A046A056A066A076A086A1C
:10007000096A0A6A0B6A0C6A0D6AF3EC3BF0000E1F
:10008000E56E000EE56E000EE56E000EE56EFCEC12
:1000900038F0040EE126D39E81920101596B0101D3
:1000A0005A6B01015B6B01015C6B96EC28F0000E52
:1000B000E56E800EE56E000EE56E000EE56E39EC25
:1000C00036F0040EE126000EE56E4A0EE56EAA0E2D
:1000D000E56EB6EC37F0030EE126000EE56EC00EBD
:1000E000E56E000EE56E000EE56E39EC36F0040E9E
:1000F000E126000EE56E4A0EE56EBC0EE56EB6EC2E
:1001000037F0030EE126030EE56EE80EE56EC5EC52
:100110003AF0020EE126000EE56E010EE56E000ECD
:10012000E56E000EE56E39EC36F0040EE126000EA9
:10013000E56E140EE56EC5EC3AF0020EE1260E6A8D
:10014000010E0F6E106A116A126A136A146A000EA9
:10015000E56EE5EC3BF0156EE12A1550010A01E170
:1001600045D1000EE56E4A0EE56ECE0EE56EB6EC9C
:1001700037F0030EE126010EE56EF40EE56EC5ECD8
:100180003AF0020EE1260F0E0001D16F0001D26B92
:10019000210E0001D36F0001D46B2A0E0001D56F30
:1001A0000001D66B320E0001D76F0001D86B460EEE
:1001B0000001D96F0001DA6B5A0E0001DB6F0001FC
:1001C000DC6B780E0001DD6F0001DE6B870E000135
:1001D000DF6F0001E06B900E0001E16F0001E26B48
:1001E000F00E0001E36F0001E46B010E0001E56F0A
:1001F0000001E66B030E0001E76F0001E86B050EDE
:100200000001E96F0001EA6B080E0001EB6F0001CD
:10021000EC6B0A0E0001ED6F0001EE6B0D0E00019C
:10022000EF6F0001F06B100E0001F16F0001F26B37
:10023000140E0001F36F0001F46B160E0001F56F50
:100240000001F66B180E0001F76F0001F86B010E4C
:10025000E56E000EE56E46EC3BF0020EE126010E67
:10026000166E176A186A0A0E175C1DE216C019F09E
:10027000162AD10E18241A6E1B6A000E1B221AC0F1
:10028000E9FF1BC0EAFFEECF1AF0EFCF1BF01A50C8
:10029000E56E1950E56E46EC3BF0020EE126182A99
:1002A000182A172AE0D7176A186A0A0E175C1DE287
:1002B00016C019F0162AE50E18241A6E1B6A000ED5
:1002C0001B221AC0E9FF1BC0EAFFEECF1AF0EFCFE6
:1002D0001BF01A50E56E1950E56E46EC3BF0020E2D
:1002E000E126182A182A172AE0D7090EE56E190EFA
:1002F000E56E46EC3BF0020EE126B10EE56E1A0EFD
:10030000E56E46EC3BF0020EE126090EE56E1B0E93
:10031000E56E46EC3BF0020EE1268C0EE56E1C0EFF
:10032000E56E46EC3BF0020EE1260A0EE56E1D0E70
:10033000E56E46EC3BF0020EE126000EE56E1E0E69
:10034000E56E46EC3BF0020EE1260A0EE56E1F0E4E
:10035000E56E46EC3BF0020EE126000EE56E200E47
:10036000E56E46EC3BF0020EE1261E0EE56E150E24
:10037000E56E46EC3BF0020EE1263C0EE56E160EF5
:10038000E56E46EC3BF0020EE1260A0EE56E170E16
:10039000E56E46EC3BF0020EE1260F0EE56E180E00
:1003A000E56E46EC3BF0020EE126280EE56E210ECE
:1003B000E56E46EC3BF0020EE1261E0EE56E220EC7
:1003C000E56E46EC3BF0020EE126500EE56E230E84
:1003D000E56E46EC3BF0020EE1260F0EE56E240EB4
:1003E000E56E46EC3BF0020EE12656D0000EE56EBF
:1003F0004A0EE56EE00EE56EB6EC37F0030EE12630
:10040000010EE56EF40EE56EC5EC3AF0020EE12643
:10041000010E166E176A186A0A0E175C1CE2D10EDE
:100420001824196E1A6A000E1A2216C01BF0162A1A
:100430001B50E56EE5EC3BF01B6EE12A1C6A19C00F
:10044000E9FF1AC0EAFF1BC0EEFF1CC0EFFF182A2D
:10045000182A172AE1D7176A186A0A0E175C1CE2D5
:10046000E50E1824196E1A6A000E1A2216C01BF027
:10047000162A1B50E56EE5EC3BF01B6EE12A1C6A68
:1004800019C0E9FF1AC0EAFF1BC0EEFF1CC0EFFF56
:10049000182A182A172AE1D7190EE56EE5EC3BF069
:1004A000166EE12A176A1750E56E1650E56E010EBA
:1004B000E56E000EE56E89EC36F0166EF3CF17F0A0
:1004C000040EE1261A0EE56EE5EC3BF0186EE12A0B
:1004D000196A18501626195017221750E56E165033
:1004E000E56E71EC39F0166EF3CF17F0F4CF18F01B
:1004F000E9CF19F0020EE126420EE56EC80EE56E58
:10050000000EE56E000EE56E1950E56E1850E56EB2
:100510001750E56E1650E56E23EC1DF0166EF3CF06
:1005200017F0F4CF18F0E9CF19F0080EE126440EC9
:10053000E56E7F0EE56EC00EE56E000EE56E19509D
:10054000E56E1850E56E1750E56E1650E56E23EC1B
:100550001DF01A6EF3CF1BF0F4CF1CF0E9CF1DF0A5
:10056000080EE1261B0EE56EE5EC3BF01E6EE12A5F
:100570001F6A1F50E56E1E50E56E010EE56E000EFF
:10058000E56E89EC36F01E6EF3CF1FF0040EE12607
:100590001C0EE56EE5EC3BF0206EE12A216A20504E
:1005A0001E2621501F221F50E56E1E50E56E71EC75
:1005B00039F01E6EF3CF1FF0F4CF20F0E9CF21F019
:1005C000020EE126420EE56EC80EE56E000EE56EE7
:1005D000000EE56E2150E56E2050E56E1F50E56E71
:1005E0001E50E56E23EC1DF0166EF3CF17F0F4CF1E
:1005F00018F0E9CF19F0080EE126450EE56E7F0EE2
:10060000E56EF00EE56E000EE56E1950E56E1850C1
:10061000E56E1750E56E1650E56E23EC1DF01E6E6C
:10062000F3CF1FF0F4CF20F0E9CF21F0080EE12640
:100630001D0EE56EE5EC3BF0226EE12A236A2350A5
:10064000E56E2250E56E010EE56E000EE56E89EC5A
:1006500036F0226EF3CF23F0040EE1261E0EE56E77
:10066000E5EC3BF0246EE12A256A24502226255031
:1006700023222350E56E2250E56E71EC39F0226E94
:10068000F3CF23F0F4CF24F0E9CF25F0020EE126DA
:10069000440EE56E7A0EE56E000EE56E000EE56E18
:1006A0002550E56E2450E56E2350E56E2250E56E30
:1006B00023EC1DF0166EF3CF17F0F4CF18F0E9CF4E
:1006C00019F0080EE126440EE56E7F0EE56EC00EB1
:1006D000E56E000EE56E1950E56E1850E56E175088
:1006E000E56E1650E56E23EC1DF0226EF3CF23F07D
:1006F000F4CF24F0E9CF25F0080EE1261F0EE56EB9
:10070000E5EC3BF0266EE12A276A2750E56E26507D
:10071000E56E010EE56E000EE56E89EC36F0266E94
:10072000F3CF27F0040EE126200EE56EE5EC3BF05A
:10073000286EE12A296A2850262629502722275088
:10074000E56E2650E56E71EC39F0266EF3CF27F09A
:10075000F4CF28F0E9CF29F0020EE126440EE56E31
:100760007A0EE56E000EE56E000EE56E2950E56E20
:100770002850E56E2750E56E2650E56E23EC1DF0FF
:10078000166EF3CF17F0F4CF18F0E9CF19F0080E7A
:10079000E126450EE56E7F0EE56EF00EE56E000E6D
:1007A000E56E1950E56E1850E56E1750E56E16505F
:1007B000E56E23EC1DF0166EF3CF17F0F4CF18F0B2
:1007C000E9CF19F0080EE126170EE56EE5EC3BF0D7
:1007D000266EE12A2650640DF3CF26F0F4CF27F0E1
:1007E000150EE56EE5EC3BF0286EE12A160EE56E7F
:1007F000E5EC3BF0296EE12A180EE56EE5EC3BF0E6
:100800002A6EE12A2A500A0DF3CF2AF0F4CF2BF0FA
:10081000210EE56EE5EC3BF02C6EE12A2C50E56EE6
:1008200012EC3AF02C6EF3CF2DF0F4CF2EF0E9CF8E
:100830002FF0E12A3D0EE56EE50EE56EFD0EE56E4C
:100840008B0EE56E2F50E56E2E50E56E2D50E56E49
:100850002C50E56E23EC1DF02C6EF3CF2DF0F4CF71
:100860002EF0E9CF2FF0080EE1262F50E56E2E5026
:10087000E56E2D50E56E2C50E56E6EEC37F02C6E6B
:10088000F3CF2DF0040EE126220EE56EE5EC3BF0F1
:100890002E6EE12A2E50E56E12EC3AF02E6EF3CF5A
:1008A0002FF0F4CF30F0E9CF31F0E12A3D0EE56EC4
:1008B000E50EE56EFD0EE56E8B0EE56E3150E56ED4
:1008C0003050E56E2F50E56E2E50E56E23EC1DF096
:1008D0002E6EF3CF2FF0F4CF30F0E9CF31F0080EC9
:1008E000E1263150E56E3050E56E2F50E56E2E500A
:1008F000E56E6EEC37F02E6EF3CF2FF0040EE1268E
:10090000230EE56EE5EC3BF0306EE12A3050E56EEB
:1009100012EC3AF0306EF3CF31F0F4CF32F0E9CF91
:1009200033F0E12A3D0EE56EE50EE56EFD0EE56E57
:100930008B0EE56E3350E56E3250E56E3150E56E4C
:100940003050E56E23EC1DF0306EF3CF31F0F4CF74
:1009500032F0E9CF33F0080EE1263350E56E325025
:10096000E56E3150E56E3050E56E6EEC37F0306E6E
:10097000F3CF31F0040EE126240EE56EE5EC3BF0FA
:10098000326EE12A336A01015B6B01015C6B01018C
:10099000706B2A5001016F6F60EC3BF0D58E010146
:1009A000576B0101586B01016E6BC6EC3BF0CA84BA
:1009B000140E6F6E01016B6B01016A6B01016C6BB0
:1009C000010E0101696F01017051010A02E044EF5B
:1009D00008F0D59EEDEC24F0086EF3CF09F0FDECA5
:1009E00033F00A6EF3CF0BF0346A81B2342A3450FC
:1009F000010A04E12C0E346E356A03D0140E346EF5
:100A0000356A35500B5C02E134500A5C05E3345022
:100A10000A5E35500B5A02D00A6A0B6A95EC33F025
:100A20000C6EF3CF0DF00950E56E0850E56EABEC9F
:100A300039F0346EF3CF35F0F4CF36F0E9CF37F03C
:100A4000020EE1261D50E56E1C50E56E1B50E56E52
:100A50001A50E56E3750E56E3650E56E3550E56E4E
:100A60003450E56E7AEC19F0346EF3CF35F0F4CFF4
:100A700036F0E9CF37F0080EE1260B50E56E0A504C
:100A8000E56EABEC39F0386EF3CF39F0F4CF3AF0D5
:100A9000E9CF3BF0020EE1262550E56E2450E56ECD
:100AA0002350E56E2250E56E3B50E56E3A50E56E00
:100AB0003950E56E3850E56E7AEC19F0386EF3CFA8
:100AC00039F0F4CF3AF0E9CF3BF0080EE1263B5085
:100AD000E56E3A50E56E3950E56E3850E56E3750A8
:100AE000E56E3650E56E3550E56E3450E56E7AECC5
:100AF00019F03C6EF3CF3DF0F4CF3EF0E9CF3FF07C
:100B0000080EE1263F50E56E3E50E56E3D50E56E25
:100B10003C50E56E6EEC37F0136EF3CF14F0040E1C
:100B2000E1261050020A01E0B9D0000EE56E800EF9
:100B3000E56E000EE56E000EE56E39EC36F0040E43
:100B4000E126000EE56E4A0EE56EF20EE56EB6EC9D
:100B500037F0030EE126030EE56E1450E56E1350D8
:100B6000E56E77EC31F0030EE126000EE56E4A0EDD
:100B7000E56EF60EE56EB6EC37F0030EE1260D508D
:100B8000E56E0C50E56EABEC39F03C6EF3CF3DF00A
:100B9000F4CF3EF0E9CF3FF0020EE1263F50E56E84
:100BA0003E50E56E3D50E56E3C50E56E3D0EE56E07
:100BB000E50EE56EFD0EE56E8B0EE56E7AEC19F036
:100BC0003C6EF3CF3DF0F4CF3EF0E9CF3FF0080E9E
:100BD000E126060EE56E020EE56E3F50E56E3E50D4
:100BE000E56E3D50E56E3C50E56E2BEC23F0060EB5
:100BF000E126000EE56E4A0EE56EFC0EE56EB6ECE3
:100C000037F0030EE126000EE56EC00EE56E000E15
:100C1000E56E000EE56E39EC36F0040EE126000EAE
:100C2000E56E4A0EE56EFE0EE56EB6EC37F0030E8D
:100C3000E1263C6A82BC3C2A3C50010A0BE1000ED2
:100C4000E56E4B0EE56E040EE56EB6EC37F0030E66
:100C5000E1260AD0000EE56E4B0EE56E080EE56E3D
:100C6000B6EC37F0030EE126000EE56E4B0EE56E96
:100C70000C0EE56EB6EC37F0030EE126030EE56EC2
:100C8000010EE56E3F0EE56E800EE56E000EE56E20
:100C9000000EE56E2BEC23F0060EE126020E105C32
:100CA000D8B0ECD1000EE56E800EE56E000EE56E5C
:100CB000000EE56E39EC36F0040EE126000EE56E0E
:100CC0004B0EE56E120EE56EB6EC37F0030EE12624
:100CD000105011E1050EE56E020EE56E3750E56E1F
:100CE0003650E56E3550E56E3450E56E2BEC23F052
:100CF000060EE12610D0040EE56E010EE56E3750AB
:100D0000E56E3650E56E3550E56E3450E56E2BECF1
:100D100023F0060EE1261050D8A44FD0000EE56E49
:100D20004B0EE56E160EE56EB6EC37F0030EE126BF
:100D30000550E56E0450E56E71EC39F0346EF3CF7A
:100D400035F0F4CF36F0E9CF37F0020EE12621502E
:100D5000E56E2050E56E1F50E56E1E50E56E375073
:100D6000E56E3650E56E3550E56E3450E56E7AEC42
:100D700019F0346EF3CF35F0F4CF36F0E9CF37F019
:100D8000080EE126060EE56E030EE56E3750E56EA1
:100D90003650E56E3550E56E3450E56E2BEC23F0A1
:100DA000060EE126000EE56E4B0EE56E1A0EE56EA0
:100DB000B6EC37F0030EE1266BD0000EE56E4B0E5D
:100DC000E56E1C0EE56EB6EC37F0030EE12611C0A1
:100DD00034F0356A010EE56E3550E56E3450E56E3F
:100DE00077EC31F0030EE126000EE56E4B0EE56E5A
:100DF0001A0EE56EB6EC37F0030EE126D8901134EA
:100E0000346E356AD10E3426000E352234C0E9FF27
:100E100035C0EAFFEECF34F0EFCF35F03550E56E58
:100E20003450E56EABEC39F0346EF3CF35F0F4CFDF
:100E300036F0E9CF37F0020EE126410EE56E200EC6
:100E4000E56E000EE56E000EE56E3750E56E36502D
:100E5000E56E3550E56E3450E56E23EC1DF0346ED2
:100E6000F3CF35F0F4CF36F0E9CF37F0080EE126B6
:100E7000040EE56E010EE56E3750E56E3650E56EF8
:100E80003550E56E3450E56E2BEC23F0060EE1266E
:100E9000000EE56EC00EE56E000EE56E000EE56E0E
:100EA00039EC36F0040EE126000EE56E4B0EE56ED1
:100EB000220EE56EB6EC37F0030EE126105011E17C
:100EC000050EE56E020EE56E3B50E56E3A50E56E9E
:100ED0003950E56E3850E56E2BEC23F0060EE12616
:100EE00010D0040EE56E020EE56E3B50E56E3A50F2
:100EF000E56E3950E56E3850E56E2BEC23F0060EAA
:100F0000E1261050D8A44FD0000EE56E4B0EE56ED2
:100F1000160EE56EB6EC37F0030EE1260750E56ECF
:100F20000650E56E71EC39F0346EF3CF35F0F4CF46
:100F300036F0E9CF37F0020EE1261950E56E185071
:100F4000E56E1750E56E1650E56E3750E56E36507B
:100F5000E56E3550E56E3450E56E7AEC19F0346E7E
:100F6000F3CF35F0F4CF36F0E9CF37F0080EE126B5
:100F7000060EE56E030EE56E3750E56E3650E56EF3
:100F80003550E56E3450E56E2BEC23F0060EE1266D
:100F9000000EE56E4B0EE56E1A0EE56EB6EC37F000
:100FA000030EE1266BD0000EE56E4B0EE56E1C0EB7
:100FB000E56EB6EC37F0030EE12612C034F0356A68
:100FC000010EE56E3550E56E3450E56E77EC31F08C
:100FD000030EE126000EE56E4B0EE56E1A0EE56E71
:100FE000B6EC37F0030EE126D8901234346E356A31
:100FF000E50E3426000E352234C0E9FF35C0EAFF85
:10100000EECF34F0EFCF35F03550E56E3450E56E6D
:10101000ABEC39F0346EF3CF35F0F4CF36F0E9CFE6
:1010200037F0020EE126410EE56E200EE56E000E51
:10103000E56E000EE56E3750E56E3650E56E3550C4
:10104000E56E3450E56E23EC1DF0346EF3CF35F0D1
:10105000F4CF36F0E9CF37F0080EE126040EE56E46
:10106000020EE56E3750E56E3650E56E3550E56E92
:101070003450E56E2BEC23F0060EE1262A500101D8
:101080006F6F0101706BD58E0D502D5C02E10C501D
:101090002C5C06E31450335C02E11350325C01E235
:1010A000828E2F500D5C02E12E500C5C07E2335013
:1010B000145C02E13250135C01E2829E0D50315CFF
:1010C00002E10C50305CD8B0D2D0006A016A026AEA
:1010D000036A000EE56E000EE56E000EE56E000E72
:1010E000E56EFCEC38F0040EE126828E0E6A000EEE
:1010F000E56E010EE56E000EE56E000EE56E39EC54
:1011000036F0040EE126000EE56E0A0EE56EC5EC23
:101110003AF0020EE126000EE56E4B0EE56E260E4D
:10112000E56EB6EC37F0030EE12680B68BD08180F9
:10113000000EE56E140EE56EC5EC3AF0020EE126E7
:101140008190000EE56E140EE56EC5EC3AF0020ECD
:10115000E1268180000EE56E140EE56EC5EC3AF0D6
:10116000020EE1268190000EE56EC00EE56E000EC7
:10117000E56E000EE56E39EC36F0040EE12695ECD6
:1011800033F00C6EF3CF0DF0000EE56E4B0EE56EF6
:10119000340EE56EB6EC37F0030EE1260D50E56E29
:1011A0000C50E56EABEC39F0346EF3CF35F0F4CF84
:1011B00036F0E9CF37F0020EE1263750E56E3650B3
:1011C000E56E3550E56E3450E56E3D0EE56EE50E8C
:1011D000E56EFD0EE56E8B0EE56E7AEC19F0346E61
:1011E000F3CF35F0F4CF36F0E9CF37F0080EE12633
:1011F000050EE56E020EE56E3750E56E3650E56E73
:101200003550E56E3450E56E2BEC23F0060EE126EA
:10121000000EE56E4B0EE56E380EE56EB6EC37F05F
:10122000030EE1260400000EE56E640EE56EC5ECCB
:101230003AF0020EE12631500D5C02E130500C5CB8
:10124000D8B073D7829E000EE56E010EE56E000EDB
:10125000E56E000EE56E39EC36F0040EE126000E68
:10126000E56E0A0EE56EC5EC3AF0020EE12629C0E5
:1012700034F0356A01015A51800FF36E3550800FFA
:10128000F35C03E134500101595D05E30101596B41
:1012900001015A6B8182346A80B6342A3450010AC3
:1012A00013E028C034F0356A01015C51800FF36E01
:1012B0003550800FF35C03E1345001015B5DD8A031
:1012C00029D12850D8B426D1F29E000EE56E000E2A
:1012D000E56E000EE56E000EE56EFCEC38F0040ED7
:1012E000E126006A016A026A036A000EE56E020ED8
:1012F000E56E010EE56E2C0EE56E65EC34F0040E25
:10130000E126000EE56E640EE56EC5EC3AF0020EC5
:10131000E126000EE56E020EE56E010EE56E2C0E66
:10132000E56E65EC34F0040EE126000EE56E640E09
:10133000E56EC5EC3AF0020EE126346A80B6342A36
:101340003450010A10E028C034F0356A01015C51C4
:10135000800FF36E3550800FF35C03E134500101D0
:101360005B5DD8A0CCD0346A356A366A80B6362A3E
:101370003650010A0DE1342AD8B0352A000EE56E48
:10138000010EE56EC5EC3AF0020EE1260400EDD741
:10139000130E355C02E1880E345C10E228C034F094
:1013A000356A01015C51800FF36E3550800FF35C9C
:1013B00003E1345001015B5DD8A0A1D0819081820E
:1013C000829E000EE56E010EE56E000EE56E000ECB
:1013D000E56E39EC36F0040EE126000EE56E0A0EDD
:1013E000E56EC5EC3AF0020EE126000EE56E4B0EFE
:1013F000E56E3C0EE56EB6EC37F0030EE126000E0E
:10140000E56EC00EE56E000EE56E000EE56E39EC81
:1014100036F0040EE126000EE56E4B0EE56E4E0E24
:10142000E56EB6EC37F0030EE1260B0EE56EB80E56
:10143000E56EC5EC3AF0020EE126000EE56E010EF7
:10144000E56E000EE56E000EE56E39EC36F0040E2A
:10145000E126000EE56E0A0EE56EC5EC3AF0020ECE
:10146000E126000EE56E080EE56E000EE56E000E3C
:10147000E56E39EC36F0040EE126000EE56E0A0E3C
:10148000E56EC5EC3AF0020EE12680B602D003000C
:10149000FCD7000EE56E140EE56EC5EC3AF0020EB8
:1014A000E126346A80B6342A3450010A02E104008D
:1014B000F8D7000EE56E0C0EE56E000EE56E000E20
:1014C000E56E39EC36F0040EE126000EE56E010EF5
:1014D000E56E000EE56E000EE56E39EC36F0040E9A
:1014E000E126000EE56E0A0EE56EC5EC3AF0020E3E
:1014F000E1260101576B0101586B01016E6B81926E
:101500000101596B01015A6B01015B6B01015C6BBD
:101510000E6AF28E346A80B8342A3450010A01E02F
:1015200099D081920101596B01015A6B01015B6BEA
:1015300001015C6B1050D8A472D0000EE56E320E23
:10154000E56EC5EC3AF0020EE126346A80B8342A22
:101550003450010A01E047D0346A356A0E50020A5D
:1015600001E141D026C036F027C037F0386A396A29
:101570003A6A80B83A2A3A50010A26E1382AD8B0A5
:10158000392A38C034F039C035F0000EE56E010E4E
:10159000E56EC5EC3AF0020EE12604003950375CE6
:1015A00002E13850365CE4E2000EE56E0A0EE56EAC
:1015B000000EE56E0A0EE56E65EC34F0040EE126D1
:1015C000020E0E6E140E0F6E26C036F027C037F0D6
:1015D0003750355C02E13650345C05E20E6A010E8C
:1015E0000F6EA4EC3BF00FC036F0376A365004267D
:1015F000375005220550800F700F02E1000E045C89
:101600000EE3FF0E046E0F0E056E8180000EE56E78
:101610000A0EE56EC5EC3AF0020EE12681901050FC
:10162000010A18E1000EE56E140EE56EC5EC3AF005
:10163000020EE126366A80B8362A3650010A02E1E7
:101640000400F8D7112A0A0E115C02E3090E116E8C
:10165000A4EC3BF0366A81BA362A3650010A01E022
:101660009BD081920101596B01015A6B01015B6BA7
:1016700001015C6B1050D8A477D0000EE56E320EDD
:10168000E56EC5EC3AF0020EE126366A81BA362ADA
:101690003650010A01E047D0346A356A0E50040A18
:1016A00001E141D026C036F027C037F0386A396AE8
:1016B0003A6A81BA3A2A3A50010A26E1382AD8B061
:1016C000392A38C034F039C035F0000EE56E010E0D
:1016D000E56EC5EC3AF0020EE12604003950375CA5
:1016E00002E13850365CE4E2000EE56E0A0EE56E6B
:1016F000000EE56E0A0EE56E65EC34F0040EE12690
:10170000040E0E6E140E0F6E26C036F027C037F092
:101710003750355C02E13650345C05E20E6A010E4A
:101720000F6EA4EC3BF00FC036F0376A3650045C05
:10173000366E37500558376E3750800F800F02E1F4
:10174000010E365C0DE2046A056A8180000EE56ECA
:101750000A0EE56EC5EC3AF0020EE126819004D047
:1017600036C004F037C005F01050010A15E1000E34
:10177000E56E140EE56EC5EC3AF0020EE126366A0F
:1017800081BA362A3650010A02E10400F8D7115016
:1017900001E01106A4EC3BF0366A81BC362A3650D3
:1017A000010A01E099D081920101596B01015A6B44
:1017B00001015B6B01015C6B1050D8A472D0000E6C
:1017C000E56E320EE56EC5EC3AF0020EE126366AA1
:1017D00081BC362A3650010A01E047D0346A356AA6
:1017E0000E50050A01E141D026C036F027C037F07F
:1017F000386A396A3A6A81BC3A2A3A50010A26E1C3
:10180000382AD8B0392A38C034F039C035F0000E43
:10181000E56E010EE56EC5EC3AF0020EE12604001D
:101820003950375C02E13850365CE4E2000EE56E78
:101830000A0EE56E000EE56E0A0EE56E65EC34F0FC
:10184000040EE126050E0E6E140E0F6E26C036F045
:1018500027C037F03750355C02E13650345C05E282
:101860000E6A020E0F6EA4EC3BF00FC036F0376A22
:1018700036500626375007220750800F700F02E1BE
:10188000000E065C0EE3FF0E066E0F0E076E8180E3
:10189000000EE56E0A0EE56EC5EC3AF0020EE1268A
:1018A00081901050010A18E1000EE56E140EE56EED
:1018B000C5EC3AF0020EE126366A81BC362A365073
:1018C000010A02E10400F8D7122A0A0E125C02E3B0
:1018D000090E126EA4EC3BF0366A80BA362A3650F6
:1018E000010A01E09BD081920101596B01015A6B01
:1018F00001015B6B01015C6B1050D8A477D0000E26
:10190000E56E320EE56EC5EC3AF0020EE126366A5F
:1019100080BA362A3650010A01E047D0346A356A67
:101920000E50030A01E141D026C036F027C037F03F
:10193000386A396A3A6A80BA3A2A3A50010A26E184
:10194000382AD8B0392A38C034F039C035F0000E02
:10195000E56E010EE56EC5EC3AF0020EE1260400DC
:101960003950375C02E13850365CE4E2000EE56E37
:101970000A0EE56E000EE56E0A0EE56E65EC34F0BB
:10198000040EE126030E0E6E140E0F6E26C036F006
:1019900027C037F03750355C02E13650345C05E241
:1019A0000E6A020E0F6EA4EC3BF00FC036F0376AE1
:1019B0003650065C366E37500758376E3750800FFA
:1019C000800F02E1010E365C0DE2066A076A818033
:1019D000000EE56E0A0EE56EC5EC3AF0020EE12649
:1019E000819004D036C006F037C007F01050010ACD
:1019F00015E1000EE56E140EE56EC5EC3AF0020E30
:101A0000E126366A80BA362A3650010A02E104001D
:101A1000F8D7125001E01206A4EC3BF0366A81BE02
:101A2000362A3650010A01E0E5D181920101596B55
:101A300001015A6B01015B6B01015C6B346A356A11
:101A4000366A376A386A81BE382A3850010A01E09E
:101A50005FD0362AD8B0372A36C034F037C035F0D8
:101A6000000EE56E010EE56EC5EC3AF0020EE126C1
:101A70000400030E375C02E1E90E365CE3E3102A52
:101A8000030E105C01E3106A000EE56EE60EE56ED3
:101A9000000EE56E320EE56E65EC34F0040EE126C4
:101AA000000EE56E320EE56EC5EC3AF0020EE12650
:101AB000000EE56E780EE56E000EE56E320EE56EF8
:101AC00065EC34F0040EE126000EE56E140EE56EB2
:101AD000C5EC3AF0020EE126366A81BE362A36504F
:101AE000010A02E10400F8D7000EE56E010EE56E72
:101AF000000EE56E000EE56E39EC36F0040EE126C0
:101B0000000EE56E140EE56EC5EC3AF0020EE1260D
:101B1000030E355C02E1E80E345CD8B06AD1105097
:101B200008E104C000F005C001F006C002F007C0E3
:101B300003F01050010A01E01CD1D8901134366E28
:101B4000376AD10E3626000E372236C0E9FF37C07D
:101B5000EAFFEECF36F0EFCF37F03750E56E365074
:101B6000E56EABEC39F0366EF3CF37F0F4CF38F0EA
:101B7000E9CF39F0020EE126410EE56E200EE56E4A
:101B8000000EE56E000EE56E3950E56E3850E56EDC
:101B90003750E56E3650E56E23EC1DF0366EF3CF10
:101BA00037F0F4CF38F0E9CF39F0080EE1262150B4
:101BB000E56E2050E56E1F50E56E1E50E56E395003
:101BC000E56E3850E56E3750E56E3650E56E23EC25
:101BD0001DF0366EF3CF37F0F4CF38F0E9CF39F09F
:101BE000080EE126400EE56E800EE56E000EE56EF5
:101BF000000EE56E3950E56E3850E56E3750E56EF3
:101C00003650E56E5BEC1BF0366EF3CF37F0F4CF59
:101C100038F0E9CF39F0080EE1263950E56E38503A
:101C2000E56E3750E56E3650E56E89EC35F0006EA6
:101C3000F3CF01F0040EE126D8901234366E376AE5
:101C4000E50E3626000E372236C0E9FF37C0EAFF20
:101C5000EECF36F0EFCF37F03750E56E3650E56E09
:101C6000ABEC39F0366EF3CF37F0F4CF38F0E9CF84
:101C700039F0020EE126410EE56E200EE56E000EF3
:101C8000E56E000EE56E3950E56E3850E56E375062
:101C9000E56E3650E56E23EC1DF0366EF3CF37F06F
:101CA000F4CF38F0E9CF39F0080EE1261950E56E8F
:101CB0001850E56E1750E56E1650E56E3950E56E1A
:101CC0003850E56E3750E56E3650E56E23EC1DF06A
:101CD000366EF3CF37F0F4CF38F0E9CF39F0080E95
:101CE000E126400EE56E800EE56E000EE56E000EFC
:101CF000E56E3950E56E3850E56E3750E56E36507A
:101D0000E56E5BEC1BF0366EF3CF37F0F4CF38F0B6
:101D1000E9CF39F0080EE1263950E56E3850E56E0E
:101D20003750E56E3650E56E89EC35F0026EF3CF34
:101D300003F0040EE1260150800F700F02E1000E47
:101D4000005C04E3FF0E006E0F0E016E0350800F67
:101D5000700F02E1000E025C04E3FF0E026E0F0E34
:101D6000036E00C004F001C005F002C006F003C01D
:101D700007F00350E56E0250E56E0150E56E00502D
:101D8000E56EFCEC38F0040EE126000EE56E140E54
:101D9000E56E000EE56EC80EE56E65EC34F0040EDF
:101DA000E126000EE56E320EE56EC5EC3AF0020E4D
:101DB000E126000EE56E1E0EE56E000EE56E640E69
:101DC000E56E65EC34F0040EE126000EE56E320E91
:101DD000E56EC5EC3AF0020EE126000EE56E140E3B
:101DE000E56E000EE56EC80EE56E65EC34F0040E8F
:101DF000E1260E6A82BC06D001016B51030A02E1A2
:101E000001016B6B366A82BC362A3650010A0AE140
:101E100001016B51050A06E02AEC3BF0F9EC37F0C2
:101E2000F5EF15F0366A82BC362A3650010A02E018
:101E3000F5EF15F001015B6B01015C6BF9EC37F01C
:101E4000600E366E000E376E3750376E3650366E77
:101E5000800E386E1E0EE56E3850E56E3750E56E1A
:101E60003650E56E6CEC2AF0366E040EE1263650E4
:101E7000D8B4F5EF15F0000E376E600E366E800E9A
:101E8000386E230EE56E3850E56E3750E56E3650ED
:101E9000E56ED9EC36F0366EF3CF37F0F4CF38F08C
:101EA000040EE126365006E1375004E1385002E1D5
:101EB000F5EF15F0366A60C037F03750800F1F0F0E
:101EC000D8A069EF15F03750800F050FD8B069EF33
:101ED00015F09F0E372640C0E5FF41C0E5FF416A7F
:101EE00037344136E8344136FC0B406E000EFB6E51
:101EF0001F0EFA6E0C0E40264150FA22D8B0FB2A73
:101F00004050E4CF41F0E4CF40F0F96E56EF12F0CC
:101F1000ABEF12F000EF13F055EF13F0A9EF13F051
:101F2000D6EF13F0F6EF13F016EF14F043EF14F0C2
:101F30009AEF14F0F1EF14F048EF15F0DEEF11F026
:101F4000DDEF0FF02EEF10F069EF15F069EF15F0EF
:101F50005AEF11F0BAEF0FF044EF10F069EF15F0FF
:101F600069EF15F069EF15F052EF10F0AAEF10F0DD
:101F700002EF11F0000E386E620E376E800E396E71
:101F80003950E56E3850E56E3750E56EBCEC25F003
:101F9000346EF3CF35F0030EE12600016151760A6D
:101FA00006E134C004F035C005F069EF15F034C027
:101FB00006F035C007F069EF15F000016151760AAF
:101FC00025E10A0EE56E000EE56E890EE56E055000
:101FD000E56E0450E56E25EC37F0050EE126000EA7
:101FE000386E890E376E800E396E000EE56E4B0E20
:101FF000E56E600EE56E3950E56E3850E56E37508F
:10200000E56E88EC30F0060EE12624D00A0EE56E6F
:10201000000EE56E890EE56E0750E56E0650E56E22
:1020200025EC37F0050EE126000E386E890E376E6E
:10203000800E396E000EE56E4B0EE56E640EE56E99
:102040003950E56E3850E56E3750E56E88EC30F06B
:10205000060EE126FF0E366E69EF15F004C000F0A3
:1020600005C001F006C002F007C003F00750E56E9E
:102070000650E56E0550E56E0450E56EFCEC38F058
:10208000040EE12669EF15F0000EE56E000EE56E18
:10209000000EE56E000EE56EFCEC38F0040EE12655
:1020A00069EF15F00950E56E0850E56EABEC39F0BC
:1020B000376EF3CF38F0F4CF39F0E9CF3AF0020EB3
:1020C000E1261D50E56E1C50E56E1B50E56E1A5062
:1020D000E56E3A50E56E3950E56E3850E56E375092
:1020E000E56E7AEC19F0376EF3CF38F0F4CF39F0B3
:1020F000E9CF3AF0080EE126030EE56E240EE56EF8
:10210000000EE56E890EE56E3A50E56E3950E56ECB
:102110003850E56E3750E56E13EC20F0080EE126DE
:10212000000E386E890E376E800E396E000EE56E29
:102130004B0EE56E680EE56E3950E56E3850E56E73
:102140003750E56E88EC30F0060EE126FF0E366E55
:1021500069EF15F00B50E56E0A50E56EABEC39F007
:10216000376EF3CF38F0F4CF39F0E9CF3AF0020E02
:10217000E1262550E56E2450E56E2350E56E225091
:10218000E56E3A50E56E3950E56E3850E56E3750E1
:10219000E56E7AEC19F0376EF3CF38F0F4CF39F002
:1021A000E9CF3AF0080EE126030EE56E240EE56E47
:1021B000000EE56E890EE56E3A50E56E3950E56E1B
:1021C0003850E56E3750E56E13EC20F0080EE1262E
:1021D000000E386E890E376E800E396E000EE56E79
:1021E0004B0EE56E6A0EE56E3950E56E3850E56EC1
:1021F0003750E56E88EC30F0060EE126FF0E366EA5
:1022000069EF15F00D50E56E0C50E56EABEC39F052
:10221000376EF3CF38F0F4CF39F0E9CF3AF0020E51
:10222000E1263A50E56E3950E56E3850E56E37508C
:10223000E56E3D0EE56EE50EE56EFD0EE56E8B0E70
:10224000E56E7AEC19F0376EF3CF38F0F4CF39F051
:10225000E9CF3AF0080EE126020EE56E240EE56E97
:10226000000EE56E890EE56E3A50E56E3950E56E6A
:102270003850E56E3750E56E13EC20F0080EE1267D
:10228000000E386E890E376E800E396E000EE56EC8
:102290004A0EE56EFC0EE56E3950E56E3850E56E7F
:1022A0003750E56E88EC30F0060EE126FF0E366EF4
:1022B00069EF15F0000E386E610E376E800E396EC4
:1022C0003950E56E3850E56E3750E56EBCEC25F0C0
:1022D000346EF3CF35F0030EE1263450376E3750AD
:1022E000E56EE5EC3BF0156EE12A376A0A0EE56E05
:1022F000000EE56E890EE56E3750E56E1550E56E01
:1023000025EC37F0050EE126000E376E890E156EAE
:10231000800E386E000EE56E4B0EE56E6C0EE56EAF
:102320003850E56E3750E56E1550E56E88EC30F0AC
:10233000060EE1260A0EE56E010EE56E000EE56E54
:102340003550E56E3450E56E25EC37F0050EE1268C
:10235000000E376E890E156E800E386E010E3A6EC5
:10236000000E396E800E3B6E3B50E56E3A50E56EC6
:102370003950E56E3850E56E3750E56E1550E56E14
:1023800088EC30F0060EE126000E376E890E156ED1
:10239000800E386E000EE56E4B0EE56E6E0EE56E2D
:1023A0003850E56E3750E56E1550E56E88EC30F02C
:1023B000060EE126FF0E366E69EF15F062C015F0CD
:1023C000376A000162BF37681550D00F346EFF0EB8
:1023D0003720356E000E376E630E156E800E386E28
:1023E0003850E56E3750E56E1550E56EBCEC25F0C3
:1023F000156EF3CF37F0030EE12600016151760A26
:102400002BE13450376E372A1550E56E3750E56EA4
:1024100046EC3BF0020EE1263550E56E3450E56E99
:10242000000EE56E020EE56E89EC36F0376EF3CFE6
:1024300038F0040EE126D10E3726000E382215C0E2
:1024400039F03A6A37C0E9FF38C0EAFF39C0EEFF19
:102450003AC0EFFF69EF15F03450376E0B0E372698
:102460001550E56E3750E56E46EC3BF0020EE12666
:102470003550E56E3450E56E000EE56E020EE56EE9
:1024800089EC36F0376EF3CF38F0040EE126E50E16
:102490003726000E3822396A37C0E9FF38C0EAFF14
:1024A00015C0EEFF39C0EFFF69EF15F0000E376E73
:1024B000610E156E800E386E3850E56E3750E56E41
:1024C0001550E56EBCEC25F0346EF3CF35F0030EFD
:1024D000E1263550156E376A1550E56E190EE56E1A
:1024E00046EC3BF0020EE1263450156E376A15506B
:1024F000E56E1A0EE56E46EC3BF0020EE126355015
:10250000E56E3450E56EABEC39F0156EF3CF37F075
:10251000F4CF38F0E9CF39F0020EE126470EE56E30
:10252000C70EE56ECE0EE56E000EE56E3950E56E17
:102530003850E56E3750E56E1550E56E23EC1DF012
:102540001A6EF3CF1BF0F4CF1CF0E9CF1DF0080E8C
:10255000E12669EF15F0000E376E610E156E800EE4
:10256000386E3850E56E3750E56E1550E56EBCECB0
:1025700025F0346EF3CF35F0030EE1263550156E9D
:10258000376A1550E56E1B0EE56E46EC3BF0020E09
:10259000E1263450156E376A1550E56E1C0EE56E57
:1025A00046EC3BF0020EE1263550E56E3450E56E08
:1025B000ABEC39F0156EF3CF37F0F4CF38F0E9CF4C
:1025C00039F0020EE126480EE56EC70EE56EF30EF9
:1025D000E56E800EE56E3950E56E3850E56E375089
:1025E000E56E1550E56E23EC1DF01E6EF3CF1FF067
:1025F000F4CF20F0E9CF21F0080EE12669EF15F0C5
:10260000000E376E610E156E800E386E3850E56E16
:102610003750E56E1550E56EBCEC25F0346EF3CF07
:1026200035F0030EE1263550156E376A1550E56E0C
:102630001D0EE56E46EC3BF0020EE1263450156EA1
:10264000376A1550E56E1E0EE56E46EC3BF0020E45
:10265000E1263550E56E3450E56EABEC39F0156E81
:10266000F3CF37F0F4CF38F0E9CF39F0020EE1269E
:10267000490EE56E790EE56EC10EE56E800EE56ED3
:102680003950E56E3850E56E3750E56E1550E56E01
:1026900023EC1DF0226EF3CF23F0F4CF24F0E9CF2A
:1026A00025F0080EE12669EF15F0000E376E610E79
:1026B000156E800E386E3850E56E3750E56E155049
:1026C000E56EBCEC25F0346EF3CF35F0030EE12659
:1026D0003550156E376A1550E56E1F0EE56E46ECE7
:1026E0003BF0020EE1263450156E376A1550E56E48
:1026F000200EE56E46EC3BF0020EE1263550E56E0D
:102700003450E56EABEC39F0156EF3CF37F0F4CF03
:1027100038F0E9CF39F0020EE1264A0EE56E790E67
:10272000E56EF00EE56E600EE56E3950E56E3850E0
:10273000E56E3750E56E1550E56E23EC1DF0166E14
:10274000F3CF17F0F4CF18F0E9CF19F0080EE12617
:10275000C0D1000E376E610E156E800E386E385087
:10276000E56E3750E56E1550E56EBCEC25F0346E25
:10277000F3CF35F0030EE1263450156E1550E56E9B
:10278000170EE56E46EC3BF0020EE1263550E56E85
:102790003450E56E000EE56E640EE56E89EC36F0A1
:1027A000266EF3CF27F0040EE12693D1000E376E8C
:1027B000610E156E800E386E3850E56E3750E56E3E
:1027C0001550E56EBCEC25F0346EF3CF35F0030EFA
:1027D000E1263450156E1550E56E150EE56E46EC8B
:1027E0003BF0020EE12615C028F073D1000E376EC3
:1027F000610E156E800E386E3850E56E3750E56EFE
:102800001550E56EBCEC25F0346EF3CF35F0030EB9
:10281000E1263450156E1550E56E160EE56E46EC49
:102820003BF0020EE12615C029F053D1000E376EA1
:10283000610E156E800E386E3850E56E3750E56EBD
:102840001550E56EBCEC25F0346EF3CF35F0030E79
:10285000E1263450156E1550E56E180EE56E46EC07
:102860003BF0020EE1263550E56E3450E56E000E69
:10287000E56E0A0EE56E89EC36F02A6EF3CF2BF08A
:10288000040EE12626D1000E376E610E156E800E05
:10289000386E3850E56E3750E56E1550E56EBCEC7D
:1028A00025F0346EF3CF35F0030EE1263450156E6B
:1028B0001550E56E210EE56E46EC3BF0020EE1266A
:1028C0003550E56E3450E56EABEC39F0156EF3CF54
:1028D00037F0F4CF38F0E9CF39F0020EE1263D0EA3
:1028E000E56EE50EE56EFD0EE56E8B0EE56E39507C
:1028F000E56E3850E56E3750E56E1550E56E23EC09
:102900001DF0156EF3CF37F0F4CF38F0E9CF39F082
:10291000080EE1263950E56E3850E56E3750E56E09
:102920001550E56E6EEC37F02C6EF3CF2DF0040EE3
:10293000E126CFD0000E376E610E156E800E386E18
:102940003850E56E3750E56E1550E56EBCEC25F05D
:10295000346EF3CF35F0030EE1263450156E15506A
:10296000E56E220EE56E46EC3BF0020EE126355098
:10297000E56E3450E56EABEC39F0156EF3CF37F001
:10298000F4CF38F0E9CF39F0020EE1263D0EE56EC6
:10299000E50EE56EFD0EE56E8B0EE56E3950E56ECB
:1029A0003850E56E3750E56E1550E56E23EC1DF09E
:1029B000156EF3CF37F0F4CF38F0E9CF39F0080EC9
:1029C000E1263950E56E3850E56E3750E56E15500A
:1029D000E56E6EEC37F02E6EF3CF2FF0040EE1268D
:1029E00078D0000E376E610E156E800E386E38503E
:1029F000E56E3750E56E1550E56EBCEC25F0346E93
:102A0000F3CF35F0030EE1263450156E1550E56E08
:102A1000230EE56E46EC3BF0020EE1263550E56EE6
:102A20003450E56EABEC39F0156EF3CF37F0F4CFE0
:102A300038F0E9CF39F0020EE1263D0EE56EE50EE5
:102A4000E56EFD0EE56E8B0EE56E3950E56E385085
:102A5000E56E3750E56E1550E56E23EC1DF0156EF2
:102A6000F3CF37F0F4CF38F0E9CF39F0080EE12694
:102A70003950E56E3850E56E3750E56E1550E56E0D
:102A80006EEC37F0306EF3CF31F0040EE12621D03A
:102A9000000E376E610E156E800E386E3850E56E82
:102AA0003750E56E1550E56EBCEC25F0346EF3CF73
:102AB00035F0030EE1263450156E1550E56E240EE8
:102AC000E56E46EC3BF0020EE12634C032F035C034
:102AD00033F03650D8A44AD0000EE56E1E0EE56ED7
:102AE000000EE56E0A0EE56E65EC34F0040EE1268C
:102AF000000EE56E640EE56EC5EC3AF0020EE126BE
:102B0000000EE56E640EE56E000EE56E0A0EE56ED3
:102B100065EC34F0040EE126000EE56E320EE56E33
:102B2000C5EC3AF0020EE126000EE56E960EE56E5B
:102B3000000EE56E0A0EE56E65EC34F0040EE1263B
:102B4000000E346E890E156E800E356E000EE56E29
:102B50004B0EE56E700EE56E3550E56E3450E56E49
:102B60001550E56EC4EC32F0060EE126000E346E10
:102B7000890E156E800E356E000EE56E4B0EE56EFD
:102B8000760EE56E3550E56E3450E56E1550E56E07
:102B900088EC30F0060EE126890E156E000E346EBC
:102BA0003450346E1550156E800E356E000E376E33
:102BB000890E366E800E386E3850E56E3750E56EF1
:102BC0003650E56EBCEC38F0366EF3CF37F0030EBE
:102BD000E1263650E56E3550E56E3450E56E155001
:102BE000E56ED2EC29F0040EE1260400E3EF04F0D8
:102BF000120005C0E5FF06C0E5FF07C0E5FF08C0FD
:102C0000E5FF09C0E5FF0AC0E5FF0BC0E5FF0CC00A
:102C1000E5FF0DC0E5FF0EC0E5FF0FC0E5FF10C0EA
:102C2000E5FF11C0E5FF12C0E5FF13C0E5FF14C0CA
:102C3000E5FF15C0E5FF16C0E5FF17C0E5FF18C0AA
:102C4000E5FF19C0E5FF1AC0E5FF1BC0E5FF1CC08A
:102C5000E5FF1DC0E5FF000E00B0050F066AF60F88
:102C600002E3062AFCD70A0F056E042E03D0FB0FE1
:102C700001E3062A065000B0020F00B2050F076AF2
:102C8000F60F02E3072AFCD70A0F066E042E03D0C4
:102C9000FB0F01E3072A075000B0060F00B2020F36
:102CA00000B4050F086AF60F02E3082AFCD70A0FE2
:102CB000076E042E03D0FB0F01E3082A085000B270
:102CC000010F00B4020F00B6050F096AF60F02E308
:102CD000092AFCD70A0F086E042E03D0FB0F01E36C
:102CE000092A095000B0090F00B2080F00B4060FFE
:102CF00000B6020F00B8050F0A6AF60F02E30A2AAF
:102D0000FCD70A0F096E042E03D0FB0F01E30A2A39
:102D10000A5000B0030F00B2070F00B4050F00B651
:102D2000010F00B8020F00BA050F0B6AF60F02E39D
:102D30000B2AFCD70A0F0A6E042E03D0FB0F01E307
:102D40000B2A0B5000B0050F00B4010F00B6030FA3
:102D500000B8060F00BA020F00BC050F0C6AF60F90
:102D600002E30C2AFCD70A0F0B6E042E03D0FB0FD4
:102D700001E30C2A0C5000B0070F00B2050F00BA97
:102D8000010F00BC020F00BE050F0D6AF60F02E333
:102D90000D2AFCD70A0F0C6E042E03D0FB0F01E3A3
:102DA0000D2A0D5000B0070F00B2050F00B4010F3F
:102DB00000B6020F00B8040F00BA080F00BC060FDF
:102DC00000BE020F01B0050F0E6AF60F02E30E2AD5
:102DD000FCD70A0F0D6E042E03D0FB0F01E30E2A61
:102DE0000E5000B0040F00B2090F00B4090F00B676
:102DF000080F00B8060F00BA020F00BC050F00BE96
:102E0000010F01B0020F01B2050F0F6AF60F02E3C6
:102E10000F2AFCD70A0F0E6E042E03D0FB0F01E31E
:102E20000F2A0F5000B0040F00B2080F00B4070FB4
:102E300000B6050F00B8010F00BA030F00BC060F63
:102E400000BE030F01B0060F01B2020F01B4050F5F
:102E5000106AF60F02E3102AFCD70A0F0F6E042E39
:102E600003D0FB0F01E3102A105000B0060F00B290
:102E7000020F00B4050F00B6010F00B8030F00BA2F
:102E8000060F00BC020F00BE050F01B2010F01B416
:102E9000020F01B6050F116AF60F02E3112AFCD7E3
:102EA0000A0F106E042E03D0FB0F01E3112A1150FC
:102EB00000B0040F00B2090F00B4080F00B6070FEE
:102EC00000B8040F00BA080F00BC070F00BE040FC3
:102ED00001B0090F01B2080F01B4060F01B6020FCD
:102EE00001B8050F126AF60F02E3122AFCD70A0F87
:102EF000116E042E03D0FB0F01E3122A125000B40E
:102F0000010F00B6030F00B8070F00BA040F00BC92
:102F1000090F00BE090F01B0080F01B2070F01B47D
:102F2000050F01B6010F01B8020F01BA050F136AB0
:102F3000F60F02E3132AFCD70A0F126E042E03D0F9
:102F4000FB0F01E3132A135000B0060F00B2020F6B
:102F500000B4040F00B6080F00B8060F00BA030F44
:102F600000BC060F00BE030F01B0070F01B2050F32
:102F700001B4010F01B6030F01B8060F01BA020F29
:102F800001BC050F146AF60F02E3142AFCD70A0FDE
:102F9000136E042E03D0FB0F01E3142A145000B06B
:102FA000090F00B2090F00B4080F00B6060F00B8F1
:102FB000030F00BA070F00BC040F00BE090F01B0D9
:102FC000080F01B2070F01B4050F01BA010F01BCD0
:102FD000020F01BE050F156AF60F02E3152AFCD792
:102FE0000A0F146E042E03D0FB0F01E3152A1550AF
:102FF00000B0050F00B2010F00B4030F00B6070FB9
:1030000000B8050F00BC010F00BE020F01B0050F94
:1030100001B2010F01B4030F01B6070F01B8040F8D
:1030200001BA080F01BC060F01BE020F02B0050F66
:10303000166AF60F02E3162AFCD70A0F156E042E45
:1030400003D0FB0F01E3162A165000B2010F00B4A3
:10305000020F00B6040F00B8090F00BA090F00BC38
:10306000080F00BE060F01B0020F01B2050F01B834
:10307000010F01BA020F01BC050F01BE010F02B022
:10308000020F02B2050F176AF60F02E3172AFCD7E8
:103090000A0F166E042E03D0FB0F01E3172A1750F8
:1030A00000BA010F00BC030F00BE070F01B0050FEF
:1030B00001B4010F01B6020F01B8040F01BA080FE5
:1030C00001BC060F01BE030F02B0060F02B2020FD1
:1030D00002B4050F186AF60F02E3182AFCD70A0F8C
:1030E000176E042E03D0FB0F01E3182A185001B00D
:1030F000010F01B2030F01B4060F01B6020F01B8B0
:10310000040F01BA080F01BC070F01BE050F02B280
:10311000010F02B4020F02B6050F196AF60F02E39F
:10312000192AFCD70A0F186E042E03D0FB0F01E3F7
:10313000192A195001B6010F01B8020F01BA040F84
:1031400001BC090F01BE090F02B0090F02B2080F3E
:1031500002B4060F02B6020F02B8050F1A6AF60F84
:1031600002E31A2AFCD70A0F196E042E03D0FB0FB4
:1031700001E31A2A1A5001BE010F02B0030F02B276
:10318000070F02B4050F02B6010F02B8020F02BA10
:10319000050F1B6AF60F02E31B2AFCD70A0F1A6EF3
:1031A000042E03D0FB0F01E31B2A1B5002B4010FB6
:1031B00002B6030F02B8060F02BA020F02BC050FD7
:1031C0001C6AF60F02E31C2AFCD70A0F1B6E042EA2
:1031D00003D0FB0F01E31C2A1C5002BA010F02BCF2
:1031E000020F02BE050F1D6AF60F02E31D2AFCD76F
:1031F0000A0F1C6E042E03D0FB0F01E31D2A300FB3
:10320000EE6E1B50300FEE6E1A50300FEE6E1950EE
:10321000300FEE6E1850300FEE6E1750300FEE6E0E
:103220001650300FEE6E1550300FEE6E1450300FFA
:10323000EE6E1350300FEE6E1250300FEE6E1150D6
:10324000300FEE6E1050300FEE6E0F50300FEE6EEE
:103250000E50300FEE6E0D50300FEE6E0C50300FE2
:10326000EE6E0B50300FEE6E0A50300FEE6E0950BE
:10327000300FEE6E0850300FEE6E0750300FEE6ECE
:103280000650300FEE6E0550300FEE6E170EE4CF85
:103290001DF0E4CF1CF0E4CF1BF0E4CF1AF0E4CF34
:1032A00019F0E4CF18F0E4CF17F0E4CF16F0E4CF34
:1032B00015F0E4CF14F0E4CF13F0E4CF12F0E4CF34
:1032C00011F0E4CF10F0E4CF0FF0E4CF0EF0E4CF34
:1032D0000DF0E4CF0CF0E4CF0BF0E4CF0AF0E4CF34
:1032E00009F0E4CF08F0E4CF07F0E4CF06F0E4CF34
:1032F00005F01200D9CFE5FFE1CFD9FF00C0E5FF0F
:1033000001C0E5FF02C0E5FF03C0E5FF04C0E5FF23
:1033100005C0E5FF06C0E5FF07C0E5FF08C0E5FF03
:1033200009C0E5FF0AC0E5FF0BC0E5FF0CC0E5FFE3
:103330000EC0E5FF0FC0E5FF020EDBCF00F0030E6D
:10334000DBCF01F0040EDBCF02F0050EDBCF03F084
:10335000060EDBCF04F0070EDBCF05F0080EDBCF47
:1033600006F0090EDBCF07F0005001011C6F015081
:103370001D6F02501E6F03501F6F04500101206F1C
:103380000550216F0650226F0750236F01011C5119
:103390001D111E111F1106E00101205121112211E2
:1033A000231105E1E96AF46AF36AE86A63D101016D
:1033B0001F45010B006E016A026A036A010E0016C6
:1033C000016A026A036A01012345010B046E056A62
:1033D000066A076A010E0416056A066A076A04503F
:1033E000001A0550011A0650021A0750031A01016B
:1033F0001E351F35016E036A046A026A820E0126B9
:10340000FF0E022203220422010122352335036E1E
:10341000046A01C007F002C008F0075003260850F4
:1034200004220350016E0450026E01011C51036E10
:103430001D51046E7F0E1E15056E058E03501C6F08
:1034400004501D6F05501E6F1F6B01012051036E4C
:103450002151046E7F0E2215056E058E0350206FDC
:103460000450216F0550226F236B01011D51036E23
:103470001E51046E1F51056E01012151076E22512C
:10348000086E2351E56AE56E0850E56E0750E56E5B
:10349000E56A0550E56E0450E56E0350E56E27ECD5
:1034A00021F0036EF3CF04F0F4CF05F0E9CF06F07E
:1034B000080EE12601011C51076E010121510B6E1E
:1034C00022510C6E2351E56AE56E0C50E56E0B50EF
:1034D000E56EE56AE56AE56A0750E56E27EC21F0DE
:1034E000F3CF08F0F4CF09F0E9CF0AF0080EE12697
:1034F0000850076E0950086E0A50096E0A6A075094
:10350000032608500422095005220A500622010110
:103510002051076E01011D510B6E1E510C6E1F5183
:10352000E56AE56E0C50E56E0B50E56EE56AE56AFE
:10353000E56A0750E56E27EC21F0F3CF08F0F4CFF1
:1035400009F0E9CF0AF0080EE1260850076E09508D
:10355000086E0A50096E0A6A0750032608500422B2
:10356000095005220A500622400E0326000E0422AE
:103570000522062206AE0ED0400E0326000E0422BF
:10358000052206220450036E0550046E0650056E97
:10359000066A12D003340434036E046A04360550FC
:1035A000E844FE0B041205340634056E066A06363E
:1035B000FF0E0126D8A00206059E0250800F7F0F45
:1035C00002E1000E015C19E3005006E0076A086A98
:1035D000096A800E0A6E04D0076A086A096A0A6AD4
:1035E000098E7F0E0A12075001011C6F08501D6FD3
:1035F00009501E6F0A501F6F35D0D88002AED89088
:1036000006E301011C6B1D6B1E6B1F6B2BD0005062
:1036100006E0006A076A086A800E096E04D0006A34
:10362000076A086A096AE86A023001300F6E0E6A9A
:103630000E320C6A0C50001207120E5008120F5076
:1036400009120050031207500412085005120950C5
:103650000612035001011C6F04501D6F05501E6FB0
:1036600006501F6F1FC1E9FF1EC1F4FF1DC1F3FF0C
:1036700001011C51E4CF0FF0E4CF0EF0E4CF0CF0C9
:10368000E4CF0BF0E4CF0AF0E4CF09F0E4CF08F088
:10369000E4CF07F0E4CF06F0E4CF05F0E4CF04F088
:1036A000E4CF03F0E4CF02F0E4CF01F0E4CF00F088
:1036B000E4CFD9FF1200D9CFE5FFE1CFD9FF00C099
:1036C000E5FF01C0E5FF02C0E5FF03C0E5FF04C060
:1036D000E5FF05C0E5FF06C0E5FF07C0E5FF08C040
:1036E000E5FF09C0E5FF0AC0E5FF0BC0E5FF0CC020
:1036F000E5FF0DC0E5FF0EC0E5FF0FC0E5FF10C000
:10370000E5FF020EDBCF00F0030EDBCF01F0040E6D
:10371000DBCF02F0050EDBCF03F0060EDBCF04F0AB
:10372000070EDBCF05F0080EDBCF06F0090EDBCF6E
:1037300007F0086A096A0A6A0B6A00500101146FEF
:103740000150156F0250166F0350176F045001019E
:10375000186F0550196F06501A6F07501B6F010143
:10376000145115111611171109E11BC1E9FF1AC1F6
:10377000F4FF19C1F3FF0101185140D101011851A3
:1037800019111A111B1109E117C1E9FF16C1F4FF44
:1037900015C1F3FF0101145131D10101163517355F
:1037A000006E016A0136026A036A016A026A036AEC
:1037B00001011A351B35026E190F046E000E03202D
:1037C000800FF36E0150800FF35C02E10050045C47
:1037D00009E217C1E9FF16C1F4FF15C1F3FF0101AA
:1037E00014510CD10050190F046E000E0120800FEF
:1037F000F36E0350800FF35C02E10250045C09E2B7
:103800001BC1E9FF1AC1F4FF19C1F3FF01011851EF
:10381000F5D001011451046E1551056E7F0E161579
:10382000066E076A068E010118510C6E19510D6E55
:103830007F0E1A150E6E0F6A0E8E01011745010BD1
:10384000106E10A00AD0071E061E051E046C05E1AE
:10385000052A03E1062AD8B4072A01011B45010BFA
:10386000106E10A00AD00F1E0E1E0D1E0C6C05E16E
:103870000D2A03E10E2AD8B40F2A0350800FF36EED
:103880000150800FF35C02E10050025C1BE2025029
:10389000005C106E03500158105032E00BE6E86CEB
:1038A000D8900FBED8800F320E320D320C32010F7D
:1038B000F8E326D0D8900C360D360E360F36010FB1
:1038C000FAE31ED00050025C106E015003581050F5
:1038D00013E00BE6E86CD89007BED88007320632BA
:1038E00005320432010FF8E307D0D89004360536CC
:1038F00006360736010FFAE302C000F003C001F0FC
:103900000C5004260D5005220E5006220F5007229F
:10391000D88007AED89010E3071E061E051E046C63
:1039200005E1052A03E1062AD8B4072A086A096ACC
:103930000A6A800E0B6E0AD004500510061007109C
:1039400005E1E96AF46AF36AE86A58D004C002F053
:1039500005C003F006C00CF007C00DF0000E0D5CB2
:1039600008E1800E0C5C05E1000E035C02E1000E34
:10397000025C0AE204500426053606360736FF0EBE
:103980000026D8A00106E2D7075011E004A006D017
:10399000020E0426000E05220622072207340732F3
:1039A000063205320432002AD8B0012AEDD7069E2D
:1039B000E86A013000300F6E0E6A0E320C6A0C504D
:1039C000081209120E500A120F500B12085004125E
:1039D000095005120A5006120B500712045001013B
:1039E000146F0550156F0650166F0750176F17C1EB
:1039F000E9FF16C1F4FF15C1F3FF1451E4CF10F035
:103A0000E4CF0FF0E4CF0EF0E4CF0DF0E4CF0CF0F4
:103A1000E4CF0BF0E4CF0AF0E4CF09F0E4CF08F0F4
:103A2000E4CF07F0E4CF06F0E4CF05F0E4CF04F0F4
:103A3000E4CF03F0E4CF02F0E4CF01F0E4CF00F0F4
:103A4000E4CFD9FF1200D9CFE5FFE1CFD9FF00C005
:103A5000E5FF01C0E5FF02C0E5FF03C0E5FF04C0CC
:103A6000E5FF05C0E5FF06C0E5FF07C0E5FF08C0AC
:103A7000E5FF09C0E5FF0AC0E5FF0BC0E5FF0CC08C
:103A8000E5FF0DC0E5FF0EC0E5FF0FC0E5FF10C06C
:103A9000E5FF11C0E5FF12C0E5FF020EDBCF00F02D
:103AA000030EDBCF01F0040EDBCF02F0050EDBCFFF
:103AB00003F0060EDBCF04F0070EDBCF05F0080E97
:103AC000DBCF06F0090EDBCF07F000500101246FB9
:103AD0000150256F0250266F0350276F04500101DB
:103AE000286F0550296F06502A6F07502B6F010170
:103AF00026352735006E016A0136026A036A016ABB
:103B0000026A036A01012A352B3500C006F0076AF4
:103B1000065C026E03500758036E0250006E03509D
:103B2000016E7E0E0026D8B0012A01012745010B47
:103B3000026E010E021601012B45010B066E010EED
:103B400006160650021A285129112A112B110EE1CE
:103B5000286B296BC00E2A6F7F0E2B6F2BC1E9FFDC
:103B60002AC1F4FF29C1F3FF2851DED001012451FD
:103B700025112611271105E1E96AF46AF36AE86A5A
:103B8000D3D001012451036E2551046E7F0E2615FA
:103B9000056E066A058E01012851076E2951086ECF
:103BA0007F0E2A15096E0A6A098E0650800FF36E81
:103BB0000A50800FF35C08E10950055C05E10850EC
:103BC000045C02E10750035C09E20350032604365B
:103BD00005360636FF0E0026D8A001060B6A0C6AD1
:103BE0000D6A010E0E6E0F6A106A116A126A0B508E
:103BF0000C100D100E102BE00650800FF36E0A50C3
:103C0000800FF35C08E10950055C05E10850045C95
:103C100002E10750035C10E30B500F120C5010121E
:103C20000D5011120E5012120750035E0850045A24
:103C30000950055A0A50065A035003260436053621
:103C40000636D8900E320D320C320B32D0D70F2AF6
:103C5000D8B0102AD8B0112AD8B0122A002AD8B069
:103C6000012A12341232113210320F32119E0150D9
:103C7000800F7F0F02E1000E005C19E3025006E0A6
:103C8000036A046A056A800E066E04D0036A046A39
:103C9000056A066A058E7F0E061203500101246F25
:103CA0000450256F0550266F0650276F35D0D880F9
:103CB00001AED89006E30101246B256B266B276BC0
:103CC0002BD0025006E0026A036A046A800E056E79
:103CD00004D0026A036A046A056AE86A01300030A7
:103CE0000B6E0A6A0A32086A0850021203120A505E
:103CF00004120B50051202500F1203501012045000
:103D00001112055012120F500101246F1050256F2F
:103D10001150266F1250276F27C1E9FF26C1F4FF0B
:103D200025C1F3FF01012451E4CF12F0E4CF11F0DB
:103D3000E4CF10F0E4CF0FF0E4CF0EF0E4CF0DF0BD
:103D4000E4CF0CF0E4CF0BF0E4CF0AF0E4CF09F0BD
:103D5000E4CF08F0E4CF07F0E4CF06F0E4CF05F0BD
:103D6000E4CF04F0E4CF03F0E4CF02F0E4CF01F0BD
:103D7000E4CF00F0E4CFD9FF120000C0E5FF01C09E
:103D8000E5FF02C0E5FF03C0E5FF04C0E5FF05C095
:103D9000E5FF06C0E5FF07C0E5FF08C0E5FF09C075
:103DA000E5FF0AC0E5FF0BC0E5FF0CC0E5FF0DC055
:103DB000E5FF0EC0E5FF000E00B0010F00B2020FDC
:103DC00000B4040F00B6080F00B8060F00BA020FC7
:103DD00000BC040F00BE080F01B0060F01B2020FB5
:103DE00001B4040F01B6080F01B8060F01BA020FA3
:103DF00001BC040F01BE080F02B0060F02B2020F91
:103E000002B4040F02B6080F02B8060F02BA020F7E
:103E100002BC040F02BE080F056AF60F02E3052A72
:103E2000FCD70A0F046E055000B8010F00BA030F4B
:103E300000BC060F00BE020F01B0050F01B2010F5A
:103E400001B4020F01B6040F01B8090F01BA090F3E
:103E500001BC080F01BE060F02B0030F02B2070F2C
:103E600002B4040F02B6080F02B8070F02BA050F1A
:103E7000066AF60F02E3062AFCD70A0F056E065003
:103E800000BE010F01B0020F01B2050F01BA010F10
:103E900001BC030F01BE070F02B0050F02B4010FF2
:103EA00002B6020F02B8050F02BA010F02BC030FDF
:103EB00002BE060F076AF60F02E3072AFCD70A0FB5
:103EC000066E075001B4010F01B6020F01B8040FCE
:103ED00001BA080F01BC060F01BE020F02B0050FA8
:103EE00002B2010F02B4020F02B6040F02B8080FAB
:103EF00002BA070F02BC040F02BE080F086AF60FD1
:103F000002E3082AFCD70A0F076E085001BC010F14
:103F100001BE030F02B0060F02B2030F02B4060F78
:103F200002B6020F02B8040F02BA090F02BC090F51
:103F300002BE080F096AF60F02E3092AFCD70A0F2E
:103F4000086E095002B2010F02B4020F02B6050F4B
:103F500002BC010F02BE030F0A6AF60F02E30A2A2F
:103F6000FCD70A0F096E0A5002B8010F02BA020FFD
:103F700002BC040F02BE080F0B6AF60F02E30B2A05
:103F8000FCD70A0F0A6E0B500E6A0EE10A5010E1C0
:103F9000095012E1085014E1075016E1065018E1EB
:103FA00005501AE104501CD00E2A300FEE6E0A5054
:103FB0000E2A300FEE6E09500E2A300FEE6E0850AA
:103FC0000E2A300FEE6E07500E2A300FEE6E06509E
:103FD0000E2A300FEE6E05500E2A300FEE6E045092
:103FE0000E2A300FEE6E0E50E4CF0EF0E4CF0DF03F
:103FF000E4CF0CF0E4CF0BF0E4CF0AF0E4CF09F00B
:10400000E4CF08F0E4CF07F0E4CF06F0E4CF05F00A
:10401000E4CF04F0E4CF03F0E4CF02F0E4CF01F00A
:10402000E4CF00F01200D9CFE5FFE1CFD9FF00C007
:10403000E5FF01C0E5FF02C0E5FF03C0E5FF04C0E6
:10404000E5FF05C0E5FF06C0E5FF07C0E5FF08C0C6
:10405000E5FF09C0E5FF0AC0E5FF0BC0E5FF020E62
:10406000DBCF00F0030EDBCF01F0040EDBCF02F05C
:10407000050EDBCF03F0060EDBCF04F0070EDBCF1F
:1040800005F0080EDBCF06F0090EDBCF07F006C007
:1040900008F0060608500EE006500424086EE86A90
:1040A00006BEE8680520096E08C0E9FF09C0EAFFFE
:1040B000EF6AEDD700500001F96F0150FA6F02501E
:1040C000FB6F0350FC6FF9C000F0FAC001F0FBC0B9
:1040D00002F0FCC003F0066A086A096A800E031445
:1040E0000A6E065007E1085005E1095003E10A5045
:1040F000800A01E013D0039E00500001F96F0150C7
:10410000FA6F0250FB6F0350FC6F04C0E9FF05C05B
:10411000EAFF2D0EEF6E042AD8B0052A0001FB3508
:10412000FC357E08006EF951016EFA51026E7F0E69
:10413000FB15036E066A038E086A096A0A6A0B6A2F
:10414000005019E0D88000AED8900EE30850082641
:1041500009360A360B3603BE0880015001260236A6
:1041600003360636002AECD7D890063203320232E4
:1041700001320006E5D7085009100A100B1012E0B2
:104180000550E56E0450E56E0B50E56E0A50E56E85
:104190000950E56E0850E56E72EC3AF0006E060EBE
:1041A000E12608D004C0E9FF05C0EAFF300EEF6E3B
:1041B000010E006E00500426E86A00BEE868052281
:1041C000075029E004C0E9FF05C0EAFF2E0EEF6E9C
:1041D000002A042AD8B0052A07501808E56E0550B1
:1041E000E56E0450E56E0650E56E0350E56E025034
:1041F000E56E0150E56EE0EC39F0016E070EE12648
:104200000150002607500426E86A052204C0E9FF91
:1042100005C0EAFFEF6A0050E4CF0BF0E4CF0AF0EC
:10422000E4CF09F0E4CF08F0E4CF07F0E4CF06F0E4
:10423000E4CF05F0E4CF04F0E4CF03F0E4CF02F0E4
:10424000E4CF01F0E4CF00F0E4CFD9FF1200D9CFE2
:10425000E5FFE1CFD9FF00C0E5FF01C0E5FF02C0E7
:10426000E5FF03C0E5FF04C0E5FF05C0E5FF06C0AC
:10427000E5FF07C0E5FF020EDBCF00F0030EDBCF4A
:1042800001F0040EDBCF02F0050EDBCF03F0060ECB
:10429000DBCF04F0070EDBCF05F0080EDBCF06F016
:1042A000090EDBCF07F0005001012C6F01502D6F7C
:1042B00002502E6F03502F6F04500101306F0550D4
:1042C000316F0650326F0750336F01012C510101DD
:1042D0003203F3CF00F0F4CF01F000500101366F4C
:1042E0000150376F01012C5101013003F3CF00F071
:1042F000F4CF01F000500101346F0150356F01011E
:104300002F5101013003F3CF00F001013751002696
:104310000050376F01012E5101013103F3CF00F03E
:104320000101375100260050376F01012E51010164
:104330003003F3CF00F0F4CF01F001013651002635
:10434000375101220050366F0150376F01012D5156
:1043500001013103F3CF00F0F4CF01F00101365138
:104360000026375101220050366F0150376F01018E
:104370002D5101013203F3CF00F0005001013B6FDA
:1043800001012D5101013003F3CF00F0F4CF01F012
:1043900000500101396F01503A6F01012C510101A8
:1043A0003303F3CF00F0005001013F6F01012C51A6
:1043B00001013103F3CF00F0F4CF01F0005001010F
:1043C0003D6F01503E6F0101386B01013C6B0101F3
:1043D000385101013425006E0101395101013521A7
:1043E000016E01013A5101013621026E01013B517A
:1043F00001013721036E0050346F0150356F0250B8
:10440000366F0350376F01013C5101013425006EB6
:1044100001013D5101013521016E01013E510101B2
:104420003621026E01013F5101013721036E03C0A5
:10443000E9FF02C0F4FF01C0F3FF0050E4CF07F032
:10444000E4CF06F0E4CF05F0E4CF04F0E4CF03F0CE
:10445000E4CF02F0E4CF01F0E4CF00F0E4CFD9FFE5
:104460001200D9CFE5FFE1CFD9FF00C0E5FF01C0C1
:10447000E5FF02C0E5FF03C0E5FF04C0E5FF05C09E
:10448000E5FF06C0E5FF07C0E5FF08C0E5FF020E37
:10449000DBCF00F0000E0101545D03E1400E01018D
:1044A000535D05E253C101F054C102F003D0400E48
:1044B000016E026A0044FE0B036E0328006E00507A
:1044C000040DF3CF00F0000E0024036E046A040E06
:1044D0000422000E0024056E066A040E062205C0A2
:1044E000E9FF06C0EAFFEFCF05F0FC0E051603C09A
:1044F000E9FF04C0EAFF05C0EFFF000E0024036ED1
:10450000046A040E0422000E0024056E066A040EDE
:10451000062205C0E9FF06C0EAFFEFCF05F0066AF4
:10452000030E0214076E0750066E076A0650051246
:1045300003C0E9FF04C0EAFF05C0EFFF000E00243E
:10454000036E046A040E0422032AD8B0042A015020
:10455000056E066A03C0E9FF04C0EAFF05C0EFFF6D
:10456000036A000E0026040E0322020E0026D8B0B5
:10457000032A400E046E050E056E000E066E076AD5
:10458000066A076A00C0E9FF03C0EAFF04C0EEFF45
:1045900005C0EFFF01500101535F02500101545B60
:1045A000400E006E050E036E03500101516F005066
:1045B0000101506F800E0101526F006A00C003F0CC
:1045C000046A0250045C02E10150035C2FE250C116
:1045D00003F051C104F052C105F0FDC006F0FEC069
:1045E00007F0FFC008F006C0E9FF07C0F3FF08505E
:1045F000B5EC3BF0066E0001FD2B02E30001FE2B43
:1046000002E30001FF2B06C0E5FF03C0E9FF04C081
:10461000F3FF055014EC3CF00101502B02E30101C3
:10462000512B02E30101522B002AC8D7E4CF08F036
:10463000E4CF07F0E4CF06F0E4CF05F0E4CF04F0D8
:10464000E4CF03F0E4CF02F0E4CF01F0E4CF00F0D8
:10465000E4CFD9FF1200D9CFE5FFE1CFD9FF00C0E9
:10466000E5FF01C0E5FF02C0E5FF03C0E5FF04C0B0
:10467000E5FF05C0E5FF06C0E5FF07C0E5FF020E48
:10468000DBCF00F0030EDBCF01F0040EDBCF02F036
:10469000050EDBCF03F0060EDBCF04F0070EDBCFF9
:1046A00005F0030EE56E140EE56E010EE56E000ECC
:1046B000E56E0350E56E0250E56E0150E56E005068
:1046C000E56E13EC20F0080EE126010E016E000EDF
:1046D000006E800E026E2E0EE56E0250E56E0150E9
:1046E000E56E0050E56ED9EC36F0006EF3CF01F0C8
:1046F000F4CF02F0040EE126005005E1015003E181
:10470000025001E148D0000E005E010E015A005037
:1047100004260428006E010E026E000E016E800E4B
:10472000036E0350E56E0250E56E0150E56EBCEC81
:1047300038F0016EF3CF02F0030EE12600C003F063
:10474000046A0450800FF36E0250800FF35C02E1A4
:104750000150035C15E3010E026E000E016E800E27
:10476000036E0350E56E0250E56E0150E56EBCEC41
:1047700038F0016EF3CF02F0030EE1260150006E17
:10478000016A000E0026010E012200C0E9FF01C0EF
:10479000EAFF000EEF6E010E016E0A0E006E800E33
:1047A000026E010E046E000E036E800E066E076A26
:1047B000200EE56E0750E56E0550E56E0650E56E7D
:1047C0000450E56E0350E56E0250E56E0150E56E53
:1047D0000050E56E32EC2CF0090EE126010E016E60
:1047E0000A0E006E800E026E0250E56E0150E56EFC
:1047F0000050E56EB6EC37F0030EE126E4CF07F08B
:10480000E4CF06F0E4CF05F0E4CF04F0E4CF03F00A
:10481000E4CF02F0E4CF01F0E4CF00F0E4CFD9FF21
:104820001200D9CFE5FFE1CFD9FF00C0E5FF01C0FD
:10483000E5FF02C0E5FF03C0E5FF04C0E5FF05C0DA
:10484000E5FF06C0E5FF07C0E5FF08C0E5FF09C0BA
:10485000E5FF0AC0E5FF0BC0E5FF0CC0E5FF0DC09A
:10486000E5FF0EC0E5FF0FC0E5FF020EDBCF00F055
:10487000030EDBCF01F0040EDBCF02F0050EDBCF21
:1048800003F0060EDBCF04F0070EDBCF05F0080EB9
:10489000DBCF06F0200E076E086A06C009F00A6A30
:1048A0000B6A0C6AE56AE56AE56A0950E56E035031
:1048B000E56E0250E56E0150E56E0050E56E58EC75
:1048C0002DF00D6E080EE126300E0D263A0E0D5C11
:1048D00002E3270E0D26FF0E0726D8A00806B10E0C
:1048E00007240E6E000E08200F6E0EC0E9FF0FC0E9
:1048F000EAFF0DC0EFFF0C50E56E0B50E56E0A505D
:10490000E56E0950E56E0350E56E0250E56E01500C
:10491000E56E0050E56E79EC2EF0006EF3CF01F0FD
:10492000F4CF02F0E9CF03F0080EE12600500110A9
:1049300002100310D8A4B1D707C000F008C001F0DE
:1049400004C002F005C003F000C004F001C005F08F
:10495000002AD8B0012AB10E0426000E052204C098
:10496000E9FF05C0EAFFEFCF04F002C0E9FF03C092
:10497000EAFF04C0EFFF022AD8B0032A000E015C50
:1049800002E1200E005CE0E302C0E9FF03C0EAFFA1
:10499000000EEF6AE4CF0FF0E4CF0EF0E4CF0DF09D
:1049A000E4CF0CF0E4CF0BF0E4CF0AF0E4CF09F051
:1049B000E4CF08F0E4CF07F0E4CF06F0E4CF05F051
:1049C000E4CF04F0E4CF03F0E4CF02F0E4CF01F051
:1049D000E4CF00F0E4CFD9FF1200D9CFE5FFE1CF5B
:1049E000D9FF00C0E5FF01C0E5FF02C0E5FF03C03D
:1049F000E5FF04C0E5FF800EE56E0C0EE56E3D0E92
:104A0000E56E000EE56E3BEC38F0040EE126000E7C
:104A1000E56E0DEC3BF0E12A000EE56E050EE56E4D
:104A2000C5EC3AF0020EE126006A016A026A1E0E27
:104A3000025C1AE231EC3CF02AEC3CF0036E0350CD
:104A4000FBE126EC3CF0036EF3CF04F003500026AC
:104A500004500122000EE56E010EE56EC5EC3AF041
:104A6000020EE126022AE3D72EEC3CF0000EE56EA2
:104A70001E0EE56E0150E56E0050E56EE4EC35F07B
:104A8000006EF3CF01F0040EE12601C0F3FF0050E9
:104A9000E4CF04F0E4CF03F0E4CF02F0E4CF01F080
:104AA000E4CF00F0E4CFD9FF1200442E506F7765B9
:104AB0007220537570706C79203200002046656C4E
:104AC00069786C732032303130203A290000496E09
:104AD000697469616C697A696E672E2E2E200000F8
:104AE00052656164696E6720656570726F6D2E2E08
:104AF0000000573A00002020543A000043004D6F58
:104B000064653A00555342002053410020566572B7
:104B10003A00563A0000205B00005D00204D3A5BF1
:104B20000000493A0000436865636B2074656D704E
:104B30002E212100543A2000432000002A207374C3
:104B4000616E6279206D6F6465202A20000020204C
:104B50002020202020202020627965203B29000091
:104B600056540000435400005600410040004D00E0
:104B7000446F6E652E002300D9CFE5FFE1CFD9FF4A
:104B800000C0E5FF01C0E5FF02C0E5FF03C0E5FF8F
:104B900004C0E5FF05C0E5FF06C0E5FF07C0E5FF6F
:104BA00008C0E5FF09C0E5FF020EDBCF00F0030EF1
:104BB000DBCF01F0040EDBCF02F0036A046A056A62
:104BC00000C006F001C007F002C008F006C0E9FF0F
:104BD00007C0F3FF0850B5EC3BF0096E09501BE02D
:104BE0000950800F460F04E20950800F500F13E266
:104BF00006C0E9FF07C0F3FF0850B5EC3BF0096EB3
:104C00002D0A09E009502B0A06E0062AD8B0072A27
:104C1000D8B0082ADBD706C000F007C001F008C0F2
:104C200002F006C0E9FF07C0F3FF0850B5EC3BF007
:104C3000066E076A2D0A01E1072A075002E0010EFD
:104C4000056E075003E106502B0A05E1002AD8B093
:104C5000012AD8B0022A00C0E9FF01C0F3FF0250C8
:104C6000B5EC3BF0066E065029E00650800F500F61
:104C700025E30650800F460F21E20450E56E0350F5
:104C8000E56EE56A0A0EE56E89EC36F0076EF3CF45
:104C900008F0040EE126096A06BE0968D00E062651
:104CA000D8A0090606500724036E09500820046E98
:104CB000002AD8B0012AD8B0022ACDD705500AE080
:104CC000041C016E031C006E004A012A01C0F3FFA0
:104CD000005003D004C0F3FF0350E4CF09F0E4CF49
:104CE00008F0E4CF07F0E4CF06F0E4CF05F0E4CF1E
:104CF00004F0E4CF03F0E4CF02F0E4CF01F0E4CF1E
:104D000000F0E4CFD9FF1200D9CFE5FFE1CFD9FF02
:104D100000C0E5FF01C0E5FF02C0E5FF03C0E5FFFD
:104D200004C0E5FF05C0E5FF06C0E5FF07C0E5FFDD
:104D300008C0E5FF09C0E5FF0AC0E5FF0BC0E5FFBD
:104D4000020EDBCF00F0030EDBCF01F0040EDBCF51
:104D500002F0050EDBCF03F000500110021003102B
:104D600005E1E96AF46AF36AE86A71D0960E046EA6
:104D7000056A035009E0D890033202320132003252
:104D8000042AD8B0052AF5D704C006F005C007F0FC
:104D9000000E035C08E1800E025C05E1000E015C80
:104DA00002E1000E005C19E20050002601360236D6
:104DB0000336FF0E0426D8A00506000E035C08E1AA
:104DC000800E025C05E1000E015C02E1000E005C59
:104DD000EBE304C006F005C007F00050046E01507C
:104DE000056E7F0E0214086E096A0450FF0A08E17E
:104DF0000550FF0A05E108507F0A02E1095001E071
:104E000007D0006A016A026A036A062AD8B0072A34
:104E1000029EE86A073006300B6E0A6A0A32086A98
:104E20000850001201120A5002120B5003120050D7
:104E30000101486F0150496F02504A6F03504B6F98
:104E40004BC1E9FF4AC1F4FF49C1F3FF4851E4CF28
:104E50000BF0E4CF0AF0E4CF09F0E4CF08F0E4CFA0
:104E600007F0E4CF06F0E4CF05F0E4CF04F0E4CFA0
:104E700003F0E4CF02F0E4CF01F0E4CF00F0E4CFA0
:104E8000D9FF1200D9CFE5FFE1CFD9FF00C0E5FF80
:104E900001C0E5FF02C0E5FF03C0E5FF7F0E04018E
:104EA0000415006E00500401046F7F0E040100150C
:104EB000006E00500401006F01016D6B0101686B11
:104EC0000101646B0101536B0101546B06EC2FF07F
:104ED0000101685118E1400E0401016F000E006EDF
:104EE000050E016E026A036A026A036A0050040139
:104EF000026F01500401036F840E0401006F840EE1
:104F00000401046F5DD0050100AF3DD00101545193
:104F10000501075D04E1010153510501065D04E24D
:104F200006C553F107C554F1000EE56E31EC22F0D1
:104F3000E12A020E01016D6F400E0401016F000EA7
:104F4000006E050E016E026A036A026A036A00506F
:104F50000401026F01500401036F800E0401006F11
:104F6000400E006E050E016E000E026E036A026AAC
:104F7000036A00500401066F01500401076FC80E58
:104F80000401046F1DD0010E01016D6F0401056B5A
:104F9000C80E0401046F400E0401016F400E006E44
:104FA000050E016E000E026E036A026A036A00506B
:104FB0000401026F01500401036FC80E0401006F69
:104FC0006D98E4CF03F0E4CF02F0E4CF01F0E4CF3A
:104FD00000F0E4CFD9FF1200D9CFE5FFE1CFD9FF30
:104FE00000C0E5FF01C0E5FF02C0E5FF03C0E5FF2B
:104FF00004C0E5FF05C0E5FF06C0E5FF07C0E5FF0B
:1050000008C0E5FF09C0E5FF020EDBCF00F0004459
:10501000FE0B016E0150040DF3CF00F0000E0024D2
:10502000016E026A040E022201C0E9FF02C0EAFF1B
:10503000EFCF01F0030E0116026A0150046E036AFD
:10504000016A000E0026040E0122002AD8B0012AAF
:1050500000C0E9FF01C0EAFFEFCF00F0016A035092
:1050600000120450011200500101532701500101A8
:105070005423400E026E050E036E03500001FE6FB6
:1050800002500001FD6F800E0001FF6F026A036A8B
:105090000150035C02E10050025C31E250C104F0B7
:1050A00051C105F052C106F0FDC007F0FEC008F086
:1050B000FFC009F007C0E9FF08C0F3FF0950B5ECD5
:1050C0003BF0076E0001FD2B02E30001FE2B02E323
:1050D0000001FF2B07C0E5FF04C0E9FF05C0F3FF97
:1050E000065014EC3CF00101502B02E30101512B5E
:1050F00002E30101522B022AD8B0032AC9D7E4CF18
:1051000009F0E4CF08F0E4CF07F0E4CF06F0E4CFF5
:1051100005F0E4CF04F0E4CF03F0E4CF02F0E4CFF5
:1051200001F0E4CF00F0E4CFD9FF1200D9CFE5FFC2
:10513000E1CFD9FF00C0E5FF01C0E5FF0101556BDC
:105140000101566B8194000EE56E140EE56EC5EC00
:105150003AF0020EE126030E006E016A000EE56EC3
:10516000030EE56E2DEC33F0020EE126000EE56E27
:10517000050EE56EC5EC3AF0020EE126FF0E0026A4
:10518000D8A0010600500110E9E1000EE56E020E04
:10519000E56E2DEC33F0020EE126000EE56E280ED2
:1051A000E56E000EE56E000EE56E39EC36F0040E8D
:1051B000E126000EE56E050EE56EC5EC3AF0020E36
:1051C000E126000EE56E010EE56E000EE56E000EA6
:1051D000E56E39EC36F0040EE126000EE56E050EA4
:1051E000E56EC5EC3AF0020EE126000EE56E0C0EFF
:1051F000E56E000EE56E000EE56E39EC36F0040E3D
:10520000E126000EE56E050EE56EC5EC3AF0020EE5
:10521000E126000EE56E060EE56E000EE56E000E50
:10522000E56E39EC36F0040EE126000EE56E050E53
:10523000E56EC5EC3AF0020EE126000EE56E0C0EAE
:10524000E56E000EE56E000EE56E39EC36F0040EEC
:10525000E126000EE56E050EE56EC5EC3AF0020E95
:10526000E126E4CF01F0E4CF00F0E4CFD9FF120053
:10527000D9CFE5FFE1CFD9FF00C0E5FF01C0E5FFD1
:1052800002C0E5FF03C0E5FF1F0E05010015006E1B
:1052900002C501F0005012E10150010A01E077D08F
:1052A000010E0101686F05010151030A04E1010EBD
:1052B00001016A6F6CD001016A6B69D00050020A6B
:1052C00001E065D00F0E05010415006E800E05018A
:1052D0000415026E0150D8A45AD00050D8B457D04B
:1052E000010E0101686F0050080DF3CF00F0F4CFFC
:1052F00001F0000E0026040E012201500101516F41
:1053000000500101506F800E0101526F025009E000
:10531000040E01015027000E01015123000E01016E
:10532000522305010151030A10E150C100F051C19F
:1053300001F052C103F0840EE56E00C0E9FF01C028
:10534000F3FF035014EC3CF022D00250010A10E1AC
:1053500050C100F051C101F052C102F0000EE56EE3
:1053600000C0E9FF01C0F3FF025014EC3CF00FD085
:1053700050C100F051C101F052C102F0880EE56E3B
:1053800000C0E9FF01C0F3FF025014EC3CF0E4CF91
:1053900003F0E4CF02F0E4CF01F0E4CF00F0E4CF7B
:1053A000D9FF1200D9CFE5FFE1CFD9FF00C0E5FF5B
:1053B00001C0E5FF02C0E5FF03C0E5FF04C0E5FF53
:1053C00005C0E5FF06C0E5FF07C0E5FF08C0E5FF33
:1053D00009C0E5FF0AC0E5FF020EDBCF00F0030EB7
:1053E000DBCF01F0040EDBCF02F0050EDBCF03F0C4
:1053F000046A01016B51050A02E0E86A54D0040115
:105400000CBF50D0410E035C02E3400E036E056AF0
:105410000350055C1FE2C00E0524066E076A050EE8
:10542000072205500024086EE86A0120096EE86A28
:1054300002200A6E08C0E9FF09C0F3FF0A50B5EC6C
:105440003BF0086E06C0E9FF07C0EAFF08C0EFFFA7
:10545000052ADED705C004F0055004010D6F400E8B
:1054600004010C15006E005004010C6F006A040169
:105470000CBD002A0050D880E866D890006A00363B
:105480000050010BE840E840F46E04010C51BF0BE2
:10549000F41004010C6F880E04010C11006E005012
:1054A00004010C6F0450E4CF0AF0E4CF09F0E4CF1C
:1054B00008F0E4CF07F0E4CF06F0E4CF05F0E4CF46
:1054C00004F0E4CF03F0E4CF02F0E4CF01F0E4CF46
:1054D00000F0E4CFD9FF1200D9CFE5FFE1CFD9FF2B
:1054E00000C0E5FF01C0E5FF02C0E5FF03C0E5FF26
:1054F00004C0E5FF05C0E5FF06C0E5FF07C0E5FF06
:1055000008C0E5FF09C0E5FF020EDBCF00F0030E87
:10551000DBCF01F0040EDBCF02F0050EDBCF03F092
:10552000046A01016B51050A02E0E86A57D00401E0
:1055300008BF53D003500401095D02E209C4E8FF2B
:10554000036A04010951035C20E203500024056E44
:10555000E86A0120066EE86A0220076E800E0324C6
:10556000086E096A050E092208C0E9FF09C0EAFFB2
:10557000EFCF08F008C0E5FF05C0E9FF06C0F3FF64
:10558000075014EC3CF0032ADCD703C004F0400EB3
:1055900004010815006E00500401086F006A040140
:1055A00008BD002A0050D880E866D890006A00360E
:1055B0000050010BE840E840F46E04010851BF0BB5
:1055C000F4100401086F400E0401096F880E0401F5
:1055D0000811006E00500401086F0450E4CF09F078
:1055E000E4CF08F0E4CF07F0E4CF06F0E4CF05F015
:1055F000E4CF04F0E4CF03F0E4CF02F0E4CF01F015
:10560000E4CF00F0E4CFD9FF1200D9CFE5FFE1CF1E
:10561000D9FF00C0E5FF01C0E5FF02C0E5FF03C000
:10562000E5FF04C0E5FF05C0E5FF06C0E5FF07C0D4
:10563000E5FF020EDBCF00F0030EDBCF01F0040E1E
:10564000DBCF02F0050EDBCF03F00050011002109B
:10565000031005E1E96AF46AF36AE86A5BD0E56A77
:10566000E56AE56AE56A0350E56E0250E56E0150B1
:10567000E56E0050E56EEAEC2DF0046E080EE126B2
:1056800004502EE000C004F001C005F002C006F096
:1056900003C007F0077E0750E56E0650E56E055023
:1056A000E56E0450E56E01EC31F0046EF3CF05F0C9
:1056B000F4CF06F0E9CF07F0040EE126071E061E20
:1056C000051E046C05E1052A03E1062AD8B4072A61
:1056D00007C0E9FF06C0F4FF05C0F3FF04501AD06D
:1056E0000350E56E0250E56E0150E56E0050E56E28
:1056F00001EC31F0006EF3CF01F0F4CF02F0E9CF0E
:1057000003F0040EE12603C0E9FF02C0F4FF01C06C
:10571000F3FF0050E4CF07F0E4CF06F0E4CF05F04C
:10572000E4CF04F0E4CF03F0E4CF02F0E4CF01F0E3
:10573000E4CF00F0E4CFD9FF120012010002020012
:105740000040F905FFFF00000001000109022000F0
:10575000010100031409040000020A000002070509
:1057600001024000000705810240000028034A00B2
:1057700061006E0042006F000C0350006F00720069
:105780006E0030000C0350006F0072006E0030009D
:10579000E806E56E630EE7EC2BF0630E13EC2CF0DD
:1057A000090E26EC2CF0E45011E000D0E56E630EFB
:1057B000E7EC2BF0630E13EC2CF0090E26EC2CF02A
:1057C00000D000D00000E450E82EF0D71200E80628
:1057D000E56E090E00EC2CF0630E26EC2CF0E45084
:1057E0000EE000D0E56E090E00EC2CF0630E26EC06
:1057F0002CF000D000D00000E450E82EF3D71200C7
:10580000E806E56E630E26EC2CF0E4500BE000D0C9
:10581000E56E630E26EC2CF000D000D00000E450C2
:10582000E82EF6D71200E806E56E090E26EC2CF0FD
:10583000E4500BE000D0E56E090E26EC2CF000D011
:10584000E450000000D0E82EF6D71200E806000071
:10585000E85007E000D000D000D000D00000E82ED3
:10586000FAD71200D9CFE5FFE1CFD9FF00C0E5FF9D
:1058700001C0E5FF02C0E5FF03C0E5FF04C0E5FF8E
:1058800005C0E5FF06C0E5FF07C0E5FF08C0E5FF6E
:1058900009C0E5FF0AC0E5FF0BC0E5FF020EDBCF44
:1058A00000F0030EDBCF01F0040EDBCF02F0050E9B
:1058B000DBCF03F0060EDBCF04F0070EDBCF05F0E5
:1058C000080EDBCF06F0090EDBCF07F00A0EDBCFA8
:1058D00008F00550E56E0450E56E0350E56EBCEC33
:1058E00038F0096EF3CF0AF0030EE1260950065E88
:1058F0000A50075A00C009F001C00AF002C00BF0BC
:105900000650071013E008C0E5FF09C0E9FF0AC010
:10591000F3FF0B5014EC3CF0092AD8B00A2AD8B097
:105920000B2AFF0E0626D8A00706EAD70550E56E1B
:105930000450E56E0350E56E0B50E56E0A50E56EBF
:105940000950E56EC4EC32F0060EE12602C0F4FF09
:1059500001C0F3FF0050E4CF0BF0E4CF0AF0E4CF36
:1059600009F0E4CF08F0E4CF07F0E4CF06F0E4CF8D
:1059700005F0E4CF04F0E4CF03F0E4CF02F0E4CF8D
:1059800001F0E4CF00F0E4CFD9FF1200D9CFE5FF5A
:10599000E1CFD9FF00C0E5FF01C0E5FF02C0E5FF90
:1059A0001F0E05010015006E0501406B0501416BDE
:1059B000005019E1010E0101686F0101695107E012
:1059C000010E05014011016E01500501406F0101FA
:1059D0006A51D8B44FD0020E05014011016E01503A
:1059E0000501406F47D00050010A04E1010E01019A
:1059F000686F40D00050020A01E03CD00F0E050154
:105A00000415006E800E05010415016E010E0101E2
:105A1000686F0050080DF3CF00F0F4CF02F0000ED5
:105A20000026040E022202500101516F00500101B4
:105A3000506F800E0101526F015009E0040E010108
:105A40005027000E01015123000E0101522350C1C5
:105A500000F051C101F052C102F000C0E9FF01C0E5
:105A6000F3FF0250B5EC3BF0006E00A403D0010E32
:105A70000501406F0101685112E0400E006E050EF5
:105A8000016E01500001FE6F00500001FD6F800E9D
:105A90000001FF6F020E0101536F0101546BE4CF4F
:105AA00002F0E4CF01F0E4CF00F0E4CFD9FF120020
:105AB000D9CFE5FFE1CFD9FF00C0E5FF01C0E5FF89
:105AC00002C0E5FF03C0E5FF04C0E5FF05C0E5FF38
:105AD00006C0E5FF07C0E5FF08C0E5FF09C0E5FF18
:105AE0000AC0E5FF020EDBCF00F0030EDBCF01F0B2
