:020000040000FA
:0400000022EF00F0FB
:080008000001D5EF03F0120125
:10001000000200000008D8040B00010000000001ED
:1000200009022000010100806409040000020000B0
:1000300000000705810240000007050102400000A2
:1000400004030904CDEF03F0836F7D51E16E7E510F
:10005000E26E8351856F846B3EEF00F08051842502
:10006000F66E000E5E6E81515E20F76E82515E204C
:10007000F86EF89C0900F550E66E842B8451855D7E
:10008000D8A42EEF00F01200040104BF12000001FA
:100090006B51685DD8B452EF00F0D8B052EF00F069
:1000A00068516B6FD8806B5169557F6F7F516A5D66
:1000B000D8B460EF00F0D8B060EF00F06A517F6F05
:1000C000780E69250401066F000E5E6E040E5E2038
:1000D000076F00017F510401056F04AD74EF00F05C
:1000E000880E046F76EF00F0C80E046F00017F5198
:1000F000692769516B5D1200080E6A6F696B6B6B43
:10010000686B0401049D44EF00F07D6F7D51040194
:10011000786F080E00016A6F696B010E6B6F010E3C
:10012000686F0401049D44EF00F0840E0401001385
:100130001200080E0401016F100E026F040E036F0F
:10014000030E00016D5DD8A4ACEF00F08C0E7B6F48
:100150000401046BAEEF00F0C80E7B6F00017B5111
:100160000401006F12007B6FD8907B357F6FD890B1
:100170007F37D8907F377F297D6F04EE00F07D5167
:10018000E9267C51EF6E04EE00F07F51E926800EE7
:10019000EF6E12000CADD0EF00F0880E0C6F120065
:1001A000C80E0C6F1200550EA76EAA0EA76EA6827F
:1001B00012002451F86E2351F76E2251F66E120090
:1001C0000401F9510001676F060E675DD8A45AEF6C
:1001D00001F00401FB5100017B6F0401FA510001A1
:1001E0007C6F6B6B010E7B5DD8A409EF01F0120EE2
:1001F0006B6F780E7D6F040E7E6F0E0E806F000E9B
:10020000816F000E4009826F6B5124EC00F03DEFCE
:1002100001F0020E7B5DD8A420EF01F0200E6B6F81
:10022000780E7D6F040E7E6F200E806F000E816F42
:10023000000E4009826F6B5124EC00F03DEF01F09D
:10024000030E7B5DD8A43BEF01F07C51D8A43DEFB9
:1002500001F0040E6B6F780E7D6F040E7E6F400E02
:10026000806F000E816F000E4009826F6B5124EC8D
:1002700000F03DEF01F0220E7B5D00016B51D8B420
:1002800058EF01F0080E6A6F0401FF51D8A44EEF39
:1002900001F0FE510001686F51EF01F0FF0E000107
:1002A000686F030E6D6F696B0401049D44EF00F0ED
:1002B00095EF00F0050E675DD8A46BEF01F0040127
:1002C000FA5100016E6F010E6C6F7CEC00F0060EAF
:1002D00000016D6F1200090E675DD8A484EF01F074
:1002E000060E6D6F7CEC00F07188718471827186EE
:1002F000400E04010C6F400E096F200E0A6F040EB1
:100300000B6F800E086F12000A0E675DD8A48EEF87
:1003100001F0030E6D6F010E85EF00F06751D8A458
:1003200095EF01F0000E85EF00F01200D8906C30D0
:10033000716FD8907133D89071336CA4ACEF01F029
:10034000D890040104310001736FD89073330F0EFD
:100350007315726FB6EF01F0D890040100310001FF
:10036000736FD89073330F0E7315726F7151D8A4D9
:1003700040EF02F00D0E725DD8A4E7EF01F0746B50
:1003800004EE10F07451E926EF50606F04EEF8F0BF
:100390007451E9266051EF6E742B080E745DD8A479
:1003A000C0EF01F06D9899EC00F0300E0401F815E3
:1003B0000001736F7351D8A4E0EF01F0E0EF00F09B
:1003C000200E735DD8B41200400E735D1200090E4A
:1003D000725DD8A409EF02F0030E6D5DD8A4F3EFAF
:1003E00001F044EF00F0060E6D5DD8A402EF02F0BC
:1003F0006D6B010E6C5DD8A408EF02F06E516E6E4D
:100400006C6B1200050E6D5DD8B41200040E6D5DAC
:100410001200020E725DD8A420EF02F0030E6D5D93
:10042000D8A415EF02F044EF00F0040E6D5DD8B4CF
:100430001200060E6D5DD8A41FEF02F06D6B120066
:10044000010E725DD8A47CEF03F0050E6D5DD8A49B
:100450002DEF02F06D6B99EF00F0020E6D5DD8A4E8
:1004600034EF02F099EF00F0030E6D5DD8A43EEF7B
:1004700002F099EC00F000016D6B120099EF00F0B2
:100480006CB41200D8907135746FD8907437D890CE
:100490007437020E7425736F04EE00F07351E92671
:1004A000EF50756F030E7425736F04EE00F07351F7
:1004B000E926EF50766F7429736F04010D6B20519C
:1004C000D8A46BEF02F0140E226F010E236F040EFE
:1004D0000D6F71EF03F0040E205DD8A490EF02F0D1
:1004E000A69EA69C215100017A6F786B85EF02F0E1
:1004F0000401225100017825A96EA68004EE25F0A2
:100500007851E926A850EF6E782B78517A5DD8A4FF
:1005100078EF02F0050E040121250D6F71EF03F055
:10052000010E205DD8B49AEF02F0060E205DD8A42B
:10053000B6EF02F0D9EC00F00401215100017A6F0E
:10054000786BABEF02F0090004EE25F07851E92654
:10055000F550EF6E782B78517A5DD8A4A3EF02F0B6
:10056000050E040121250D6F71EF03F0020E205DD1
:10057000D8A4E6EF02F0840EA66ED9EC00F0F00EDF
:10058000F616040121510001786F666BDCEF02F072
:1005900004EE25F06651E926EF50F56E0D000F0EC2
:1005A0006615776F0F0E775DD8A4DAEF02F00A00B8
:1005B000D3EC00F00001662B6651785DD8A4C8EF3B
:1005C00002F0010E04010D6F71EF03F0030E205DC8
:1005D000D8A409EF03F0940EA66ED9EC00F0040144
:1005E000215100017A6F786BFFEF02F0D3EC00F03D
:1005F000200EF626F650D8B4F72A0001782B785151
:100600007A5DD8A4F6EF02F0010E04010D6F71EFD0
:1006100003F0050E205DD8A430EF03F02151000156
:100620007A6F786B26EF03F00401225100017825E0
:10063000A96E04EE25F07851E926EF50A86ED3ECB0
:1006400000F0A6B221EF03F00001782B78517A5D1B
:10065000D8A414EF03F0010E04010D6F71EF03F045
:10066000070E205DD8A456EF03F0840EA66ED9ECD9
:1006700000F00401215100017A6F786B4CEF03F018
:1006800004EE25F07851E926EF50F56E0C00D3EC1E
:1006900000F00D000001782B78517A5DD8A440EF6E
:1006A00003F0010E04010D6F71EF03F0320E205DB7
:1006B000D8B471EF03F0FF0E205DD8A471EF03F002
:1006C000FF0E0001786F796F6D6A78517911D8B497
:1006D00070EF03F078077829D8B4790765EF03F055
:1006E000FF0004010D51D8A4CAEC00F0400E000137
:1006F0007C6F7151B3EF00F01200A1AACCEF03F0B0
:10070000A19A0001706B68A689EF03F096EC01F0E6
:1007100068960001702B040E705DD8A483EF03F07F
:1007200068A0C2EF03F06A6A686A6E6B716A726AE7
:10073000736A746A756A766A776A786A796A100E7B
:100740007A6E7B6A7C6A7D6A7E6A7F6A160E706E3C
:1007500068A6AEEF03F06896A8EF03F06D6B6C6BC4
:100760006D98080E0401056F180E066F040E076FD2
:10077000046B080E016F100E026F040E036F8C0ED7
:10078000006F689068BA689A68B8689868BC689C96
:1007900068A2CCEF03F068921200F29E9382C150DF
:1007A0006F6F0F0EC112D8EF03F004EF04F01100C9
:1007B00081A2DFEF03F06F51C16E00EF04F06D6AAC
:1007C000140E6F6E6B0E696EA09A686A6D6A6D8604
:1007D000200E04010E6F040E0F6F7DEC03F0EDEFA1
:0207E00003F024
:020000040030CA
:0E000000240C391E0005E0000FC00FE00F4079
:00000001FF
