:020000040000FA
:1000000000008A150A16CA2CF200030E8301F100C3
:100010000A088A01F000040883160317DF00831220
:1000200003130B1D33283C3081000B11831603177B
:100030005C080A3A0319332883160317D60A5608B0
:10004000C83A031D2728D60183160317D70A83163B
:10005000031757083C3A031D3328D70183160317AB
:100060009E0A03199F0A831603175F08840070080D
:100070008A008301710E8300F20E720E090083164E
:100080000317DB0183160317BA01BB01831603179D
:10009000BC01BD01292666268A110A1687258A1108
:1000A0000A128316031748084904031D642883169F
:1000B00003174A084B0403196428FF308A110A16F3
:1000C00073258A110A129E2B0530831603175302DB
:1000D0000318652900308A007330530703188A0A11
:1000E00083120313820078287828E32852295229A2
:1000F000831603175D088312031796009701831672
:1001000003173308831203171702031D8D28831664
:100110000317320883120317160203189E280030B3
:10012000831603172502031D972805302402031C9C
:100130009E28013083160317A400A5018316031718
:100140002408FD002508FE000A30FF0000308A1553
:100150000A16E1258A110A128312031797007F08F5
:100160009600FD001708FE00E830FF0003308A11FA
:100170000A169B278A110A128312031797007F0819
:100180009600FD001708FE004130FF0000308A1580
:100190000A16E1258A110A128312031797007F08B5
:1001A00096000A30FD000030FE001608FF00170818
:1001B0008A110A169B278A110A1283160317B100A7
:1001C0007F08B0006529831603175D0883120317A3
:1001D000960097010030831603173502031DF62899
:1001E000831203171608831603173402031807290E
:1001F0000030831603172502031D00290530240251
:10020000031C0729013083160317A400A5018316D8
:1002100003172208FD002308FE003230FF000030E3
:100220008A150A16E1258A110A1283160317AD00F2
:100230007F08AC00831603172408FD002508FE0084
:10024000831603172208FF0023088A150A16E125E2
:100250008A110A128312031797007F089600FD0087
:100260001708FE00831603172208FF0023088A11CF
:100270000A169B278A110A128312031797007F0818
:100280009600FD001708FE005830FF0002308A1566
:100290000A16E1258A110A1283160317B1007F0896
:1002A000B0006529831603172208FD002308FE000D
:1002B0001E30FF0000308A150A16E1258A110A1245
:1002C00083160317AD007F08AC0083160317D50112
:1002D00083160317DE0183160317D601831603174F
:1002E000D701831603179E019F0183120313081180
:1002F00083160317580883120317960097011608F0
:10030000FD000030FE00831603172808FF002908AF
:100310008A150A16E1258A110A1283160317BF00EF
:100320007F08BE00831203171608FD001708FE00A1
:10033000831603172E08FF002F088A150A16E125D9
:100340008A110A1283160317C1007F08C0008316A2
:1003500003172408FD002508FE0083160317220852
:10036000FF0023088A150A16E1258A110A12831252
:10037000031797007F0896000A30FD000030FE004A
:10038000831603172008FF0021088A110A169B27ED
:100390008A110A128312031799007F089800170820
:1003A0001902031DD529160818020318EB29831614
:1003B00003172008FD002108FE000A30FF0000306E
:1003C0008A150A16E1258A110A1283160317C50039
:1003D0007F08C400132A831603172208FD00230890
:1003E000FE006430FF0000308A150A16E1258A11EC
:1003F0000A128312031797007F08960083160317CB
:100400002408FD002508FE00831203171608FF00CC
:1004100017088A150A16E1258A110A12831603178E
:10042000C5007F08C400831603172C088316031722
:10043000C600831603172D0883160317C70027303D
:10044000831603174502031D272A10304402031C9C
:100450002C2A83120313881483160317CC01CD01B1
:1004600083160317CE01CF0183160317D001D101E4
:100470000F30831203179700FA30960080309800EF
:100480001608FE001708FF0018088A110A128C27A8
:100490008A110A12831603172408FF0025088A11FF
:1004A0000A1610238A110A1283160317DC01003082
:1004B000831603175B04031D1E2B8A110A160020E6
:1004C0008A110A1283120313881B922A3230FF000A
:1004D00000308A150A161F268A110A128312031386
:1004E000881B922A83120313881F722A64308A1190
:1004F0000A1673258A110A121E30831203179700F9
:10050000D4309600803098001608FE001708FF00CF
:1005100018088A110A128C278A110A1201308316D0
:100520000317DB000030831603175B04031D572AF3
:100530008A110A1687258A110A12003083160317BA
:1005400053040319A72A5308013A031DA92A872433
:10055000AA2A9F23831603175D08831203179600A8
:100560009701831603173708803E831203179A00FA
:100570000030803E1A02031DC12A16088316031795
:1005800036020318D72A1E30831203179900DD3074
:10059000980080309A001808FE001908FF001A0819
:1005A0008A110A128C278A110A12D425002B831271
:1005B00003171708803E9B00831603173908803EF7
:1005C000831203171B02031DEB2A83160317380837
:1005D0008312031716020318002B1E308312031711
:1005E0009700E6309600803098001608FE00170845
:1005F000FF0018088A110A128C278A110A12D425C2
:10060000292683120317960183120313881D0B2BCF
:1006100083120317960A831203179801160897008E
:10062000013C9600160C0318182B83120313881133
:10063000031C1D2B831203138815572A83120313DF
:100640008811081583160317BA01BB0129261E302D
:100650008312031797007D309600803098001608AB
:10066000FE001708FF0018088A110A128C278A1149
:100670000A12FF308A110A1673258A110A123230C3
:10068000FF0000308A150A161F268A110A12FF3051
:100690008A110A1673258A110A123230FF000030BF
:1006A0008A150A161F268A110A12FF308A110A16A5
:1006B00073258A110A1283160317DB010A30831689
:1006C0000317DC00003083160317540403196C2B46
:1006D0005408033A031D9E2B831203138810003025
:1006E000831603175B04031D9E2B8A110A168725A8
:1006F0008A110A128A110A1600208A110A1283121C
:100700000313881B6F2B3230FF0000308A150A1646
:100710001F268A110A1283120313881B6F2B831260
:100720000313881F8F2B1E308A110A1673258A1116
:100730000A12013083160317DB006F2B08008316A3
:1007400003171F08831603173102031DAD2B8316F1
:1007500003171E088316031730020318C92B8316CC
:1007600003175308023A031DC92B1E3083120317C7
:100770009400B9309300803095001308FE001408EF
:10078000FF0015088A110A128C278A110A12D42533
:10079000862C831603173F08831603174902031D8F
:1007A000D72B831603173E08831603174802031C32
:1007B000042C0030831603175C04031D042CFF3047
:1007C0008A110A1673258A110A120130FF000030BF
:1007D000DE2529268830FF0013308A150A161F26C9
:1007E0008A110A120130FF000030DE2529268830E8
:1007F000FF0013308A150A161F268A110A120130CB
:1008000083160317DC00862C831603175C08031974
:10081000102C831603175C08013A03193A2C862C16
:10082000831603174508831603174B02031D1E2C5E
:10083000831603174408831603174A020318252C4E
:100840000130FF0000300826862C831603174B0862
:10085000831603174502031D332C831603174A081A
:100860008316031744020318862C0130FF00003062
:10087000DE25862C831603174908831603174102C9
:10088000031D482C831603174808831603174002DC
:1008900003184F2C0130FF000030DE25632C831637
:1008A00003174108831603174902031D5D2C8316A5
:1008B000031740088316031748020318632C0130FE
:1008C000FF00003008268316031747088316031716
:1008D0004B02031D712C831603174608831603175A
:1008E0004A020318862C1E30831203179400CB3063
:1008F0009300803095001308FE001408FF001508CF
:100900008A110A128C278A110A12D425080083162C
:1009100003171F08831603173102031D952C831636
:1009200003171E088316031730020318AB2C1E3062
:10093000831203179400B930930080309500130898
:10094000FE001408FF0015088A110A128C278A116C
:100950000A12D425D32D831603173F0883160317D5
:100960004902031DB92C831603173E08831603178B
:100970004802031CD62C83160317DE0A04305E02DD
:10098000031CD92C1E30831203179400C23093002D
:10099000803095001308FE001408FF0015088A1126
:1009A0000A128C278A110A12D425D32D8316031715
:1009B000DE01831603174C08831203179300831676
:1009C00003174D08831203179400130883160317A7
:1009D0001E06031DF32C8312031714088316031736
:1009E0001F060319AA2D831603171E088316031763
:1009F000CC00831603171F0883160317CD00831638
:100A000003175A08831203179300940100308316CA
:100A100003171F02031D122D8312031713088316D9
:100A200003171E02031C562D831603174F08803E22
:100A3000803E031D1D2D01304E02031C562DFF303C
:100A4000831603174E07831203179300FF30940099
:100A5000831603174F0803184F0A0319322D831208
:100A6000031794078316031717088312031714023A
:100A7000031D402D83160317160883120317130254
:100A8000031C562D1E308312031794006730930009
:100A9000803095001308FE001408FF0015088A1125
:100AA0000A128C278A110A12D425D32D8316031714
:100AB000160883160317CE0083160317170883162C
:100AC0000317CF00831603175108803E803E031D95
:100AD0006B2D01305002031C9E2D0330831603172B
:100AE00050078312031793009401940D8316031784
:100AF00051088312031794071408831603171D0265
:100B0000031D882D831203171308831603171C0275
:100B1000031C9E2D1E308312031794007230930025
:100B2000803095001308FE001408FF0015088A1194
:100B30000A128C278A110A12D425D32D8316031783
:100B40001C0883160317D000831603171D0883168D
:100B50000317D100831603174508831603174B02AA
:100B6000031DB82D831603174408831603174A0282
:100B70000318BF2D0130FF0000300826D32D831647
:100B800003174B08831603174502031DCD2D83164B
:100B900003174A088316031744020318D32D0130A4
:100BA000FF000030DE25080083160317BA01BB01E1
:100BB0002926013083160317DB0008008312031770
:100BC00091007F08900092001108831603173B02E2
:100BD000031DF02D831203171208831603173A0220
:100BE0000318F72D83160317BA01BB01072E8312D2
:100BF0000317100883160317BA028312031711088C
:100C0000031C110A0319072E83160317BB020800E1
:100C10008312031791007F0883160317BA07831204
:100C2000031711080318110A0319192E8316031745
:100C3000BB070130831603173B02031D212E003032
:100C40003A02031C282EFF3083160317BA00BB019B
:100C500008000310831603173B0C8312031791003F
:100C6000831603173A0C8312031790000310910C9C
:100C7000900C10088312031395000330831603179A
:100C80003A05831203179200900091010310120C91
:100C9000900001309005100C0318512E831203139D
:100CA0009712031C562E83120313971601308312DA
:100CB00003179205120C0318602E831203131712E8
:100CC000031C652E831203131716080003108316E6
:100CD00003173D0C831203179100831603173C0C76
:100CE0008312031790000310910C900C10088312CC
:100CF00003139B000330831603173C05831203176D
:100D00009200900091010310120C900001309005A8
:100D1000100C03188E2E831203139D12031C932EA6
:100D2000831203139D160130831203179205120CD0
:100D300003189D2E831203131D12031CA22E83126F
:100D400003131D160800352783160313EA00803E9F
:100D5000563E031CB32E6A08803E463E0318B32E4F
:100D60000F30EA05B72EFF3083160313EA0083160F
:100D700003136A080800C92683160313E800680EE7
:100D8000F039E900C92683160313E800E90469086D
:100D90000800352783160313E600803E563E031CE9
:100DA000D92E6608803E463E0318D92E0F30E60540
:100DB000FE2E831603136608803E3F3E031CE52E7D
:100DC0006608803E393E031CF12E83160313660825
:100DD000803E1F3E031CFA2E6608803E193E031813
:100DE000FA2E0930831603136607E7000F306705F4
:100DF000E600FE2EFF3083160313E600831603136E
:100E00006608080083120313981C082F181218167E
:100E1000831203138C1E0E2F1A080F2F00300800A8
:100E200083160313E301E401E50100308316031385
:100E30006304031D312F6408E83A031D232F65085E
:100E4000033A0319312F83160313E40A0319E50A41
:100E50008A110A1202278A110A1283160313E30069
:100E6000152F831603136308080083160313E2018A
:100E70000030831603136204031D472F8A110A12E0
:100E800002278A110A1283160313E200382F8316F1
:100E900003136208080083160313E000DF007F08D5
:100EA000DE00E101E01BE1036008702783160313F5
:100EB000DF015E08E0007027080083160313DD00E1
:100EC000803E763E031C672F3730DD076B2F3030B6
:100ED00083160313DD07831603135D08AE2708008E
:100EE00083160313DB005B0E0F39DC00F030DC19D6
:100EF000DC040F30DC055C088A110A125D278A11B8
:100F00000A120F30831603135B05DC008A110A12E4
:100F10005D278A110A12080083160313D9007F087F
:100F2000D8007E08D700831603135708FE00580820
:100F3000FF0059088A150A16A1258A110A1283167C
:100F40000313DA005A080319AD2F5A08AE27831687
:100F50000313D70A0319D80A932F08008316031323
:100F6000D600831203130C1EB12F831603135608E9
:100F7000831203139900080081308316031399002C
:100F8000181518120713871783120313981783165F
:100F900003130C128C121813831203131813181650
:100FA000831603139816080083160313EB007F08BB
:100FB000EC00ED010830EE00831603136B1CE22FEA
:100FC0006C08ED07831603136B08EF0003106F0C1A
:100FD000EB0003106C0DEF00EC00EE0BDC2F6D0846
:100FE00008004234613474347434653472347934B2
:100FF0002034543479347034653400342D34003462
:1010000083160313C301C401C5010130C600C70123
:10101000C80183160317D40183160313C901CA013B
:10102000CB01CC0183160313CD0108304802CE0159
:10103000CE0DFD304807CF0006304802D001D00D5C
:1010400003304802D101031C5114003083160313EE
:101050004D04031D862B46084406031D332847080C
:1010600045060319772A831603134408C60045086A
:10107000C7000130FF0000308A150A12D5268A15F4
:101080000A123230FF0000308A150A161F268A1510
:101090000A128030FF0000308A150A12D5268A1500
:1010A0000A12831603134E08031D442908308A00D0
:1010B0005F30480703188A0A8312031382006728E7
:1010C0008C28A328E628E628E628EF2832290730CE
:1010D00083160313D300F130D2008030D4005208BD
:1010E000FE005308FF0054088A150A1244268A1588
:1010F0000A12CA30FF0000308A150A12D5268A1556
:101100000A1283160313C901CA010530CB00CC01B2
:101110004408D200BE254429831603175308BE2570
:10112000C730FF0000308A150A12D5268A150A1228
:1011300083160313C901CA010530CB00CC01440852
:10114000D2004A254429831603175308BE251F30B1
:1011500083160313D3000130D2008030D40052082C
:10116000FE005308FF0054088A150A1244268A1507
:101170000A12C930FF0000308A150A12D5268A15D6
:101180000A1283160313C901CA016030CB00EA308A
:10119000CC000130FE004408FF0045088A110A1601
:1011A000DF228A150A121F3083160313D300AC30D6
:1011B000D2008030D4005208FE005308FF005408CB
:1011C0008A150A1244268A150A124429831603171F
:1011D0005308BE258316031754084A2544291E3098
:1011E00083160313D3005B30D2008030D400520842
:1011F000FE005308FF0054088A150A1244268A1577
:101200000A12CE30FF0000308A150A12D5268A1540
:101210000A128A110A1687258A150A1283160317DD
:101220005D0883160313D200D3010030FE0052087C
:10123000FF0000308A110A16DF228A150A121F30B9
:1012400083160313D300BF30D2008030D40052087D
:10125000FE005308FF0054088A150A1244268A1516
:101260000A1244291E3083160313D3004E30D200D5
:101270008030D4005208FE005308FF0054088A153D
:101280000A1244268A150A120030831603135104E9
:10129000031D772A5008031D772A09308A0056302B
:1012A0004F0703188A0A8312031382005929D02991
:1012B000192AC030FF0000308A150A12D5268A1577
:1012C0000A121F3083160313D3000A30D200803075
:1012D000D4005208FE005308FF0054088A150A1271
:1012E00044268A150A1283160313C901CA010B305A
:1012F000CB00CC01CC30FF0000308A150A12D52675
:101300008A150A120030831603134502031D8A2929
:101310000A3044020318BD291F3083160313D3007B
:10132000AF30D2008030D4005208FE005308FF00D6
:1013300054088A150A1244268A150A120030FE0043
:10134000831603134408FF0045088A110A16DF229A
:101350008A150A121F3083160313D300BF30D20040
:101360008030D4005208FE005308FF0054088A154C
:101370000A1244268A150A12772A1F30831603138D
:10138000D3007130D2008030D4005208FE005308E0
:10139000FF0054088A150A1244268A150A12772A71
:1013A000C030FF0000308A150A12D5268A150A12AD
:1013B0001E3083160313D300AF30D2008030D40028
:1013C0005208FE005308FF0054088A150A124426EA
:1013D0008A150A1283160313C901CA01E830CB002B
:1013E0000330CC00CA30FF0000308A150A12D5261F
:1013F0008A150A120030FE00831603134408FF000A
:1014000045088A110A16DF228A150A121F30831630
:101410000313D300B230D2008030D4005208FE0053
:101420005308FF0054088A150A1244268A150A1226
:10143000772AC030FF0000308A150A12D5268A1597
:101440000A12013083160313C900CA01053083163E
:10145000031753020318512A0A308A003530530704
:1014600003188A0A8312031382003A2A3A2A402A6E
:10147000462A4C2A0F3083160313CB00CC01512A85
:10148000023083160313CB00CC01512A053083169A
:101490000313CB00CC01512A093083160313CB0070
:1014A000CC011F3083160313D3006630D200803086
:1014B000D4005208FE005308FF0054088A150A128F
:1014C00044268A150A12CE30FF0000308A150A120F
:1014D000D5268A150A120030FE008316031344082D
:1014E000FF0045088A110A16DF228A150A128312A4
:1014F0000313881AD92A3230FF0000308A150A16E1
:101500001F268A150A1283120313881AD92A8316F2
:101510000313D201D3014308013A0319C92AD401A4
:10152000D50183120313881AB52A83160313D40A2C
:101530000319D50A5408D2005508D3000130FF0022
:1015400000308A150A161F268A150A1283160313FD
:101550005508803E793E031DAF2AD1305402031C4A
:10156000912A013083160313C30083160313530813
:10157000803E793E031DBE2AD03052020318C92A8C
:1015800083160313C3011E308A110A1673258A15A8
:101590000A128316031345084A02031DD12A440880
:1015A00049020318D92AFF3083160313C407031C0A
:1015B000C50383120313081B432B3230FF00003096
:1015C0008A150A161F268A150A1283120313081B8E
:1015D000432B83160313D201D3014308023A0319A4
:1015E0002B2BD401D50183120313081B172B831651
:1015F0000313D40A0319D50A5408D2005508D3009E
:101600000130FF0000308A150A161F268A150A12BB
:10161000831603135508803E793E031D112BD130EC
:101620005402031CF32A023083160313C3008316EB
:1016300003135308803E793E031D202BD030520205
:1016400003182B2B83160313C3011E308A110A16AD
:1016500073258A150A12FF30831603134B07D20035
:10166000FF30D3004C0803184C0FD3075308450232
:10167000031D3C2B520844020318432B831603130B
:10168000C40A0319C50A83120313881B642B83162B
:101690000313C3013230FF0000308A150A161F26DB
:1016A0008A150A1283120313881B642B83120313F7
:1016B000881F562B1E308A110A1673258A150A12A6
:1016C000013083160313CD0083120313081A252853
:1016D00083160313C3013230FF0000308A150A1647
:1016E0001F268A150A1283120313081A252883124B
:1016F0000313081E772B1E308A110A1673258A15CC
:101700000A12023083160313CD0025288316031313
:101710004D08013A031DB22C083048020318432D2E
:101720000B308A009930480703188A0A8312031382
:101730008200A12BB52BD62B1D2C492C602CA82C5C
:10174000AC2C831603134408CD008A110A16BD245D
:101750008A150A1283160313C80A8316031754083E
:1017600083160313C400C501432D831603134408D5
:1017700083160317D4005408043A0319CF2B831699
:101780000313C80A83160317220883160313C40021
:1017900083160317230883160313C500432D063051
:1017A00083160313C800C401C501432D8316031318
:1017B000440883160317A2008316031345088316F3
:1017C0000317A300043083160317540203180E2CCA
:1017D0000B308A00F130540703188A0A831203136E
:1017E0008200F52B022CF52BF52B8316031724080A
:1017F00083160313C40083160317250883160313E7
:10180000C5000E2C83160317260883160313C40085
:1018100083160317270883160313C50083160317BF
:101820005408013A0319182C83160313C80A432DD0
:10183000043083160313C800432D83160313440892
:1018400083160317A4008316031345088316031792
:10185000A500003083160317540403193D2C83168A
:101860000317260883160313C400831603172708DB
:1018700083160313C500C80A432D053083160313CE
:10188000C80083160317580883160313C400C50144
:10189000432D83160313440883160317A6008316EB
:1018A0000313450883160317A70083160313C80AFA
:1018B00083160317580883160313C400C501432D6C
:1018C00083160313440883160317D80004308316C5
:1018D000031754020318842C0C308A007530540707
:1018E00003188A0A831203138200792C7F2C792C27
:1018F0007F2C8A110A123F208A150A12842C8A151D
:101900000A161B228A150A12831603175408023A74
:10191000031D902C8A150A161B228A150A129B2C6D
:10192000831603175408033A031D9B2C8A110A12CD
:101930003F208A150A128312031388100811831698
:101940000317530883160313C400C501C801432DB0
:1019500083160313C80A432D83160313C801C40159
:10196000C501432D00308316031348040319432D8A
:101970004808063A031DBE2CC801432D83160313E5
:10198000C8030630480203183F2D0C308A00CE30C1
:10199000480703188A0A831203138200D42CDC2C14
:1019A000E42CF12C142D372D8316031753088316BE
:1019B0000313C400C501432D83160317540883166F
:1019C0000313C400C501432D831603172208831691
:1019D0000313C40083160317230883160313C500DB
:1019E000432D831603175408013A031D072D831650
:1019F0000313C80383160317220883160313C400B6
:101A000083160317230883160313C500432D83167B
:101A10000317240883160313C4008316031725082D
:101A200083160313C500432D003083160317540497
:101A3000031D2A2D83160313C803831603172408D6
:101A400083160313C4008316031725088316031394
:101A5000C500432D83160317260883160313C400FD
:101A600083160317270883160313C500432D831617
:101A70000317580883160313C400C501432D8316AA
:101A80000313C401C501FF3083160313C600C7004A
:101A90001228080083160313C00005304002031803
:101AA000BD2D0D308A005A30400703188A0A831270
:101AB000031382005F2D722D852D982DAB2D1F30C5
:101AC00083160313C1002330C0008030C2004008D9
:101AD000FE004108FF0042088A150A1244268A15B2
:101AE0000A12BD2D1E3083160313C1009130C000B1
:101AF0008030C2004008FE004108FF0042088A15FD
:101B00000A1244268A150A12BD2D1E3083160313AD
:101B1000C1009B30C0008030C2004008FE00410878
:101B2000FF0042088A150A1244268A150A12BD2DA2
:101B30001E3083160313C100A530C0008030C200E0
:101B40004008FE004108FF0042088A150A12442698
:101B50008A150A12BD2D1F3083160313C100603091
:101B6000C0008030C2004008FE004108FF0042086B
:101B70008A150A1244268A150A12080083160313CE
:101B8000C000053040020318312E0D308A00CE30DF
:101B9000400703188A0A831203138200D32DE62D0F
:101BA000F92D0C2E1F2E1F3083160313C100423057
:101BB000C0008030C2004008FE004108FF0042081B
:101BC0008A150A1244268A150A12312E1F308316EE
:101BD0000313C1004830C0008030C2004008FE003E
:101BE0004108FF0042088A150A1244268A150A1283
:101BF000312E1F3083160313C1004E30C0008030D9
:101C0000C2004008FE004108FF0042088A150A127F
:101C100044268A150A12312E1F3083160313C10081
:101C20005430C0008030C2004008FE004108FF0070
:101C300042088A150A1244268A150A12312E1F30CC
:101C400083160313C1005A30C0008030C200400820
:101C5000FE004108FF0042088A150A1244268A1530
:101C60000A12080083120317B200803E763E031C5E
:101C70003C2E3730B207402E303083120317B207A4
:101C8000831203173208080083120317B0007F087D
:101C9000AF007E08AE00831203172E08FE002F0847
:101CA000FF0030088A150A16A1258A150A12831228
:101CB0000317B10031080319672E3108FF00013006
:101CC000D52683120317AE0A0319AF0A4B2E08005C
:101CD00003308316031386050F30FF0000308A158A
:101CE0000A161F268A150A123030FF0000302A27F4
:101CF0000530FF0000308A150A161F268A150A12C1
:101D00003030FF0000302A2719308A150A1649267C
:101D10008A150A123030FF0000302A2719308A1540
:101D20000A1649268A150A122030FF0000302A2799
:101D300019308A150A1649268A150A122830FF001A
:101D40000030D52619308A150A1649268A150A1236
:101D50000130FF000030D5260230FF0000308A1528
:101D60000A161F268A150A120C30FF000030D526ED
:101D70000230FF0000308A150A161F268A150A1243
:101D80000630FF000030D5260A308A150A1649268B
:101D90008A150A120C30FF000030D5260A308A1549
:101DA0000A1649268A150A12080083120317AD0085
:101DB000AB007F08AC002D0C0318E12E8312031337
:101DC0000611031CE62E831203130615F03083124E
:101DD00003172C05AB000F30831203130605831283
:101DE0000317AD002B048312031386008615000031
:101DF00000000000000083120313861183120317F2
:101E00002C0EF039AD00F0302D05AB000F308312F1
:101E10000313060583120317AC002B04831203136C
:101E200086008615000000000000000083120313E6
:101E300086111E3083120317AB00AC010000FF3087
:101E400083120317AB07031CAC032B082C04031DE0
:101E50001E2F080083120317AA00A8007F08A900FC
:101E60002A0C0318362F831203130611031C3B2F71
:101E70008312031306150F30831203130605831212
:101E80000317A80029048312031386008615000097
:101E90000000000000008312031386110800831263
:101EA0000317C500C730831203139F050730831241
:101EB0000317C5050310450DC6000310C60D03101A
:101EC000C60D4608831203139F041E308A150A1696
:101ED00049268A150A12831203131F15080083125C
:101EE0000317C100C730831203139F050730831205
:101EF0000317C1050310410DC2000310C20D0310EA
:101F0000C20D4208831203139F041E30FF000030ED
:101F10008A150A161F268A150A12831203131F1523
:101F2000831203131F19902F1E0883120317C40076
:101F3000C100C201C301831603131E0883120317D5
:101F4000C100C2014108C3040030C4044308FF00BB
:101F500044080800831203131F10831603130C1385
:101F6000080083120317BD007F08BE007E08BF0073
:101F7000831203139F010330831203173D05C00032
:101F8000400EF039831203139F0003109F0D0310BE
:101F90009F0D0F3083120317BE0580303E04831659
:101FA00003139F00831203173D1DD92F83160313BC
:101FB0001F17831203173F1CE62F831203130C1302
:101FC000831603130C17831203130B1783120313C7
:101FD0001F1408004234613474347434653472342C
:101FE000793420344334683461347234673465346E
:101FF0007234003423344334483452343A34003495
:102000000A30FD000030FE00831603174A08FF0067
:102010004B088A110A169B278A110A16831203138A
:10202000E8007F08E700831603175C080A3A0319E3
:10203000AD281F3083120313EA00B730E900803067
:10204000EB006908FE006A08FF006B088A110A129B
:102050008C278A110A16831603171E08FF001F0813
:102060005A221F3083120313EA00B930E90080308E
:10207000EB006908FE006A08FF006B088A110A126B
:102080008C278A110A168316031757088312031325
:10209000E900EA016908FF0000305A221F3083126C
:1020A0000313EA00BB30E9008030EB006908FE0052
:1020B0006A08FF006B088A110A128C278A110A1617
:1020C000831603174808FF0049085A221F3083125D
:1020D0000313EA007630E9008030EB006908FE0067
:1020E0006A08FF006B088A110A128C278A110A16E7
:1020F000831203136708FF0068085A221F308312F7
:102100000313EA007A30E9008030EB006908FE0032
:102110006A08FF006B088A110A128C278A110A16B6
:10212000831603175D0883120313E900EA016908A7
:10213000FF0000305A221F3083120313EA007E3062
:10214000E9008030EB006908FE006A08FF006B08B8
:102150008A110A128C278A110A168030FF0000307B
:102160008A150A12D5268A110A16831603175308F0
:102170008A150A12BE258A110A160430831603171F
:10218000540203187B2910308A00CC3054070318FE
:102190008A0A831203138200D028E328F6283929FB
:1021A0001F3083120313EA008230E9008030EB0015
:1021B0006908FE006A08FF006B088A150A124426A7
:1021C0008A110A167B291F3083120313EA00863016
:1021D000E9008030EB006908FE006A08FF006B0828
:1021E0008A150A1244268A110A167B2983160317B8
:1021F000571C26290030831603175504031D132985
:102200001F3083120313EA008A30E9008030EB00AC
:102210006908FE006A08FF006B088A150A12442646
:102220008A110A167B291F3083120313EA008E30AD
:10223000E9008030EB006908FE006A08FF006B08C7
:102240008A150A1244268A110A167B291F30831226
:102250000313EA009230E9008030EB006908FE00C9
:102260006A08FF006B088A150A1244268A110A16AA
:102270007B2983160317571C69290030831603171F
:102280005504031D56291F3083120313EA009630AC
:10229000E9008030EB006908FE006A08FF006B0867
:1022A0008A150A1244268A110A167B291F308312C6
:1022B0000313EA009A30E9008030EB006908FE0061
:1022C0006A08FF006B088A150A1244268A110A164A
:1022D0007B291F3083120313EA009E30E90080300F
:1022E000EB006908FE006A08FF006B088A150A12F5
:1022F00044268A110A161F3083120313EA00A630FF
:10230000E9008030EB006908FE006A08FF006B08F6
:102310008A150A1244268A110A162030FC0004305D
:10232000FD000030FE00831203136708FF006808F9
:1023300089221F3083120313E800A930E7008030A0
:10234000E9006708FE006808FF0069088A150A129C
:1023500044268A110A16C030FF0000308A150A127E
:10236000D5268A110A162030FC000530FD00003009
:10237000FE00831603174808FF00490889221F3012
:1023800083120313E8007630E7008030E900670825
:10239000FE006808FF0069088A150A1244268A119F
:1023A0000A16831603175C080A3A031DEA291F3030
:1023B00083120313E800A230E7008030E9006708C9
:1023C000FE006808FF0069088A150A1244268A116F
:1023D0000A160D2A831603175D0883120313E700FC
:1023E000E8012030FC000230FD000030FE006708EC
:1023F000FF00003089221F3083120313E800BD3034
:10240000E7008030E9006708FE006808FF006908FF
:102410008A150A1244268A110A163C30FD00003043
:10242000FE00831603171E08FF001F088A110A16F4
:102430009B278A110A1683120313E8007F08E7001E
:102440002030FC000230FD000030FE006708FF0075
:10245000680889221F3083120313E800B930E700AF
:102460008030E9006708FE006808FF0069088A15E7
:102470000A1244268A110A163C30FD000030FE0084
:10248000831603171E08FF001F088A150A165E250B
:102490008A110A1683120313E8007F08E700303020
:1024A000FC000230FD000030FE006708FF006808F5
:1024B0008922080083120313E0007F08DF00013047
:1024C000E2003330E1000030F9000A30FA00003059
:1024D000FB006108FC006208FD000030FE005F08A0
:1024E000FF0060088A150A1658208A110A16013062
:1024F00083120313E0003330DF00E1015F08FE00C8
:102500006008FF0000308A110A128C278A110A160F
:10251000080083120313E0007F08DF007E08E2005A
:102520007D08E1007C08E3000130E5003330E40081
:10253000E6010030F9000A30FA000030FB006408C0
:10254000FC006508FD000030FE005F08FF00600829
:102550008A150A1658208A110A16013083120313AD
:10256000E0006930DF00E4010130E6003330E500CF
:102570006308F8006108F9006208FA006508FB00CA
:102580006608FC000030FD005F08FE006008FF00E8
:1025900000308A150A16B8218A110A16831203130D
:1025A000E1007F08E0007E08DF00FE006008FF0019
:1025B00061088A150A1244268A110A160800831235
:1025C0000313DB007F08DA007E08DC000130DE0048
:1025D0003330DD005C08F9000A30FA000030FB00FF
:1025E0005D08FC005E08FD000030FE005A08FF0098
:1025F0005B088A150A1658208A110A1601308312C0
:102600000313DB003330DA00DC015A08FE005B08FC
:10261000FF0000308A150A1244268A110A160800A3
:1026200083120313D6007F08D500053083160317E5
:1026300053020318872B13308A00243053070318E2
:102640008A0A831203138200292B3C2B4F2B622B07
:10265000752B173083120313D800FA30D70080305F
:10266000D9005708FE005808FF0059088A110A12BD
:102670008C278A110A16872B1F3083120313D80068
:102680002A30D7008030D9005708FE005808FF00D4
:1026900059088A110A128C278A110A16872B1F30B3
:1026A00083120313D8006C30D7008030D90057084C
:1026B000FE005808FF0059088A110A128C278A1157
:1026C0000A16872B1F3083120313D8003030D7002F
:1026D0008030D9005708FE005808FF0059088A11B9
:1026E0000A128C278A110A16872B1F3083120313B4
:1026F000D8003630D7008030D9005708FE0058087F
:10270000FF0059088A110A128C278A110A168316AB
:1027100003172208FF0023088A110A165A228A1179
:102720000A16073083120313D800FE30D70080301A
:10273000D9005708FE005808FF0059088A110A12EC
:102740008C278A110A16831203135508FF005608B6
:102750008A110A165A228A110A16073083120313A5
:10276000D600FE30D5008030D7005508FE00560850
:10277000FF0057088A110A128C278A110A1683163D
:102780000317580883120313D500D6015508FF001C
:1027900000308A110A165A228A110A161F30831233
:1027A0000313D600B530D5008030D7005508FE00A1
:1027B0005608FF0057088A110A128C278A110A1638
:1027C0000800831203138B13D030FF0007308A15E3
:1027D0000A161F268A110A16FF3083160313850076
:1027E000013086008701F03088008901F430FF0055
:1027F00001308A150A161F268A110A16831203133E
:10280000850186018701880189018A110A12BC2786
:102810008A110A161F3083160313B6001330B50051
:102820008030B7003508FE003608FF0037088A11EF
:102830000A128C278A110A16831603179801990128
:10284000831603179A019B010030FE000230FF003F
:1028500002308A150A12B1278A110A164D308316E2
:1028600003139200053083120313920095010C307C
:1028700097009B010C309D00FA30FF0000308A1554
:102880000A161F268A110A16883083160317A0001D
:102890001330A1008312031386148A150A126826C6
:1028A0008A110A160130FF0000308A150A12D52657
:1028B0008A110A16E830FF0003308A150A161F260F
:1028C0008A110A160F3083160313B600EA30B500DA
:1028D0008030B7003508FE003608FF0037088A153B
:1028E0000A1244268A110A160A30FF0000308A159F
:1028F0000A161F268A110A16C030FF0000308A15FA
:102900000A12D5268A110A160A30FF0000308A15ED
:102910000A161F268A110A16173083160313B600EB
:10292000EA30B5008030B7003508FE003608FF00F9
:1029300037088A150A1244268A110A1683160317C5
:10294000BA01BB0183160317BC01BD018830FF002B
:1029500013308A150A161F268A110A1606308316A6
:1029600003138100831203138B160B118B178A1527
:102970000A1200208A110A16080083160317D300D2
:10298000283083160317B600B701053083160317E6
:10299000B800B901643083160317A600A7010530FB
:1029A0008316031753020318722D14308A00DE3089
:1029B000530703188A0A831203138200E32CE32CC3
:1029C0000B2D312D522D193083160317A200A301B0
:1029D000023083160317D8000A3083160317A400A9
:1029E000A501903083160317A8000630A900E8302F
:1029F00083160317AA000330AB00143083160317A5
:102A0000D9000A3083160317DA000A308316031739
:102A1000B200B301722D0C3083160317A200A3017C
:102A2000063083160317D800013083160317A4005D
:102A3000A501C43083160317A8000930A9009230FD
:102A400083160317AE000930AF00823083160317D8
:102A5000AA000630AB001E3083160317B400B50180
:102A6000722D463083160317A200A3010630831689
:102A70000317D8000A3083160317A400A501683095
:102A800083160317A8001030A900683083160317B7
:102A9000AE001030AF00C43083160317AA0009300F
:102AA000AB00722D093083160317A200A301013079
:102AB00083160317D800033083160317A400A5015B
:102AC000683083160317A8001030A90068308316F9
:102AD0000317AE001030AF00C43083160317AA00EE
:102AE0000930AB00080083160313B40083120313EC
:102AF0008716831603133408FF0000308A150A1660
:102B00001F268A110A168312031387120800013048
:102B100009268316031799007F08980002300926BA
:102B2000831603179B007F089A000330092683163B
:102B300003179D007F089C000030092683160317A9
:102B400097007F0896001608FD001708FE00143055
:102B5000FF0000308A150A16E1258A110A1683162D
:102B60000317C9007F08C800831603171C08FD005F
:102B70001D08FE003530FF0000308A150A16E125D9
:102B80008A110A1683160313B3007F08B20064305B
:102B9000FD000030FE003208FF0033088A110A16DB
:102BA0009B278A110A1683160313B3007F08B2000D
:102BB00083160317DD000030831603175504031D29
:102BC000F52D831603171808FD001908FE0047307D
:102BD000FF0000308A150A16E1258A110A168316AD
:102BE0000317CB007F08CA00082E831603171A08A4
:102BF000FD001B08FE001230FF0000308A150A1687
:102C0000E1258A110A1683160317CB007F08CA0034
:102C1000080083160317D20083160313A900AA0124
:102C2000AB01AC01AD012908031D4F2E831603171C
:102C30003A0883160313AA00831603173B0883166A
:102C40000313AB00831603173C0883160313AC0071
:102C5000831603173D0883160313AD00831603176D
:102C6000BA01BB0183160317BC01BD018A110A1208
:102C700029268A110A168A110A1266268A110A164C
:102C8000AA260030831603175504031D4F2E643007
:102C9000FF0000308A150A161F268A110A168316AD
:102CA0000313AE01AF010830B000003083160313E8
:102CB000300403196E2E8316031752088A150A1260
:102CC0006F278A110A1683160313B1007F08AE0717
:102CD00031080318310FAF07B003552E0830FD003F
:102CE0000030FE00831603132E08FF002F088A15FC
:102CF0000A1634248A110A1683160313AF007F08BC
:102D0000AE002908031DA42E2A0883160317BA0053
:102D1000831603132B0883160317BB0083160313B4
:102D20002C0883160317BC00831603132D08831683
:102D30000317BD008A110A1229268A110A168A1160
:102D40000A1266268A110A16831603132E08FF003C
:102D50002F0808000A3083160313A000A101A20166
:102D6000A3010130831603132207A400A501A50DBA
:102D70002308A5072508803EA6002108803E2602DC
:102D8000031DC42E20082402031C9A2F831603134C
:102D90003C0883160313A400831603133D0883160F
:102DA0000313A500240883160313BE008316031320
:102DB000250883160313BF003A0883160313A400E3
:102DC000831603133B0883160313A50024088316F8
:102DD0000313BC0083160313250883160313BD00D9
:102DE000380883160313A4008316031339088316C7
:102DF0000313A500240883160313BA0083160313D4
:102E0000250883160313BB008316031752088A157F
:102E10000A126F278A110A1683160313A5007F086A
:102E2000A40083160313B800831603132508831622
:102E30000313B900380883160313A2008316031383
:102E4000390883160313A300831603133808831667
:102E50000313A00083160313390883160313A1007C
:102E6000A401831603132408803E7C3E0318B12E70
:102E70000230FF0024088A110A12D4278A110A1688
:102E800083160313A500B83EA50000300318013EC9
:102E9000A600250884008313261883170008A700BE
:102EA000840A0008A80084032108803EA90028089D
:102EB000803E2902031D5E2F270820020318662F7B
:102EC000831603132708A0002808A1000230FF0082
:102ED0008316031324088A110A12D4278A110A16AA
:102EE00083160313A500B83EA50000300318013E69
:102EF000A600250884008313261883170008A7005E
:102F0000840A0008A80084032808803EA90023083A
:102F1000803E2902031D8E2F220827020318962FB8
:102F2000831603132708A2002808A300831603139F
:102F3000A40A312F080083120317C8007F08C700B6
:102F40007E08CA007D08C900CB01CC010130CD004C
:102F5000CE0149084A04031DB12FFF30FF00FF30A6
:102F6000E92F8312031749084A08CF00CF1BBF2F50
:102F70000310C90DCA0D0310CD0DCE0DB12F831254
:102F800003174D084E040319E42F4A084802031D95
:102F9000CB2F49084702031CDB2F831203174D0870
:102FA000CB074E0803184E0FCC074908C7024A0842
:102FB000031C4A0FC802031083120317CA0CC90C62
:102FC0000310CE0CCD0CBF2F831203174B08FF004C
:102FD0004C080800463465346C34693478346C34F9
:102FE00073342034323430343034393420343A3489
:102FF000293400344E344934433444342D340034BD
:1030000083120313CD007F08CC007E08D0007D081A
:10301000CF007C08CE007B08D2007A08D1000314D0
:10302000CD1F0310031C452851080A3A031D4528EB
:103030005208003A031D45282D30FD004E08FE00C1
:103040004F08FF0050088A150A16D5258A150A165A
:1030500083120313CE0A0319CF0A4C09D3004D097A
:10306000D400D30A0319D40A0030F9005108FA0039
:103070005208FB004E08FC004F08FD005008FE00FF
:103080005308FF005408582057280030F9008312D5
:1030900003135108FA005208FB004E08FC004F08C9
:1030A000FD005008FE004C08FF004D0858200800A5
:1030B00083120313BD007F08BC007E08C0007D089A
:1030C000BF007C08BE007B08C600C2007A08C500AD
:1030D000C1007908C3001030C40083120313C40375
:1030E00044083E07C7003F080318013EC8004008D7
:1030F0000318013EC9004108FD004208FE003C08DB
:10310000FF003D088A150A165E258A150A167F08F3
:1031100083120313CA00CB0030304B07CA00FD00F6
:103120004708FE004808FF0049088A150A16D525F9
:103130008A150A16831203134708FE004808FF0089
:1031400049088A150A16A1258A150A16831203133F
:10315000CA00803E463E031CC8284708FE004808B7
:10316000FF0049088A150A16A1258A150A16831236
:103170000313CA000730CA074A08FD004708FE00CB
:103180004808FF0049088A150A16D5258A150A1627
:1031900083120313C3030314C31F03100318E82887
:1031A000C40344083E07C7003F080318013EC80097
:1031B00040080318013EC9002E30FD004708FE00FC
:1031C0004808FF0049088A150A16D5258A150A16E7
:1031D000831203134508FD004608FE003C08FF006B
:1031E0003D088A110A169B278A150A1683120313B3
:1031F000BD007F08BC003D04031D6D28BC014408D0
:10320000BD00831203133C08C100BC0A41083E07FD
:10321000C1003F080318013EC20040080318013EE8
:10322000C3003D08C400BD0A44083E07C4003F086F
:103230000318013EC50040080318013EC6004408BB
:10324000FE004508FF0046088A150A16A1258A15C2
:103250000A1683120313C700FD004108FE0042084E
:10326000FF0043088A150A16D5258A150A1610305C
:10327000831203133D02031C01293C08BE073F08CB
:103280000318013EBF0040080318013EC000003093
:10329000FD003E08FE003F08FF0040088A150A16A0
:1032A000D5258A150A16080083120313BA00B40044
:1032B0007F08B900B3007E08B800B2007D08B700EF
:1032C0007C08B6007B08B500831203133508FE00A6
:1032D0003608FF0037088A150A16A1258A150A162E
:1032E00083120313BB00B50A0319B60A3B08FD009D
:1032F0003808FE003908FF003A088A150A16D52555
:103300008A150A1683120313B80A0319B90A3B086F
:10331000031D64293208FE003308FF00340808004A
:1033200083120313AE007F08AD007E08AC00AF012E
:10333000B001831203132C08FE002D08FF002E0895
:103340008A150A16A1258A150A1683120313B100DD
:10335000AC0A0319AD0A31080319B229AF0A0319DF
:10336000B00A9929831203132F08FF0030080800C0
:1033700083120313A2007F08A1007E08A0007D082D
:10338000A5007C08A4007B08A3007A08A7007908A0
:10339000A6007808A8002308FE002408FF002508DE
:1033A0008A150A1690218A150A1683120313AA0099
:1033B0007F08A900A6022A08031C2A0FA7022008DA
:1033C000A9002108AA002208AB00831203132608D3
:1033D00027040319012A2808FD002908FE002A08ED
:1033E000FF002B088A150A16D5258A150A1683129E
:1033F0000313A90A0319AA0AFF30A607031CA7038F
:10340000E529831203132308FB002408FC00250888
:10341000FD002908FE002A08FF002B088A150A165D
:1034200054218A150A16831203132008FE0021086E
:10343000FF002208080083160317DB018316031719
:10344000BA01BB0183160317BC01BD018A110A1220
:1034500029268A150A168A110A1266268A150A165C
:103460008A110A1687258A150A1683160317480833
:103470004904031D482A831603174A084B040319FD
:10348000482AFF308A110A1673258A150A16E82B76
:10349000013083160317D50083160317D601831650
:1034A0000317D701831603179E019F01831203138D
:1034B000081183160317580883120317DC00DD0177
:1034C0005C08FD000030FE00831603172A08FF0089
:1034D0002B088A150A16E1258A150A168316031782
:1034E000C3007F08C200831603172608FD002708C3
:1034F000FE000A30FF0000308A150A16E1258A1501
:103500000A1683120317DD007F08DC008312031301
:1035100088141F3083120317DF003C30DE00803038
:10352000E0005E08FE005F08FF0060088A110A12D2
:103530008C278A150A16831603172608FF0027080A
:103540008A110A1610238A150A1683160317DC013E
:103550000030831603175B04031D642B8A110A16BF
:1035600000208A150A1683120313881BE32A3230BF
:10357000FF0000308A150A161F268A150A168312C4
:103580000313881BE32A83120313881FC32A6430A2
:103590008A110A1673258A150A161E30831203171C
:1035A000DF00EF30DE008030E0005E08FE005F08E4
:1035B000FF0060088A110A128C278A150A1601304A
:1035C00083160317DB000030831603175B04031D0B
:1035D000A82A8A110A1687258A150A168316031740
:1035E0004308831603174902031DFC2A8316031799
:1035F00042088316031748020318192B1E30831242
:103600000317DF00F830DE008030E0005E08FE00C7
:103610005F08FF0060088A110A128C278A150A16B3
:1036200083160317BC01BD01013083160317DB00AD
:10363000422B831203175D08831603174B02031DE9
:10364000272B831203175C08831603174A020318FB
:103650002E2B0130FF0000301324422B831603175A
:103660004B08831203175D02031D3C2B83160317BF
:103670004A08831203175C020318422B0130FF0033
:103680000030E9238A110A1266268A150A16831267
:103690000317DE0183120313881D512B83120317B6
:1036A000DE0A83120317E0015E08DF00013CDE0042
:1036B0005E0C03185E2B831203138811031C632B0B
:1036C000831203138815A82A83120313881108157F
:1036D00083160317BC01BD018A110A1266268A15DA
:1036E0000A161E3083120317DD008730DC0080309D
:1036F000DE005C08FE005D08FF005E088A110A1209
:103700008C278A150A16FF308A110A1673258A1526
:103710000A163230FF0000308A150A161F268A1555
:103720000A16FF308A110A1673258A150A163230D6
:10373000FF0000308A150A161F268A150A16FF3068
:103740008A110A1673258A150A1683160317DB01D8
:103750000A3083160317DC00831603175408013A56
:103760000319B62B5408023A031DE82B83120313E6
:1037700088100030831603175B04031DE82B8A11A1
:103780000A1687258A150A168A110A1600208A1534
:103790000A1683120313881BB92B3230FF00003046
:1037A0008A150A161F268A150A1683120313881B08
:1037B000B92B83120313881FD92B1E308A110A16C6
:1037C00073258A150A16013083160317DB00B92BFF
:1037D000080083120317D9007F08DA00DB005908BC
:1037E000831603173D02031DFB2B831203175B088F
:1037F000831603173C020318022C83160317BC011F
:10380000BD01122C831203175A0883160317BC023A
:10381000831203175908031C590A0319122C831623
:103820000317BD02080083120317D9007F0883160F
:103830000317BC078312031759080318590A031901
:10384000242C83160317BD070130831603173D028E
:10385000031D2C2C00303C02031C332CFF3083163C
:103860000317BC00BD01080083120317E2007F08A4
:10387000E1007E08E4007D08E3000314E21F03106A
:10388000031C8C2C0314E41F0310031C692C610916
:10389000E5006209E600E50A0319E60A6309E700A4
:1038A0006409E800E70A0319E80A6708FD006808E8
:1038B000FE006508FF0066088A110A169B278A1514
:1038C0000A1683120317E6007F08E500FF0066086A
:1038D000C92C831203176109E5006209E600E50AB5
:1038E0000319E60A6308FD006408FE006508FF008E
:1038F00066088A110A169B278A150A16831203176F
:10390000E6007F08E500E509E609E50A0319E60A8D
:103910006508FF006608C92C031483120317E41F0F
:103920000310031CB42C6309E5006409E600E50AF2
:103930000319E60A6508FD006608FE006108FF003D
:1039400062088A110A169B278A150A168312031722
:10395000E6007F08E500E509E609E50A0319E60A3D
:103960006508FF006608C92C831203176308FD0071
:103970006408FE006108FF0062088A110A169B278E
:103980008A150A1683120317E2007F08E100FF0080
:10399000620808001B30FE001F30FF0080308A15CF
:1039A0000A16B4258A150A16831203179D007F088C
:1039B0009C001D309E001F309F00831203171C08BF
:1039C000A0001D08A100FF309C07031C9D032008D8
:1039D000210403195A2D04301E07A000A101A10DD6
:1039E0001F08A1072008FE002108FF0080308A156B
:1039F0000A16B4258A150A1683120317A3007F0836
:103A0000A2001E08FE001F08FF0080308A150A165B
:103A1000B4258A150A1683120317A500A1007F0892
:103A2000A400A00002301E07A000A101A10D1F08E4
:103A3000A1072008FE002108FF0080308A150A1621
:103A4000B4258A150A1683120317A100A7007F0860
:103A5000A000A600831203172208A6002308A700CF
:103A6000FF30A207031CA303260827040319532DC4
:103A70002408FE002508FF0080308A150A16A125BB
:103A80008A150A1683120317A600200884008313E0
:103A90002118831726088000A40A0319A50AA00A82
:103AA0000319A10A2A2D0630831203179E07031853
:103AB0009F0ADD2C8A110A16E12B080083160317D2
:103AC00091007F0890007E0893007D089200130407
:103AD000031D6E2DFF30FF00FF30A02D0130831637
:103AE0000317940083160317120813089500951BFB
:103AF0007E2D0310920D930D940A722D00308316C3
:103B00000317140403199B2D13081102031D8A2D9A
:103B100012081002031C942D83160317120890023A
:103B20001308031C130F9102031083160317930C41
:103B3000920C94037E2D831603171008FF001108C2
:103B40000800003A0319A82D803A0319AF2D00345C
:103B50007E08840083137F188317000808007F08FD
:103B60008A007E0882000800003A0319BC2D803AC2
:103B70000319C62DFF0100347E08840083137F18CB
:103B800083170008FF00840A000808008A150A1637
:103B9000AF25FD00FE0FFF03FF0A8A150A16AF25A9
:103BA000FC007D08FF007C080800003A0319D92DAD
:103BB00008007E08840083137F1883177D08800027
:103BC000080083120317D1007F08D0007E08D300BD
:103BD0007D08D200D401D5010830D6008312031726
:103BE000501CF82D5208D40753080318530FD5075B
:103BF000831203175008D7005108D8000030D81B93
:103C0000FF30581C0B2ED7010030D4075208D800C3
:103C10000318580FD507831203175008D70051080F
:103C2000D8000310580CD100570CD0000310D20D4F
:103C3000D30DD60BEE2D5408FF0055080800831253
:103C40000313ED007F08EC00FD006D08FE000A3054
:103C5000FF0000308A150A16E1258A150A1683121C
:103C60000313ED007F08EC00EE01EF018312031354
:103C70006D086F02031D3E2E6C086E020318482E5D
:103C80002130492683120313EE0A0319EF0A362E58
:103C90000800013C013E031C4A2E080056346534DE
:103CA0007234733469346F346E343A3420343134BE
:103CB0002E3430340034543445344D34503445348B
:103CC000523441345434553452344534003423345E
:103CD00045344E3444343A34443456344434543401
:103CE0000A340034233445344E3444343A344434B2
:103CF0005434443454340A34003423344334483480
:103D000052342D3445344E3444340A340034233490
:103D10004434493453342D3445344E3444340A3415
:103D200000344434493453344334483441345234F5
:103D30004734453400344334593443344C344534E7
:103D4000203443342D344434003443345934433420
:103D50004C344534203444342D344334003444341A
:103D60005334433448342E3443345534523452346B
:103D70000034233445344E3444343A3454344F34CC
:103D80000A340034233445344E3444343A345634FF
:103D90004D340A340034233445344E3444343A34F8
:103DA000433443340A340034233445344E344434E9
:103DB0003A34553443340A340034233445344E34D1
:103DC00044343A34483454340A34003423344534C7
:103DD0004E3444343A344C3454340A3400342334AA
:103DE00045344E3444343A34553443340A34003480
:103DF000233445344E3444343A34443443340A345E
:103E0000003443346134703461346334693474345D
:103E1000793400344334483452342E3443345534E6
:103E20005234523400342334483465346C346C34A6
:103E30006F340A34003401340034C1341F34E034A8
:103E4000013401340034433448344134523447346B
:103E5000453400344E3449344D3448342D34003424
:103E60004C34493450344F342D3400344C344934BC
:103E700049344F342D3400342334443449345334DA
:103E80002D3400344E3469344334643420340034E7
:103E90004E3469344D3448342034003453344C3477
:103EA00041342034203400344C34693450346F347D
:103EB000203400344C34693449346F3420340034B5
:103EC0005334453454345534503400344334453439
:103ED0004C344C345334003453344C3441342D344A
:103EE000003431342E343034433400346D3456349D
:103EF000203400346D3441342034003443342034D1
:103F00000A340034433448344734003444344934A8
:103F10005334003420342D344434003443342D34AD
:103F20002034003443342D344434003444342D34AC
:103F30002034003420342D344334003444342D34C0
:103F40004334003445344E34443400342034203477
:103F500000346D344134003441346834003430343A
:103F60002E3400346D34413400340A3400343E348D
:103F700000343A34003420340034433400344334C1
:043F800000340034D5
:02400E00323F3F
:00000001FF
