:020000040000FA
:040800000BEF04F006
:080808000001E950776FEA508E
:10081000786F2CEF11F0FBEF04F0120100020200E0
:100820000008D8040A000100010200010902430087
:1008300002010080320904000001020201000524C7
:100840000010010424020205240600010524010011
:10085000010705820308000209040100020A0000E2
:1008600000070503020800000705830208000000D6
:100870000403090436034D006900630072006F0031
:100880006300680069007000200054006500630088
:1008900068006E006F006C006F00670079002C002C
:1008A000200049006E0063002E001E034A00410034
:1008B0004C004C00490042002000530065007200CB
:1008C000690061006C002E00010000000A000000B9
:1008D00064000000E803000010270000A08601006B
:1008E00040420F008096980000E1F50500CA9A3B4F
:1008F000555342204C43204D65746572202D20468F
:10090000656C69786C73203230313100200E726F63
:10091000D890683769376A376B37D8906037613756
:1009200062376337D8A09DEF04F0645168276551A2
:10093000692366516A2367516B23722F88EF04F095
:100940001200200E726F646B656B666B676BD890DC
:100950006C376D376E376F37D890603761376237D5
:100960006337643765376637673767516B5DD8A47F
:10097000C6EF04F066516A5DD8A4C6EF04F0655175
:10098000695DD8A4C6EF04F06451685DD8B4CCEFBB
:1009900004F0D8B0DAEF04F0D88064516855646F81
:1009A00065516955656F66516A55666F67516B553C
:1009B000676F6C81722FA7EF04F0120076BFF4EF1F
:1009C00004F076BDEAEF04F07551EA6E7451E96EF9
:1009D000EF5012007451F66E7551F76E76513F0B61
:1009E000F86E0800F55012001200FB6E0001755100
:1009F000FA6E7451F96E4BEF05F09251976F935167
:100A0000986F9C6B9D6B15EF05F00001090E606FF0
:100A1000B70E616F612F0AEF05F0602F08EF05F048
:100A2000000001019C2BD8B49D2B9C51975D0001C7
:100A3000606F01019D51985D00016011D8A405EF20
:100A400005F012008B518E6F8C518F6F946B956BEC
:100A50003EEF05F00001110E606F570E616F6F0ED3
:100A6000626F622F31EF05F0612F2FEF05F0602FDD
:100A70002DEF05F00101942BD8B4952B94518E5D88
:100A80000001606F010195518F5D00016011D8A4D4
:100A90002AEF05F01200D96BF4EF05F0C36FBE51D9
:100AA000E16EBF51E26EC351C56FC46B68EF05F0D4
:100AB000C051C425746F000E5E6EC1515E20756F0B
:100AC000C2515E20766FDEEC04F0E66E0001C42BAE
:100AD000C451C55DD8A458EF05F01200040104BF4D
:100AE00012000001D851D55DD8B47CEF05F0D8B024
:100AF0007CEF05F0D551D86FD880D851D655C66F48
:100B0000C651D75DD8B48AEF05F0D8B08AEF05F0AA
:100B1000D751C66F780ED6250401066F000E5E6EA3
:100B2000040E5E20076F0001C6510401056F04AD7D
:100B30009EEF05F0880E046FA0EF05F0C80E046F5D
:100B40000001C651D627D651D85D1200080ED76FC6
:100B5000D66BD86BD56B0401049D6EEF05F0C76FA3
:100B6000C7510401786F080E0001D76FD66B010ED4
:100B7000D86F010ED56F0401049D6EEF05F0840E51
:100B8000040100131200080E0401016F200E026F11
:100B9000040E036F030E0001DB5DD8A4D6EF05F051
:100BA0008C0EBA6F0401046BD8EF05F0C80EBA6F53
:100BB0000001BA510401006F1200CF6FD890CF35F9
:100BC000D26FD890D237D890D237D229D16F04EED5
:100BD00000F0D151E926D051EF6E04EE00F0D25171
:100BE000E926800EEF6E1200DD6B01017E9100019F
:100BF000806B816B826B836B100E846FF8EF10F04B
:100C00000401F9510001C86F210EC85DD8A40BEF93
:100C100006F0050EDB6F120004011CBF14EF06F096
:100C20000001CE9116EF06F00001CE81CEB1120088
:100C30008051815DD8A424EF06F001017EA112004D
:100C40000001C96B36EF06F08051815DD8B432EFF8
:100C500006F0D8B032EF06F0D88080518155C96FC8
:100C600036EF06F0D880200E8155C96F080EC95D99
:100C7000D8B440EF06F0D8A040EF06F0080EC96FD8
:100C8000C951CC6FCB6B55EF06F08151CB25CA6FA4
:100C900000EEDEF0CA51E926EF50606F04EE58F026
:100CA000CB51E9266051EF6ECB2BCB51CC5DD8A454
:100CB00045EF06F0580E04011E6F040E1F6F000171
:100CC000C95104011D6F1CAD6AEF06F0880E1C6F40
:100CD0006CEF06F0C80E1C6F00018151C925CD6F65
:100CE0001F0ECD5DD8B479EF06F0D8A079EF06F0ED
:100CF000CD6BCD51816F080EC95D01017E91D8B4D5
:100D00007E811200D36F8029D46F200ED45DD8A4C9
:100D10008BEF06F0D46B00EEDEF08051E926D35164
:100D2000EF6ED451806F120001EE00F0000183518C
:100D3000E926EF500101946F0001842B8329010102
:100D4000976F100E975DD8A4A7EF06F0976B975199
:100D50000001836F01019451120000018351825DF3
:100D600001019491D8A4948194B1BAEF06F00001E6
:100D7000609112000001608112000CEC06F0080E78
:100D80000001845DD8B4C8EF06F0D8A0D2EF06F019
:100D9000040118BFD2EF06F0080E0001D06F030E59
:100DA000DDEF05F01200796BC20E7A6F010E7B6FDA
:100DB0007C6B7D6B080E7F6F7E6B12000401F95116
:100DC0000001BB6F060EBB5DD8A484EF07F00401E1
:100DD000FB510001BC6F0401FA510001BD6FD86BDB
:100DE000010EBC5DD8A407EF07F0120ED86F780E85
:100DF000BE6F040EBF6F1A0EC06F080EC16F000EDB
:100E00004009C26FD8514EEC05F067EF07F0020EB3
:100E1000BC5DD8A41EEF07F0430ED86F780EBE6FEE
:100E2000040EBF6F2C0EC06F080EC16F000E40097C
:100E3000C26FD8514EEC05F067EF07F0030EBC5DB2
:100E4000D8A465EF07F0BD51D8A437EF07F0040E22
:100E5000D86F780EBE6F040EBF6F700EC06F080E95
:100E6000C16F000E4009C26FD8514EEC05F0010E63
:100E70000001BD5DD8A44DEF07F0360ED86F780E97
:100E8000BE6F040EBF6F740EC06F080EC16F000EF0
:100E90004009C26FD8514EEC05F0020E0001BD5D55
:100EA000D8A467EF07F01E0ED86F780EBE6F040E41
:100EB000BF6FAA0EC06F080EC16F000E4009C26F4F
:100EC000D8514EEC05F067EF07F0220EBC5D000133
:100ED000D851D8B482EF07F0080ED76F0401FF5144
:100EE000D8A478EF07F0FE510001D56F7BEF07F033
:100EF000FF0E0001D56F030EDB6FD66B0401049D5E
:100F00006EEF05F0BFEF05F0050EBB5DD8A495EFC1
:100F100007F00401FA510001DC6F010EDA6FA6EC54
:100F200005F0060E0001DB6F1200090EBB5DD8A4B0
:100F3000CDEF07F0060EDB6FA6EC05F0030E000107
:100F4000D96F7188718471827186400E04010C6FB3
:100F5000080E096F300E0A6F040E0B6F800E086FBB
:100F60007288728472827286400E146F080E116F3E
:100F7000400E126F040E136F800E106F738873840F
:100F800073827386400E1C6F080E196F500E1A6F15
:100F9000040E1B6F800E186F12000A0EBB5DD8A4E2
:100FA000D7EF07F0030EDB6F010EAFEF05F0BB517B
:100FB000D8A4DEEF07F0000EAFEF05F01200D890D6
:100FC0006C30AD6FD890AD33D890AD336CA4F5EFE5
:100FD00007F0D890040104310001AF6FD890AF330F
:100FE0000F0EAF15AE6FFFEF07F0D8900401003180
:100FF0000001AF6FD890AF330F0EAF15AE6FAD518C
:10100000D8A4F6EF08F00D0EAE5DD8A475EF08F089
:10101000B06B04EE20F0B051E926EF50606F04EEA3
:10102000F8F0B051E9266051EF6EB02B080EB05DBC
:10103000D8A409EF08F06D98C3EC05F0300E040158
:10104000F8150001AF6FAF51D8A429EF08F0DEEF1B
:1010500006F0200EAF5DD8A46FEF08F00401F9513F
:101060000001B16F230EB15DD8A43BEF08F0060E6E
:10107000DB6FA6EF05F0200EB15DD8A443EF08F0BA
:10108000020EDB6F1200210EB15DD8A461EF08F0F3
:10109000FF0ED56F070ED86F780EBE6F040EBF6FB0
:1010A000790EC06FC16BC26BD8514EEC05F0080EC3
:1010B0000001D76F030EDB6FD66B0401049D6EEF4A
:1010C00005F0220EB15DD8A46EEF08F0060EDB6FBE
:1010D000A6EC05F00401FA510001DD6F1200400E8C
:1010E000AF5DD8A46EEF09F01200090EAE5DD8A472
:1010F0009CEF08F0030EDB5DD8A481EF08F06EEFE3
:1011000005F0060EDB5DD8A492EF08F0DB6B010E54
:10111000DA5DD8A46EEF09F0020ED96FDC516E6E65
:10112000DA6B1200050EDB5DD8B41200040EDB5D35
:10113000D8B400EF06F01200020EAE5DD8A4B6EFF0
:1011400008F0030EDB5DD8A4A8EF08F06EEF05F001
:10115000040EDB5DD8A4AFEF08F000EF06F0060E3A
:10116000DB5DD8A46EEF09F0DB6B1200010EAE5D03
:10117000D8A46EEF09F0050EDB5DD8A4C3EF08F02C
:10118000DB6BC3EF05F0020EDB5DD8A4EAEF08F0DD
:101190000401F9510001B06F200EB05DD8A4E8EF52
:1011A00008F0B16B04EE20F0B151E926EF50606F0A
:1011B00000EE79F0B151E9266051EF6EB12B070EC8
:1011C000B15DD8A4D2EF08F0060EDB6FA6EC05F0F7
:1011D000C3EF05F0030EDB5DD8A4F4EF08F0C3EC19
:1011E00005F00001DB6B1200C3EF05F06CA41DEFEE
:1011F00009F0D890AD35B06FD890B037D890B037EF
:10120000040EB027020EB025AF6F04EE00F0AF5110
:10121000E926EF50B16F030EB025AF6F04EE00F07A
:10122000AF51E926EF50B26FB029AF6F030EAD5D3D
:10123000D8A46EEF09F00CEF06F0D890AD35B06F82
:10124000D890B037D890B037020EB025AF6F04EE0B
:1012500000F0AF51E926EF50B16F030EB025AF6F2C
:1012600004EE00F0AF51E926EF50B26FB029AF6F36
:1012700004EE00F0AF51E926EF50B36FB151B46FF7
:10128000B251B56F030EAD5DD8A46EEF09F0B45145
:10129000E16EB551E26EB351B76FB86B69EF09F00B
:1012A0008229B66F100EB65DD8A458EF09F0B66B60
:1012B000B651835DD8B468EF09F0E650B96F01EE1E
:1012C00000F08251E926B951EF6EB651826F840762
:1012D000B82BB851B75DD8A450EF09F01200A1AAFD
:1012E000C2EF09F0A19A0001AC6B68A67BEF09F090
:1012F000DFEC07F068960001AC2B040EAC5DD8A4BF
:1013000075EF09F068A0B4EF09F06A6A686ADC6BEF
:10131000716A726A736A746A756A766A776A786AD9
:10132000796A100E7A6E7B6A7C6A7D6A7E6A7F6A51
:10133000160E706E68A6A0EF09F068969AEF09F095
:10134000DB6BDA6B6D98080E0401056F280E066FD3
:10135000040E076F046B080E016F200E026F040E5F
:10136000036F8C0E006F689068BA689A68B86898C6
:1013700068ACBEEF09F0BDEC06F0689C68A2C2EF55
:1013800009F068921200030E0001D95DD8A4CBEFDA
:1013900009F060811200609112006FEC09F00CEF0F
:1013A00006F0D96B6D6A140E6F6E6B0E696EA09AA3
:1013B000D3EC06F0686A6D6A6D86010E0001D96F84
:1013C0001200A96FDD51AA6FAA51D8B4120080296A
:1013D000AB6F200EAB5DD8A4EFEF09F0AB6B000153
:1013E000AB51815DD8A4F9EF09F0CDEC09F0EFEF36
:1013F00009F0A95182EF06F00001DD5101018E6F65
:101400008E51D8A408EF0AF00001609121EF0AF094
:10141000ADEC06F0000160B112EF0AF00101929309
:1014200014EF0AF00101928392B31BEF0AF000015E
:10143000609121EF0AF094EC06F001018D6F00013C
:10144000608101018D511200FCEC09F00101876FF0
:101450008751120000016051A86FA851E1EF09F017
:101460000D0E0001606F010187510001746F0101D1
:1014700088510001756F01018951F5EC04F00A0EE5
:101480000001606F010187510001746F01018851F3
:101490000001756F01018951F5EF04F08E519C6FC9
:1014A0008F519D6F9C51A36F9D51A46F9F6B7CEFDB
:1014B0000AF0010194519F250001746F000E5E6EC9
:1014C000010195515E200001756F010196515E206A
:1014D0000001766FDEEC04F00001606F01018751BE
:1014E0000001746F010188510001756F010189517C
:1014F000F5EC04F001019F2B9F51A35D0001606F8B
:101500000101A45100016011D8A459EF0AF01200A2
:101510008751996F88519A6F89519B6F8E519F6F38
:101520008F51A06F9051A16F9151A26F090E99EF49
:101530000AF0A56F9F51A011A111A211D8A4B0EF7C
:101540000AF0300E0001606F010199510001746FC3
:1015500001019A510001756F01019B51F5EF04F0F3
:10156000B081A551800A0001606F800E605DD8B423
:10157000BDEF0AF0D8A0A5EF0BF0D8900101A5357A
:10158000AE6FD890AE37C80EF66E080EF76E000E2E
:10159000F86EAE51F626000EAEBFFF0E5E6E5E50C8
:1015A000F7225E50F8220900F5500001606F090033
:1015B000F550616F0900F550626F0900F550636FD7
:1015C0000101A2510001635DD8A4F9EF0AF0010105
:1015D000A1510001625DD8A4F9EF0AF00101A05108
:1015E0000001615DD8A4F9EF0AF001019F510001EB
:1015F000605DD8B4FFEF0AF0D8B07EEF0BF0D89062
:101600000101A535AF6FD890AF37C80EF66E080E42
:10161000F76E000EF86EAF51F626000EAFBFFF0E4C
:101620005E6E5E50F7225E50F8220900F550000110
:10163000686F0900F550696F0900F5506A6F09007D
:10164000F5506B6F01019F510001606F0101A051C6
:101650000001616F0101A1510001626F0101A251FE
:101660000001636FA1EC04F000016C510101AD6F4A
:10167000D890A535AE6FD890AE37C80EF66E080E6E
:10168000F76E000EF86EAE51F626000EAEBFFF0EDE
:101690005E6E5E50F7225E50F8220900F5500001A0
:1016A000686F0900F550696F0900F5506A6F09000D
:1016B000F5506B6F01019F510001606F0101A05156
:1016C0000001616F0101A1510001626F0101A2518E
:1016D0000001636FA1EC04F00001645101019F6FF0
:1016E000000165510101A06F000166510101A16F68
:1016F000000167510101A26F80EF0BF00101AD6B9A
:10170000A507AD51B089D8B4B099B09BB0A1B08B4A
:10171000B09DB0A9B0BBB08DB0ADB1EF0AF0300E46
:10172000AD11AE6FAE510001606F01019951000122
:10173000746F01019A510001756F01019B51F5EC25
:1017400004F00101B091B1EF0AF0120087518E6FE1
:1017500088518F6FA6B2AAEF0BF08E51A96EA69C8E
:10176000A69EA680A8508D6F8D5112008E6F8B5152
:10177000946F8C51956FA6B2BBEF0BF09451A96E8C
:10178000A69CA69E8E51A86EA6849291F2BE9281CE
:10179000F29E550EA76EAA0EA76EA68292B1D4EF46
:1017A0000BF0F29ED5EF0BF0F28EA6941200C86FEC
:1017B000030EC825C96FC9A7E0EF0BF0C951C86F68
:1017C000300EC825C96FC9AFE8EF0BF0C951C86F1B
:1017D000C8511200C46FC06BC16BC26BC36BC76BC7
:1017E000C351D7EC0BF00101C36FC251D7EC0BF022
:1017F0000101C26FC151D7EC0BF00101C16FC051A3
:10180000D7EC0BF00101C06FC637C537C437C337FB
:10181000C237C137C037C72B180EC75DD8A4F0EF49
:101820000BF0C0511200960E8D6F996B8CAF22EFAA
:101830000CF08A1F8B1F8C1F8A2BD8B48B2BD8B42B
:101840008C2B998F986B8C51D8A43AEF0CF08B515C
:101850008C6F8A518B6F8A6B98878C51D8A43AEF22
:101860000CF08B518C6F8B6B989798898C51D8B4F6
:101870004FEF0CF098518D5FD8A4D8A055EF0CF025
:10188000D8908CBF4CEF0CF08A378B378C378D2F6C
:1018900041EF0CF055EF0CF099AF8C9F000C8C6B66
:1018A0008B6B8A6B896B8D6B000C9A859AAFFF0CE2
:1018B000010E8D6F8C6B8B6B8A6B99378C33FF0CA1
:1018C0009E0E8D6F996B8CAF72EF0CF0891F8A1F83
:1018D0008B1F8C1F892BD8B48A2BD8B48B2BD8B4F0
:1018E0008C2B998F986B8C51D8A496EF0CF08B5160
:1018F0008C6F8A518B6F89518A6F896B98878C5155
:10190000D8A496EF0CF08B518C6F8A518B6F8A6B39
:10191000989798898C51D8A496EF0CF08B518C6FC6
:101920008B6B98878C51D8B4DAEF0CF098518D5F9F
:10193000D8A4D8A0C1EF0CF0D8908CBFA9EF0CF0C0
:1019400089378A378B378C378D2F9DEF0CF0C1EF9D
:101950000CF09ABD8AA1D7EF0CF089AFD7EF0CF04D
:101960008A2BD8B48B2BD8B48C2BD8A4D7EF0CF0FF
:101970008C338B338A338D2BD8B4CCEF0CF0D7EF6C
:101980000CF09A859AAFFF0C010E8D6F8C6B8B6BF0
:101990008A6B99378C33FF0C9A839AAFFF0CFF0E3A
:1019A0008D6F8C6F8B6F8A6F99378C33FF0C99AF6B
:1019B0008C9F000C8C6B8B6B8A6B896B8D6B000C16
:1019C000896B8D51D8B4000C8C51996F8C8F9E0E01
:1019D0008D5F8DAF4FEF0DF08D1F8D2B080E8D5D40
:1019E000D8A01FEF0DF08D6F89378A51896F8B5109
:1019F0008A6F8C518B6F8C6B080E8D5DD8A01FEF9A
:101A00000DF08D6F89378A51896F8B518A6F8B6B7F
:101A1000080E8D5DD8A01FEF0DF08D6F89378A51AC
:101A2000896F8A6B080E8D5DD8A01FEF0DF08D6F4A
:101A30008937896B8D51D8A4D8902BEF0DF08D513B
:101A4000D8B42BEF0DF0D8908C338B338A33893395
:101A50008D2F23EF0DF09ABD89A13CEF0DF0D8A09A
:101A60003CEF0DF0892BD8B48A2BD8B48B2BD8B48B
:101A70008C2B8CBF5CEF0DF099AF000C8C1F8B1F73
:101A80008A1F891F892BD8B48A2BD8B48B2BD8B442
:101A90008C2B000C8C6B8B6B8A6B896B000C9A8186
:101AA0009AAFFF0C8C6B99AFFF0E8C6F8B6F8A6FA8
:101AB000896F99378C33FF0C9A819AAFFF0C8C6B2E
:101AC00099AFFF0E8C6F8B6F8A6F99378C33FF0C39
:101AD0009451D8B408EF0EF08D51D8B40AEF0EF03F
:101AE0008C519319996F8C8F938F986B8C51896F50
:101AF0008B51886F8A51876F9151875F9251D8A01F
:101B0000923D885F9351D8A0933D895F896B886B24
:101B1000876BD8A093EF0DF0D8908C338B338A333A
:101B20008933010E986F94518D5FD8A0A0EF0DF00E
:101B30007E0E98258D27D8B010EF0EF0A6EF0DF091
:101B40007E0E98258D27D8A0FDEF0DF0180E976F0B
:101B50008737883789378A378B378C379837915151
:101B60008A5F9251D8A0923D8B5F9351D8A0933D4C
:101B70008C5F9335981398A1C1EF0DF08781CCEF5E
:101B80000DF091518A279251D8B0923D8B279351F5
:101B9000D8B093298C278791972FA8EF0DF09ABD85
:101BA00087A1F4EF0DF0D8908A378B378C379837B0
:101BB00091518A5F9251D8A0923D8B5F9351D8A0EA
:101BC000933D8C5F93359811010B8727D8B0882BF4
:101BD000D8B4892BD8A4F4EF0DF089338833873338
:101BE0008D2BD8B410EF0EF099AF899F89518C6F6F
:101BF00088518B6F87518A6F000C9A859AAFFF0CC2
:101C0000010E8D6F8C6B8B6B8A6B99378C33FF0C4D
:101C10009A87FF0C8C6B8B6B8A6B896B8D6B000CBE
:101C20009A839AAFFF0CFF0E8D6F8C6F8B6F8A6F4C
:101C300099378C33FF0C8D51D8A49451D8B485EFCB
:101C40000EF08C519319996F94518D277E0ED8A068
:101C500030EF0EF08D5FD8B07AEF0EF034EF0EF06B
:101C60008D5FD8A08BEF0EF08C51896F8B51886FF0
:101C70008A51876F898F938FD8908C6B8B6B8A6B0F
:101C8000180E986F87A14FEF0EF091518A2792514D
:101C9000D8B0923D8B279351D8B0933D8C278C338D
:101CA0008B338A33893388338733D890982F42EF28
:101CB0000EF08CBF61EF0EF089378A378B378C3787
:101CC0008D079ABD8AA177EF0EF089AF77EF0EF0FE
:101CD0008A2BD8B48B2BD8B48C2BD8A477EF0EF0EA
:101CE0008C338B338A338D2BD8B47AEF0EF099AFC7
:101CF0008C9F000C9A839AAFFF0CFF0E8D6F8C6F38
:101D00008B6F8A6F99378C33FF0C8C6B8B6B8A6B64
:101D1000896B8D6B000C9A859AAFFF0C010E8D6F4D
:101D20008C6B8B6B8A6B99378C33FF0C8C519319AE
:101D3000986F896B906B8D51945DD8A0B8EF0EF0C1
:101D40009451876F8D51946F87518D6F9351876F29
:101D50008C51936F87518C6F9251876F8B51926F1B
:101D600087518B6F9151876F8A51916F87518A6F1D
:101D70009451D8B4000C8C51996F8C8F938F9451DF
:101D80008D5D946FD8B4F1EF0EF0080E945DD8A07D
:101D9000E5EF0EF0946F9151906F9251916F9351C6
:101DA000926F936B080E945DD8A0E5EF0EF0946FE0
:101DB0009151906F9251916F926B080E945DD8A0E3
:101DC000E5EF0EF099518C6F000C9451D8B4F1EFFF
:101DD0000EF0D8909333923391339033942FE9EFF0
:101DE0000EF098AFFFEF0EF0901F911F921F931F00
:101DF000902BD8B4912BD8B4922BD8B4932B90516C
:101E000089279151D8B0913D8A279251D8B0923DFF
:101E10008B279351D8B0933D8C2798BF1CEF0FF0C0
:101E2000D8A065EF0FF08C338B338A3389338D3F25
:101E300065EF0FF0B0EF0FF0D8B02EEF0FF0891F65
:101E40008A1F8B1F8C1F892BD8B48A2BD8B48B2B5D
:101E5000D8B48C2B800E991B7DEF0FF0986B8C51B2
:101E6000D8A452EF0FF08B518C6F8A518B6F895130
:101E70008A6F896B98878C51D8A452EF0FF08B51E1
:101E80008C6F8A518B6F8A6B989798898C51D8A4E4
:101E900052EF0FF08B518C6F8B6B98878C51D8B4AD
:101EA000AAEF0FF098518D5FD8A4D8A0BBEF0FF028
:101EB000D8908CBF65EF0FF089378A378B378C3716
:101EC0008D2F59EF0FF0BBEF0FF09ABD8AA1A7EF4E
:101ED0000FF089AFA7EF0FF08A2BD8B48B2BD8B4B3
:101EE0008C2BD8A4A7EF0FF08C338B338A338D2B38
:101EF000D8B4B0EF0FF0A7EF0FF0986B8C51D8A4C7
:101F000095EF0FF08B518C6F8A518B6F8A6B98878E
:101F10008C51D8A495EF0FF08B518C6F8B6B9897E9
:101F200098898C51D8B4AAEF0FF098518D5FD8A43E
:101F3000D8A0BBEF0FF0D8908CBFA7EF0FF08A3777
:101F40008B378C378D2F9CEF0FF0BBEF0FF099AFD5
:101F50008C9F000C8C6B8B6B8A6B896B8D6B000C70
:101F60009A839AAFFF0CFF0E8D6F8C6F8B6F8A6F09
:101F700099378C33FF0C9A859AAFFF0C010E8D6F49
:101F80008C6B8B6B8A6B99378C33FF0C800E931B99
:101F90008C519319986F896B906B8D51945DD8A07B
:101FA000EAEF0FF09451876F8D51946F87518D6FC9
:101FB0009351876F8C51936F87518C6F9251876FBC
:101FC0008B51926F87518B6F9151876F8A51916FAF
:101FD00087518A6F9451D8B4000C8C51996F8C8FB3
:101FE000938F94518D5D946FD8B423EF10F0080E49
:101FF000945DD8A017EF10F0946F9151906F9251AB
:10200000916F9351926F936B080E945DD8A017EF68
:1020100010F0946F9151906F9251916F926B080EE6
:10202000945DD8A017EF10F099518C6F000C94516B
:10203000D8B423EF10F0D890933392339133903388
:10204000942F1BEF10F098AF31EF10F0901F911FFD
:10205000921F931F902BD8B4912BD8B4922BD8B445
:10206000932B905189279151D8B0913D8A27925155
:10207000D8B0923D8B279351D8B0933D8C2798BF11
:102080004EEF10F0D8A097EF10F08C338B338A33DB
:1020900089338D3F97EF10F0E2EF10F0D8B060EF8A
:1020A00010F0891F8A1F8B1F8C1F892BD8B48A2B95
:1020B000D8B48B2BD8B48C2B800E991BAFEF10F0BB
:1020C000986B8C51D8A484EF10F08B518C6F8A518F
:1020D0008B6F89518A6F896B98878C51D8A484EF54
:1020E00010F08B518C6F8A518B6F8A6B98979889FF
:1020F0008C51D8A484EF10F08B518C6F8B6B988728
:102100008C51D8B4DCEF10F098518D5FD8A4D8A0D2
:10211000EDEF10F0D8908CBF97EF10F089378A3729
:102120008B378C378D2F8BEF10F0EDEF10F09ABDC1
:102130008AA1D9EF10F089AFD9EF10F08A2BD8B46B
:102140008B2BD8B48C2BD8A4D9EF10F08C338B33D5
:102150008A338D2BD8B4E2EF10F0D9EF10F0986BE2
:102160008C51D8A4C7EF10F08B518C6F8A518B6FB4
:102170008A6B98878C51D8A4C7EF10F08B518C6F65
:102180008B6B989798898C51D8B4DCEF10F09851EC
:102190008D5FD8A4D8A0EDEF10F0D8908CBFD9EF08
:1021A00010F08A378B378C378D2FCEEF10F0EDEF94
:1021B00010F099AF8C9F000C8C6B8B6B8A6B896BCA
:1021C0008D6B000C9A839AAFFF0CFF0E8D6F8C6F96
:1021D0008B6F8A6F99378C33FF0C9A859AAFFF0CFF
:1021E000010E8D6F8C6B8B6B8A6B99378C33FF0C68
:1021F000C26A0F0EC16EC06A070EB46ED1EC09F050
:102200000001FE6B5AEF11F0D59EF294D586F80EC0
:10221000D516D59CD598D58AD76AD66A1200F2A46D
:1022200017EF11F00101102BD8B4112BF29400011B
:102230007751E96E7851EA6E1100CD909E909F80A3
:10224000CD86CF0ECD143009CD6ECD84CD920B0E40
:10225000CF6EDC0ECE6E12009EA00FEF11F0D59E59
:10226000D6509C6FD7509D6F9E6B9F6BD750A06FC1
:10227000A16BA26BA36BA251A76FA151A66FA05136
:10228000A56FA46B9C51A4250101126F00019D5103
:10229000A5210101136F00019E51A6210101146FB8
:1022A00000019F51A7210101156FCD907E839E9063
:1022B0000FEF11F0750E0101206F030E216F120E4A
:1022C000226F6E0E236F710E246F2B0E256FF70E8B
:1022D000266F6A0E276F90EF15F0C06F0F0EC015B6
:1022E000C26FC0390F0BC36F0F0EC315C16F090E3C
:1022F000C15DD8B483EF11F0D8A083EF11F0370E91
:10230000C12785EF11F0300EC127090EC25DD8B488
:1023100091EF11F0D8A091EF11F0370EC22793EF93
:1023200011F0300EC227C151120000019451010179
:102330008E6F00018D51946F01018E5100018D6FE0
:10234000935101018E6F00018C51936F01018E51E9
:1023500000018C6F925101018E6F00018B51926FC1
:1023600001018E5100018B6F915101018E6F0001AF
:102370008A51916F01018E5100018A6F90510101C4
:102380008E6F00018951906F01018E510001896F9C
:1023900012008E6F9251C56F9451C66F8E51EAEC48
:1023A0000BF001019F6FC151A06FC251A16FC351CA
:1023B000A26FBB6BBC6BBB6B01EE9FF0BB51E92600
:1023C000EF506DEC11F00101BA6FC251B96F01EE1F
:1023D000A5F0BC51E926BA51EF6EBC29BD6F01EEE4
:1023E000A5F0BD51E926B951EF6E020EBC27BB2BFB
:1023F000040EBB5DD8A4DCEF11F09951C56F9C5160
:10240000C66F9751EAEC0BF001019F6FC151A06FAD
:10241000C251A16FC351A26FBB6BBC6BBB6B01EE12
:102420009FF0BB51E926EF506DEC11F00101BA6F3E
:10243000C251B96F01EEB1F0BC51E926BA51EF6E4D
:10244000BC29BD6F01EEB1F0BD51E926B951EF6E67
:10245000020EBC27BB2B040EBB5DD8A40FEF12F0FD
:10246000BB6BBE91BB6B01EEA5F0BB51E926EF50F3
:102470000001606F300E605D0101BE97D8A4BE8779
:10248000BE99BEA1BEB7BE89070EBB5DBE9BD8B4C8
:10249000BE8BBE9DBEA9BEBBBE8DBEAD5AEF12F0B7
:1024A000BE8101EEA5F0BB51E926EF500001606F3F
:1024B0002AEC0AF00101BB2B080EBB5DD8A433EF58
:1024C00012F09E51D8B487EF12F02E0E0001606F0B
:1024D0002AEC0AF00101BB6BBB6BBB29BD6FBD5180
:1024E0009E5DD8B477EF12F0D8A080EF12F001EE25
:1024F000B1F0BB51E926EF500001606F2AEC0AF001
:102500000101BB2B080EBB5DD8A46DEF12F01200C9
:10251000F26A0101106B116B7E9304EC11F01DEC5B
:1025200011F09288640E0101926F936BFDEC04F040
:10253000D58ECD809D80F00EF21201017EA39DEF1D
:1025400012F01051876F1151886F896B8A6B885117
:10255000196F8751186F176B166B1251162713518D
:102560001723145118231551192316510001606FB8
:10257000010117510001616F010118510001626FE3
:10258000010119510001636F050E646F656B666B85
:10259000676B86EC04F0000168510101166F0001C1
:1025A00069510101176F00016A510101186F0001A3
:1025B0006B510101196F9298F26A120018510001D3
:1025C000606F010119510001616F626B636B6051B3
:1025D0008C6F010117510001606F0101185100015A
:1025E000616F010119510001626F636B60518B6F64
:1025F0000101165100018A6F13EC0CF0880E0001E6
:10260000946F7A0E936F926B916B68EC0DF00001F2
:102610008D51946F8C51936F8B51926F8A51916F42
:102620001BEC0EF000018D51FF6F8C5101011C6FEE
:1026300000018B5101011D6F00018A5101011E6FC4
:10264000790E00018D6F4F0E8C6F810E8B6F7A0E9D
:102650008A6F010EFE5D01018E91D8B48E81020E4B
:102660000001FE5D01018E93D8B48E838E958EA1FC
:102670008EB38E858EA54EEF13F020510001946F1E
:10268000010121510001936F010122510001926F5C
:10269000010123510001916F5DEF13F024510001FE
:1026A000946F010125510001936F01012651000132
:1026B000926F010127510001916F68EC0DF000014C
:1026C000FF51946F01011C510001936F01011D51D5
:1026D0000001926F01011E510001916F68EC0DF035
:1026E000010E0001FE5D01018E97D8B48E87020EA7
:1026F0000001FE5D01018E99D8B48E898E9B8EA754
:102700008EB98E8B8EAB96EF13F024510001946F2F
:10271000010125510001936F010126510001926FC3
:10272000010127510001916FA5EF13F02051000125
:10273000946F010121510001936F010122510001A9
:10274000926F010123510001916FC6EC0FF0010E51
:102750000001FE5DD8A4B5EF13F0880E946F7A0ED9
:10276000936F926B916B1BEF0EF012008A9C00012D
:10277000FE510101876F020E0001FE6F140E010170
:102780008B6F8C6B22EC05F0710E0101246F2B0E08
:10279000256FF70E266F6A0E276FDEEC12F095ECB0
:1027A00011F0710E00018D6F2B0E8C6FF70E8B6F79
:1027B0006A0E8A6F96EC0EF000018D510101246FB4
:1027C00000018C510101256F00018B510101266F21
:1027D00000018A510101276F010E8B6F8C6B245110
:1027E000B6EC0BF0020E01018B6F8C6B2551B6EC31
:1027F0000BF0030E01018B6F8C6B2651B6EC0BF0C6
:10280000040E01018B6F8C6B2751B6EC0BF00101AC
:1028100087510001FE6F8A8C1200DEEC12F0800EF0
:1028200000018C150101876F8751D8B41DEF14F09A
:1028300000018D6B8C6B8B6B8A6B00018D510101DC
:10284000286F00018C510101296F00018B5101019A
:102850002A6F00018A5101012B6F0001895101018A
:102860002C6F010E0001FE5DD8A43CEF14F0480E61
:1028700001011B6F3FEF14F0460E01011B6F920E1A
:102880000001946F740E936F240E926F916B1BEC8A
:102890000EF000018D51FF6F8C5101011C6F000182
:1028A0008B5101011D6F00018A5101011E6F000152
:1028B000895101011F6F880E0001946F790E936F8B
:1028C000C00E926F916BC6EC0FF0800E00018C155C
:1028D00001018D6F8D51D8B490EF14F00001FF51BC
:1028E0008D6F01011C5100018C6F01011D51000110
:1028F0008B6F01011E5100018A6F01011F51000100
:10290000896F010EFE5DD8A48BEF14F06E0E0101ED
:102910001A6F01EF15F0700E01011A6F01EF15F03B
:10292000285100018D6F0101295100018C6F0101B7
:102930002A5100018B6F01012B5100018A6F0101A7
:102940002C510001896F880E946F7A0E936F926BF1
:10295000916B1BEC0EF000018D51FF6F8C5101014A
:102960001C6F00018B5101011D6F00018A51010193
:102970001E6F0001895101011F6F880E0001946FC5
:10298000790E936FC00E926F916BC6EC0FF0800EB4
:1029900000018C1501018D6F8D51D8B4E0EF14F05A
:1029A000010E0001FE5DD8A4DBEF14F0750E0101ED
:1029B0001A6FEEEF14F06E0E01011A6FEEEF14F0C5
:1029C000010E0001FE5DD8A4EBEF14F06D0E0101C5
:1029D0001A6FEEEF14F0750E01011A6F0001FF512E
:1029E0008D6F01011C5100018C6F01011D5100010F
:1029F0008B6F01011E5100018A6F01011F510001FF
:102A0000896F00018D51946F8C51936F8B51926F30
:102A10008A51916FE0EC0CF000018C5101011C6FA8
:102A200000018B5101011D6F00018A5101011E6FD0
:102A30000001895101011F6F60EC0CF095EC11F061
:102A4000C6EC0FF0920E0001946F740E936F240E7B
:102A5000926F916B1BEC0EF0E0EC0CF0010E00019C
:102A6000FE5D01018B93D8B48B836E0E1A5D8B953E
:102A7000D8B48B858B878BB38BA58B978BA755EFA2
:102A800015F01E51926F1F51946F00018B5101017F
:102A9000976F00018A510101996F0001895101016D
:102AA0009C6F9E6B1D51C9EF11F00001FE51010199
:102AB0008B89D8A48B99700E1A5D8B9BD8B48B8BA5
:102AC0008B8D8BB98BAB8B9D8BAD7BEF15F01E5136
:102AD000926F1F51946F00018B510101976F00019C
:102AE0008A510101996F0001895101019C6F9E6B10
:102AF0001D51C9EF11F01E51926F1F51946F0001CB
:102B00008B510101976F00018A510101996F0001FA
:102B1000895101019C6F030E9E6F1D51C9EF11F089
:102B200093809382939C939E93988A8C8A9E8A9892
:102B3000846B856B8451876F8551886FA6EC0BF091
:102B40000101866F86512D6F010E2D5DD8B4E8EF1F
:102B500015F08B6B8C6B010EB6EC0BF0010E0101C6
:102B60008B6F8C6B2451B6EC0BF0020E01018B6F56
:102B70008C6B2551B6EC0BF0030E01018B6F8C6B47
:102B80002651B6EC0BF0040E01018B6F8C6B2751B4
:102B9000B6EC0BF0050E01018B6F8C6B2051B6EC7F
:102BA0000BF0060E01018B6F8C6B2151B6EC0BF014
:102BB000070E01018B6F8C6B2251B6EC0BF0080EE7
:102BC00001018B6F8C6B2351B6EC0BF060EF16F0AC
:102BD000010E846F856B8451876F8551886FA6ECD9
:102BE0000BF00101866F86512D6F2D51246F020E5F
:102BF000846F856B8451876F8551886FA6EC0BF0CD
:102C00000101866F86512D6F2D51256F030E846F44
:102C1000856B8451876F8551886FA6EC0BF001019D
:102C2000866F86512D6F2D51266F040E846F856B34
:102C30008451876F8551886FA6EC0BF00101866F78
:102C400086512D6F2D51276F050E846F856B845132
:102C5000876F8551886FA6EC0BF00101866F865156
:102C60002D6F2D51206F060E846F856B8451876FF9
:102C70008551886FA6EC0BF00101866F86512D6F90
:102C80002D51216F070E846F856B8451876F85519D
:102C9000886FA6EC0BF00101866F86512D6F2D51C8
:102CA000226F080E846F856B8451876F8551886F02
:102CB000A6EC0BF00101866F86512D6F2D51236F0D
:102CC000C3EC09F0000160B16AEF16F001017E97D4
:102CD0006CEF16F001017E877EB773EF16F0CDEC36
:102CE00009F060EF16F08A8E280E926F936BFDEC60
:102CF00004F08A9E280E0101926F936BFDEC04F0A4
:102D00008A8E280E0101926F936BFDEC04F08A9E6F
:102D10000101828D426B436B446B456B466B476B85
:102D2000430E5D6F610E5E6F6C0E5F6F690E606FBC
:102D3000620E616F720E626F610E636F6E0E646F72
:102D4000640E656F6F0E666F3A0E676F4C0E686F9C
:102D5000650E696F790E6A6F650E6B6F6E0E6C6F24
:102D6000640E6D6F6F0E6E6F3A0E6F6F430E706F65
:102D7000610E716F6E0E726F630E736F650E746FFE
:102D80006C0E756F610E766F640E776F6F0E786FD5
:102D90002E0E796FCDEC09F00001DD5101012D6F90
:102DA0002D51D8B4F5EF16F082BDF6EF16F0828DF6
:102DB000540E876F140E886F000E896F1B0E8E6F76
:102DC0008F6BF00E946F080E956F000E4009966F92
:102DD0004EEC0AF0540E0101876F140E886F000E3E
:102DE000896F30EC0AF0F6EF16F0829D81B238EF71
:102DF00017F0020E01018B6F8C6B22EC05F081B293
:102E00000AEF17F0320E0101926F936BFDEC04F0A4
:102E1000FFEF16F00101466B426B436B446B456B51
:102E2000476B81AE17EF17F07F9318EF17F07F8392
:102E30007FB31EEF17F08A9E1FEF17F08A8E81A8CE
:102E400025EF17F07F9526EF17F07F857FB52CEFE4
:102E500017F08A982DEF17F08A88010E0001FE5DA9
:102E6000D8A436EF17F0FE6B38EF17F0010EFE6FA7
:102E700081B065EF17F0020E01018B6F8C6B22ECB5
:102E800005F081B04CEF17F0320E0101926F936B99
:102E9000FDEC04F041EF17F00101466B426B436B10
:102EA000446B456B476B030E466F540E876F140ED1
:102EB000886F000E896F0B0E8E6F8F6B5D0E946F97
:102EC000010E956F966B4EEC0AF0C3EC09F0000111
:102ED00060B16FEF17F001017F9D71EF17F00101F5
:102EE0007F8D7FADCAEF16F0010E465D7F9FD8B48F
:102EF0007F8F030E465D8091D8B4808180937FAF31
:102F000080B1808380A303EF19F0FA0E926F936B68
:102F1000FDEC04F088EC12F001015451586F55514A
:102F2000596F56515A6F57515B6F5051546F5151F1
:102F3000556F5251566F5351576F4C51506F4D5101
:102F4000516F4E51526F4F51536F48514C6F495111
:102F50004D6F4A514E6F4B514F6F1651486F17517D
:102F6000496F18514A6F19514B6F422BD8B4432BFC
:102F7000D8B4442BD8B4452B050E425D0001606FD8
:102F8000000E0101435D00016013000E0101445D6C
:102F900000016013000E0101455D00016011D8A41D
:102FA00003EF19F00101426B436B446B456B472BF8
:102FB00048513A6F49513B6F4A513C6F4B513D6FFD
:102FC0004851366F4951376F4A51386F4B51396FFD
:102FD0005C6B5C6BD8905C352D6FD8902D3701EE13
:102FE00048F02D51E926EF500001606FE92AEF50BB
:102FF000616FE92AEF50626FE92AEF50636F635106
:103000000101395DD8A417EF18F0000162510101E8
:10301000385DD8A417EF18F0000161510101375D48
:10302000D8A417EF18F0000160510101365DD8B443
:1030300031EF18F0D8B031EF18F0D8905C352E6F22
:10304000D8902E3701EE48F02E51E926EF50366F1A
:10305000E92AEF50376FE92AEF50386FE92AEF502D
:10306000396FD8905C352D6FD8902D3701EE48F030
:103070002D51E926EF500001606FE92AEF50616F92
:10308000E92AEF50626FE92AEF50636F6351010143
:103090003D5DD8A45EEF18F00001625101013C5D76
:1030A000D8A45EEF18F00001615101013B5DD8A486
:1030B0005EEF18F00001605101013A5DD8B478EF7D
:1030C00018F0D8A078EF18F0D8905C352E6FD89013
:1030D0002E3701EE48F02E51E926EF503A6FE92ADB
:1030E000EF503B6FE92AEF503C6FE92AEF503D6FFC
:1030F0005C2B050E5C5DD8A4EAEF17F03A513E6FE9
:103100003B513F6F3C51406F3D51416FD88036512C
:103110003A552D6F37513B552E6F38513C552F6F17
:1031200039513D55306FD89030317D6F2F317C6FE4
:103130002E317B6F2D317A6F500E326F336B346BC3
:10314000356B0A0E475D809DD8B4A9EF18F0D8B052
:10315000808D030E465D809FD8B4808F000E7D5D0C
:10316000D8A4BFEF18F0000E7C5DD8A4BFEF18F014
:10317000000E7B5DD8A4BFEF18F0050E7A5D81913B
:10318000D8A4D8A08181818380BF81A181938195BA
:1031900080AD81B3818581A5D9EF18F03E51166FBE
:1031A0003F51176F4051186F4151196F462B03EF74
:1031B00019F0010E465D8197D8B481877D51355D48
:1031C000D8A4EFEF18F07C51345DD8A4EFEF18F0DD
:1031D0007B51335DD8A4EFEF18F07A51325D8199BD
:1031E000D8A4D8B08189818B81B781A9819B81AB1B
:1031F00003EF19F03E51166F3F51176F4051186F92
:103200004151196F462B020E0101465D819DD8B4D4
:10321000818D040E465D819FD8B4818F829181ADEE
:1032200081BF828182A147EF1AF0040E465DD8A4C7
:103230003BEF19F0B6EC13F0200E0001606F2AECA2
:103240000AF04F0E0001606F2AEC0AF04B0E0001ED
:10325000606F2AEC0AF02E0E0001606F2AEC0AF073
:10326000540E0101876F140E886F000E896F30ECC9
:103270000AF040EF1AF0CDEC09F0200E0001606F6B
:103280002AEC0AF0460E0001606F2AEC0AF0200ECC
:103290000001606F2AEC0AF03D0E0001606F2AEC1D
:1032A0000AF0200E0001606F2AEC0AF0540E0101B2
:1032B000876F140E886F000E896F16518E6F17512D
:1032C0008F6F1851906F1951916F88EC0AF0480E6A
:1032D0000001606F2AEC0AF07A0E0001606F2AECA0
:1032E0000AF0090E0001606F2AEC0AF0CDEC09F03B
:1032F000010E0001FE5DD8A484EF19F04C0E606F42
:103300002AEC0AF088EF19F0430E606F2AEC0AF0FD
:10331000780E0001606F2AEC0AF0200E0001606F49
:103320002AEC0AF03D0E0001606F2AEC0AF0200E34
:103330000001606F2AEC0AF0000E0101195DD8A4AB
:10334000AEEF19F0000E185DD8A4AEEF19F0000E24
:10335000175DD8A4AEEF19F0050E165D8391D8B4B1
:10336000B4EF19F0D8A08381010E0001FE5D0101C8
:103370008393D8B48383838583B183A3839583A503
:10338000ECEF19F0490E0001606F2AEC0AF06E0EA6
:103390000001606F2AEC0AF0660E0001606F2AECF3
:1033A0000AF0690E0001606F2AEC0AF06E0E00014F
:1033B000606F2AEC0AF0690E0001606F2AEC0AF0D7
:1033C000740E0001606F2AEC0AF0610E0001606F5C
:1033D0002AEC0AF0FAEF19F00DEC14F001011A5181
:1033E0000001606F2AEC0AF001011B510001606FBF
:1033F0002AEC0AF0CDEC09F0090E0001606F2AEC0E
:103400000AF05B0E0001606F2AEC0AF02B0E00013F
:10341000606F2AEC0AF02F0E0001606F2AEC0AF0B0
:103420002D0E0001606F2AEC0AF0540E0101876F27
:10343000140E886F000E896F7A518E6F7B518F6FDB
:103440007C51906F7D51916F88EC0AF0480E00011D
:10345000606F2AEC0AF07A0E0001606F2AEC0AF025
:103460005D0E0001606F2AEC0AF0540E0101876FB7
:10347000140E886F000E896F30EC0AF0CDEC09F065
:103480000101466B426B436B446B456B476B24EC0D
:103490000AF00101316F000160B153EF1AF0010130
:1034A000829555EF1AF00101828582A5CAEF16F0C8
:1034B000720E315DD8A477EF1AF0466B426B436B06
:1034C000446B456B476B010E466F540E876F140EAD
:1034D000886F000E896F080E8E6F8F6B680E946F69
:1034E000010E956F966B4EEC0AF0CAEF16F0780E4F
:1034F000315DD8A4A6EF1AF0466B426B436B446B68
:10350000456B476B540E876F140E886F000E896FE2
:1035100030EC0AF0540E0101876F140E886F000E14
:10352000896F0A0E8E6F8F6B700E946F010E956F00
:10353000966B4EEC0AF0540E0101876F140E886FE3
:10354000000E896F30EC0AF0CAEF16F0630E315DA1
:10355000D8A4C3EF1AF0466B426B436B446B456BC8
:10356000476B030E466F540E876F140E886F000E64
:10357000896F0B0E8E6F8F6B5D0E946F010E956FC2
:0A358000966B4EEC0AF0CAEF16F04D
:00000001FF
